{
  "address": "0x08573031766cC286F47Dbd134d298096DF5221e9",
  "abi": [
    {
      "inputs": [
        {
          "internalType": "uint8",
          "name": "_decimals",
          "type": "uint8"
        },
        {
          "internalType": "string",
          "name": "_description",
          "type": "string"
        },
        {
          "internalType": "uint256",
          "name": "_version",
          "type": "uint256"
        },
        {
          "internalType": "string",
          "name": "_underlying",
          "type": "string"
        }
      ],
      "stateMutability": "nonpayable",
      "type": "constructor"
    },
    {
      "anonymous": false,
      "inputs": [
        {
          "indexed": true,
          "internalType": "address",
          "name": "previousOwner",
          "type": "address"
        },
        {
          "indexed": true,
          "internalType": "address",
          "name": "newOwner",
          "type": "address"
        }
      ],
      "name": "OwnershipTransferred",
      "type": "event"
    },
    {
      "inputs": [],
      "name": "decimals",
      "outputs": [
        {
          "internalType": "uint8",
          "name": "",
          "type": "uint8"
        }
      ],
      "stateMutability": "view",
      "type": "function"
    },
    {
      "inputs": [],
      "name": "description",
      "outputs": [
        {
          "internalType": "string",
          "name": "",
          "type": "string"
        }
      ],
      "stateMutability": "view",
      "type": "function"
    },
    {
      "inputs": [
        {
          "internalType": "uint80",
          "name": "",
          "type": "uint80"
        }
      ],
      "name": "getAnswer",
      "outputs": [
        {
          "internalType": "int256",
          "name": "",
          "type": "int256"
        }
      ],
      "stateMutability": "view",
      "type": "function"
    },
    {
      "inputs": [
        {
          "internalType": "uint80",
          "name": "_roundId",
          "type": "uint80"
        }
      ],
      "name": "getRoundData",
      "outputs": [
        {
          "internalType": "uint80",
          "name": "roundId",
          "type": "uint80"
        },
        {
          "internalType": "int256",
          "name": "answer",
          "type": "int256"
        },
        {
          "internalType": "uint256",
          "name": "startedAt",
          "type": "uint256"
        },
        {
          "internalType": "uint256",
          "name": "updatedAt",
          "type": "uint256"
        },
        {
          "internalType": "uint80",
          "name": "answeredInRound",
          "type": "uint80"
        }
      ],
      "stateMutability": "view",
      "type": "function"
    },
    {
      "inputs": [
        {
          "internalType": "uint80",
          "name": "",
          "type": "uint80"
        }
      ],
      "name": "getStartedAt",
      "outputs": [
        {
          "internalType": "uint256",
          "name": "",
          "type": "uint256"
        }
      ],
      "stateMutability": "view",
      "type": "function"
    },
    {
      "inputs": [
        {
          "internalType": "uint80",
          "name": "",
          "type": "uint80"
        }
      ],
      "name": "getTimestamp",
      "outputs": [
        {
          "internalType": "uint256",
          "name": "",
          "type": "uint256"
        }
      ],
      "stateMutability": "view",
      "type": "function"
    },
    {
      "inputs": [],
      "name": "latestRoundData",
      "outputs": [
        {
          "internalType": "uint80",
          "name": "roundId",
          "type": "uint80"
        },
        {
          "internalType": "int256",
          "name": "answer",
          "type": "int256"
        },
        {
          "internalType": "uint256",
          "name": "startedAt",
          "type": "uint256"
        },
        {
          "internalType": "uint256",
          "name": "updatedAt",
          "type": "uint256"
        },
        {
          "internalType": "uint80",
          "name": "answeredInRound",
          "type": "uint80"
        }
      ],
      "stateMutability": "view",
      "type": "function"
    },
    {
      "inputs": [],
      "name": "owner",
      "outputs": [
        {
          "internalType": "address",
          "name": "",
          "type": "address"
        }
      ],
      "stateMutability": "view",
      "type": "function"
    },
    {
      "inputs": [],
      "name": "renounceOwnership",
      "outputs": [],
      "stateMutability": "nonpayable",
      "type": "function"
    },
    {
      "inputs": [
        {
          "internalType": "address",
          "name": "newOwner",
          "type": "address"
        }
      ],
      "name": "transferOwnership",
      "outputs": [],
      "stateMutability": "nonpayable",
      "type": "function"
    },
    {
      "inputs": [],
      "name": "underlying",
      "outputs": [
        {
          "internalType": "string",
          "name": "",
          "type": "string"
        }
      ],
      "stateMutability": "view",
      "type": "function"
    },
    {
      "inputs": [
        {
          "internalType": "int256",
          "name": "_answer",
          "type": "int256"
        }
      ],
      "name": "updateAnswer",
      "outputs": [],
      "stateMutability": "nonpayable",
      "type": "function"
    },
    {
      "inputs": [],
      "name": "version",
      "outputs": [
        {
          "internalType": "uint256",
          "name": "",
          "type": "uint256"
        }
      ],
      "stateMutability": "view",
      "type": "function"
    }
  ],
  "transactionHash": "0x30a3adb518177953ccd4c21be57397e779e97be217018b0c15ec2339f78d7106",
  "args": [
    18,
    "Price Oracle",
    1,
    "BTC"
  ],
  "numDeployments": 2,
  "solcInputHash": "bc595cfc17f94aaf4877bb3b584ebaf7",
  "bytecode": "0x60806040523480156200001157600080fd5b50604051620009fd380380620009fd83398101604081905262000034916200019d565b838383620000423362000088565b6000805460ff60a01b1916600160a01b60ff8616021790556002620000688382620002ba565b5060015550600690506200007d8282620002ba565b505050505062000386565b600080546001600160a01b038381166001600160a01b0319831681178455604051919092169283917f8be0079c531659141344cd1fd0a4f28419497f9722a3daafe3b4186f6b6457e09190a35050565b634e487b7160e01b600052604160045260246000fd5b600082601f8301126200010057600080fd5b81516001600160401b03808211156200011d576200011d620000d8565b604051601f8301601f19908116603f01168101908282118183101715620001485762000148620000d8565b816040528381526020925086838588010111156200016557600080fd5b600091505b838210156200018957858201830151818301840152908201906200016a565b600093810190920192909252949350505050565b60008060008060808587031215620001b457600080fd5b845160ff81168114620001c657600080fd5b60208601519094506001600160401b0380821115620001e457600080fd5b620001f288838901620000ee565b94506040870151935060608701519150808211156200021057600080fd5b506200021f87828801620000ee565b91505092959194509250565b600181811c908216806200024057607f821691505b6020821081036200026157634e487b7160e01b600052602260045260246000fd5b50919050565b601f821115620002b557600081815260208120601f850160051c81016020861015620002905750805b601f850160051c820191505b81811015620002b1578281556001016200029c565b5050505b505050565b81516001600160401b03811115620002d657620002d6620000d8565b620002ee81620002e784546200022b565b8462000267565b602080601f8311600181146200032657600084156200030d5750858301515b600019600386901b1c1916600185901b178555620002b1565b600085815260208120601f198616915b82811015620003575788860151825594840194600190910190840162000336565b5085821015620003765787850151600019600388901b60f8161c191681555b5050505050600190811b01905550565b61066780620003966000396000f3fe608060405234801561001057600080fd5b50600436106100cf5760003560e01c80637284e4161161008c578063a87a20ce11610066578063a87a20ce14610210578063f2fde38b14610223578063f35bfacd14610236578063feaf968c1461025657600080fd5b80637284e416146101755780638da5cb5b1461017d5780639a6fc8f51461019857600080fd5b80630387c6a5146100d45780631acce90314610107578063313ce5671461012757806354fd4d501461014d5780636f307dc314610156578063715018a61461016b575b600080fd5b6100f46100e2366004610503565b60056020526000908152604090205481565b6040519081526020015b60405180910390f35b6100f4610115366004610503565b60036020526000908152604090205481565b60005461013b90600160a01b900460ff1681565b60405160ff90911681526020016100fe565b6100f460015481565b61015e610293565b6040516100fe9190610533565b610173610321565b005b61015e610335565b6000546040516001600160a01b0390911681526020016100fe565b6101dc6101a6366004610503565b6001600160501b038116600090815260036020908152604080832054600583528184205460049093529220549293919290918490565b604080516001600160501b03968716815260208101959095528401929092526060830152909116608082015260a0016100fe565b61017361021e366004610581565b610342565b61017361023136600461059a565b6103db565b6100f4610244366004610503565b60046020526000908152604090205481565b60008054600160a81b90046001600160501b03168082526003602090815260408084205460058352818520546004909352932054919291836101dc565b600680546102a0906105c3565b80601f01602080910402602001604051908101604052809291908181526020018280546102cc906105c3565b80156103195780601f106102ee57610100808354040283529160200191610319565b820191906000526020600020905b8154815290600101906020018083116102fc57829003601f168201915b505050505081565b610329610459565b61033360006104b3565b565b600280546102a0906105c3565b61034a610459565b60008054600160a81b90046001600160501b031690601561036a836105fd565b82546101009290920a6001600160501b0381810219909316918316021790915560008054600160a81b90819004831682526003602090815260408084209690965582548290048416835260048152858320429081905583549290920490931682526005909252929092209190915550565b6103e3610459565b6001600160a01b03811661044d5760405162461bcd60e51b815260206004820152602660248201527f4f776e61626c653a206e6577206f776e657220697320746865207a65726f206160448201526564647265737360d01b60648201526084015b60405180910390fd5b610456816104b3565b50565b6000546001600160a01b031633146103335760405162461bcd60e51b815260206004820181905260248201527f4f776e61626c653a2063616c6c6572206973206e6f7420746865206f776e65726044820152606401610444565b600080546001600160a01b038381166001600160a01b0319831681178455604051919092169283917f8be0079c531659141344cd1fd0a4f28419497f9722a3daafe3b4186f6b6457e09190a35050565b60006020828403121561051557600080fd5b81356001600160501b038116811461052c57600080fd5b9392505050565b600060208083528351808285015260005b8181101561056057858101830151858201604001528201610544565b506000604082860101526040601f19601f8301168501019250505092915050565b60006020828403121561059357600080fd5b5035919050565b6000602082840312156105ac57600080fd5b81356001600160a01b038116811461052c57600080fd5b600181811c908216806105d757607f821691505b6020821081036105f757634e487b7160e01b600052602260045260246000fd5b50919050565b60006001600160501b0380831681810361062757634e487b7160e01b600052601160045260246000fd5b600101939250505056fea26469706673582212201dafb086fdbf403521e03591d6035d55ff57110c19127bab6a53d6c73c730ff664736f6c63430008130033",
  "devdoc": {
    "kind": "dev",
    "methods": {
      "owner()": {
        "details": "Returns the address of the current owner."
      },
      "renounceOwnership()": {
        "details": "Leaves the contract without owner. It will not be possible to call `onlyOwner` functions. Can only be called by the current owner. NOTE: Renouncing ownership will leave the contract without an owner, thereby disabling any functionality that is only available to the owner."
      },
      "transferOwnership(address)": {
        "details": "Transfers ownership of the contract to a new account (`newOwner`). Can only be called by the current owner."
      }
    },
    "version": 1
  },
  "userdoc": {
    "kind": "user",
    "methods": {},
    "version": 1
  },
  "storageLayout": {
    "storage": [
      {
        "astId": 53,
        "contract": "src/oracles/BTCPriceOracle.sol:BTCPriceOracle",
        "label": "_owner",
        "offset": 0,
        "slot": "0",
        "type": "t_address"
      },
      {
        "astId": 5997,
        "contract": "src/oracles/BTCPriceOracle.sol:BTCPriceOracle",
        "label": "decimals",
        "offset": 20,
        "slot": "0",
        "type": "t_uint8"
      },
      {
        "astId": 5999,
        "contract": "src/oracles/BTCPriceOracle.sol:BTCPriceOracle",
        "label": "latestRound",
        "offset": 21,
        "slot": "0",
        "type": "t_uint80"
      },
      {
        "astId": 6001,
        "contract": "src/oracles/BTCPriceOracle.sol:BTCPriceOracle",
        "label": "version",
        "offset": 0,
        "slot": "1",
        "type": "t_uint256"
      },
      {
        "astId": 6003,
        "contract": "src/oracles/BTCPriceOracle.sol:BTCPriceOracle",
        "label": "description",
        "offset": 0,
        "slot": "2",
        "type": "t_string_storage"
      },
      {
        "astId": 6007,
        "contract": "src/oracles/BTCPriceOracle.sol:BTCPriceOracle",
        "label": "getAnswer",
        "offset": 0,
        "slot": "3",
        "type": "t_mapping(t_uint80,t_int256)"
      },
      {
        "astId": 6011,
        "contract": "src/oracles/BTCPriceOracle.sol:BTCPriceOracle",
        "label": "getTimestamp",
        "offset": 0,
        "slot": "4",
        "type": "t_mapping(t_uint80,t_uint256)"
      },
      {
        "astId": 6015,
        "contract": "src/oracles/BTCPriceOracle.sol:BTCPriceOracle",
        "label": "getStartedAt",
        "offset": 0,
        "slot": "5",
        "type": "t_mapping(t_uint80,t_uint256)"
      },
      {
        "astId": 5965,
        "contract": "src/oracles/BTCPriceOracle.sol:BTCPriceOracle",
        "label": "underlying",
        "offset": 0,
        "slot": "6",
        "type": "t_string_storage"
      }
    ],
    "types": {
      "t_address": {
        "encoding": "inplace",
        "label": "address",
        "numberOfBytes": "20"
      },
      "t_int256": {
        "encoding": "inplace",
        "label": "int256",
        "numberOfBytes": "32"
      },
      "t_mapping(t_uint80,t_int256)": {
        "encoding": "mapping",
        "key": "t_uint80",
        "label": "mapping(uint80 => int256)",
        "numberOfBytes": "32",
        "value": "t_int256"
      },
      "t_mapping(t_uint80,t_uint256)": {
        "encoding": "mapping",
        "key": "t_uint80",
        "label": "mapping(uint80 => uint256)",
        "numberOfBytes": "32",
        "value": "t_uint256"
      },
      "t_string_storage": {
        "encoding": "bytes",
        "label": "string",
        "numberOfBytes": "32"
      },
      "t_uint256": {
        "encoding": "inplace",
        "label": "uint256",
        "numberOfBytes": "32"
      },
      "t_uint8": {
        "encoding": "inplace",
        "label": "uint8",
        "numberOfBytes": "1"
      },
      "t_uint80": {
        "encoding": "inplace",
        "label": "uint80",
        "numberOfBytes": "10"
      }
    }
  }
}