{
  "address": "0x3Fe07fF47cae6C55Fa0f0F17D29f03326B97F55A",
  "abi": [
    {
      "inputs": [
        {
          "internalType": "string",
          "name": "_underlying",
          "type": "string"
        },
        {
          "internalType": "address",
          "name": "_defiBetsManager",
          "type": "address"
        },
        {
          "internalType": "uint256",
          "name": "_timeDelta",
          "type": "uint256"
        }
      ],
      "stateMutability": "nonpayable",
      "type": "constructor"
    },
    {
      "inputs": [],
      "name": "DefiBets_NoValidParamters",
      "type": "error"
    },
    {
      "inputs": [],
      "name": "DefiBets__AlreadyClaimed",
      "type": "error"
    },
    {
      "inputs": [],
      "name": "DefiBets__AlreadyInitialized",
      "type": "error"
    },
    {
      "inputs": [],
      "name": "DefiBets__Forbidden",
      "type": "error"
    },
    {
      "inputs": [],
      "name": "DefiBets__NoValidExpTime",
      "type": "error"
    },
    {
      "inputs": [],
      "name": "DefiBets__NoValidPrice",
      "type": "error"
    },
    {
      "inputs": [],
      "name": "DefiBets__NoValidWinningPrice",
      "type": "error"
    },
    {
      "inputs": [],
      "name": "DefiBets__NotActive",
      "type": "error"
    },
    {
      "inputs": [],
      "name": "DefiBets__NotEpxired",
      "type": "error"
    },
    {
      "inputs": [],
      "name": "DefiBets__NotExecutableTime",
      "type": "error"
    },
    {
      "inputs": [],
      "name": "DefiBets__NotTheTokenOwner",
      "type": "error"
    },
    {
      "inputs": [],
      "name": "DefiBets__OutOfActiveExpTimeRange",
      "type": "error"
    },
    {
      "inputs": [],
      "name": "DefiBets__ParameterNotInitialized",
      "type": "error"
    },
    {
      "inputs": [],
      "name": "DefiBets__TokenDontExists",
      "type": "error"
    },
    {
      "anonymous": false,
      "inputs": [
        {
          "indexed": false,
          "internalType": "uint256",
          "name": "minBetDuration",
          "type": "uint256"
        },
        {
          "indexed": false,
          "internalType": "uint256",
          "name": "maxBetDuration",
          "type": "uint256"
        },
        {
          "indexed": false,
          "internalType": "uint256",
          "name": "slot",
          "type": "uint256"
        },
        {
          "indexed": false,
          "internalType": "uint256",
          "name": "timeDelta",
          "type": "uint256"
        },
        {
          "indexed": false,
          "internalType": "uint256",
          "name": "dependentTimeStamp",
          "type": "uint256"
        }
      ],
      "name": "BetParameterUpdated",
      "type": "event"
    },
    {
      "anonymous": false,
      "inputs": [
        {
          "indexed": true,
          "internalType": "address",
          "name": "account",
          "type": "address"
        },
        {
          "indexed": false,
          "internalType": "uint256",
          "name": "betSize",
          "type": "uint256"
        },
        {
          "indexed": false,
          "internalType": "uint256",
          "name": "profit",
          "type": "uint256"
        },
        {
          "indexed": false,
          "internalType": "uint256",
          "name": "expDate",
          "type": "uint256"
        },
        {
          "indexed": false,
          "internalType": "uint256",
          "name": "minPrice",
          "type": "uint256"
        },
        {
          "indexed": false,
          "internalType": "uint256",
          "name": "maxPrice",
          "type": "uint256"
        },
        {
          "indexed": false,
          "internalType": "uint256",
          "name": "betID",
          "type": "uint256"
        }
      ],
      "name": "BetPlaced",
      "type": "event"
    },
    {
      "anonymous": false,
      "inputs": [
        {
          "indexed": true,
          "internalType": "address",
          "name": "account",
          "type": "address"
        },
        {
          "indexed": false,
          "internalType": "uint256",
          "name": "betID",
          "type": "uint256"
        },
        {
          "indexed": false,
          "internalType": "bool",
          "name": "profit",
          "type": "bool"
        }
      ],
      "name": "Claimed",
      "type": "event"
    },
    {
      "anonymous": false,
      "inputs": [
        {
          "indexed": false,
          "internalType": "uint256",
          "name": "expTime",
          "type": "uint256"
        }
      ],
      "name": "EpxirationTimeCreated",
      "type": "event"
    },
    {
      "anonymous": false,
      "inputs": [
        {
          "indexed": true,
          "internalType": "uint256",
          "name": "expTime",
          "type": "uint256"
        },
        {
          "indexed": false,
          "internalType": "uint256",
          "name": "expPrice",
          "type": "uint256"
        }
      ],
      "name": "Expiration",
      "type": "event"
    },
    {
      "anonymous": false,
      "inputs": [
        {
          "indexed": true,
          "internalType": "address",
          "name": "previousOwner",
          "type": "address"
        },
        {
          "indexed": true,
          "internalType": "address",
          "name": "newOwner",
          "type": "address"
        }
      ],
      "name": "OwnershipTransferred",
      "type": "event"
    },
    {
      "inputs": [],
      "name": "betIDs",
      "outputs": [
        {
          "internalType": "uint256",
          "name": "_value",
          "type": "uint256"
        }
      ],
      "stateMutability": "view",
      "type": "function"
    },
    {
      "inputs": [
        {
          "internalType": "uint256",
          "name": "",
          "type": "uint256"
        },
        {
          "internalType": "uint256",
          "name": "",
          "type": "uint256"
        }
      ],
      "name": "betsWinningSlots",
      "outputs": [
        {
          "internalType": "uint256",
          "name": "",
          "type": "uint256"
        }
      ],
      "stateMutability": "view",
      "type": "function"
    },
    {
      "inputs": [
        {
          "internalType": "address",
          "name": "_account",
          "type": "address"
        },
        {
          "internalType": "uint256",
          "name": "_betID",
          "type": "uint256"
        }
      ],
      "name": "claimForAccount",
      "outputs": [
        {
          "internalType": "uint256",
          "name": "",
          "type": "uint256"
        },
        {
          "internalType": "bool",
          "name": "",
          "type": "bool"
        }
      ],
      "stateMutability": "nonpayable",
      "type": "function"
    },
    {
      "inputs": [],
      "name": "defiBetsManager",
      "outputs": [
        {
          "internalType": "address",
          "name": "",
          "type": "address"
        }
      ],
      "stateMutability": "view",
      "type": "function"
    },
    {
      "inputs": [
        {
          "internalType": "uint256",
          "name": "",
          "type": "uint256"
        }
      ],
      "name": "expTimeInfos",
      "outputs": [
        {
          "internalType": "uint256",
          "name": "expPrice",
          "type": "uint256"
        },
        {
          "internalType": "uint256",
          "name": "slotSize",
          "type": "uint256"
        },
        {
          "internalType": "bool",
          "name": "finished",
          "type": "bool"
        },
        {
          "internalType": "bool",
          "name": "init",
          "type": "bool"
        }
      ],
      "stateMutability": "view",
      "type": "function"
    },
    {
      "inputs": [
        {
          "internalType": "uint256",
          "name": "_betID",
          "type": "uint256"
        }
      ],
      "name": "getBetData",
      "outputs": [
        {
          "components": [
            {
              "internalType": "address",
              "name": "account",
              "type": "address"
            },
            {
              "internalType": "uint256",
              "name": "expTime",
              "type": "uint256"
            },
            {
              "internalType": "uint256",
              "name": "betSize",
              "type": "uint256"
            },
            {
              "internalType": "uint256",
              "name": "profit",
              "type": "uint256"
            },
            {
              "internalType": "uint256",
              "name": "minPrice",
              "type": "uint256"
            },
            {
              "internalType": "uint256",
              "name": "maxPrice",
              "type": "uint256"
            },
            {
              "internalType": "bool",
              "name": "claimed",
              "type": "bool"
            }
          ],
          "internalType": "struct DefiBets.Bet",
          "name": "",
          "type": "tuple"
        }
      ],
      "stateMutability": "view",
      "type": "function"
    },
    {
      "inputs": [],
      "name": "getDependentExpTime",
      "outputs": [
        {
          "internalType": "uint256",
          "name": "",
          "type": "uint256"
        }
      ],
      "stateMutability": "view",
      "type": "function"
    },
    {
      "inputs": [
        {
          "internalType": "uint256",
          "name": "_dependentTimeStamp",
          "type": "uint256"
        },
        {
          "internalType": "uint256",
          "name": "_minBetDuration",
          "type": "uint256"
        },
        {
          "internalType": "uint256",
          "name": "_maxBetDuration",
          "type": "uint256"
        },
        {
          "internalType": "uint256",
          "name": "_slot",
          "type": "uint256"
        }
      ],
      "name": "initializeData",
      "outputs": [],
      "stateMutability": "nonpayable",
      "type": "function"
    },
    {
      "inputs": [],
      "name": "initializeNewExpTime",
      "outputs": [],
      "stateMutability": "nonpayable",
      "type": "function"
    },
    {
      "inputs": [],
      "name": "isActive",
      "outputs": [
        {
          "internalType": "bool",
          "name": "",
          "type": "bool"
        }
      ],
      "stateMutability": "view",
      "type": "function"
    },
    {
      "inputs": [],
      "name": "lastActiveExpTime",
      "outputs": [
        {
          "internalType": "uint256",
          "name": "",
          "type": "uint256"
        }
      ],
      "stateMutability": "view",
      "type": "function"
    },
    {
      "inputs": [],
      "name": "maxBetDuration",
      "outputs": [
        {
          "internalType": "uint256",
          "name": "",
          "type": "uint256"
        }
      ],
      "stateMutability": "view",
      "type": "function"
    },
    {
      "inputs": [],
      "name": "minBetDuration",
      "outputs": [
        {
          "internalType": "uint256",
          "name": "",
          "type": "uint256"
        }
      ],
      "stateMutability": "view",
      "type": "function"
    },
    {
      "inputs": [],
      "name": "owner",
      "outputs": [
        {
          "internalType": "address",
          "name": "",
          "type": "address"
        }
      ],
      "stateMutability": "view",
      "type": "function"
    },
    {
      "inputs": [
        {
          "internalType": "uint256",
          "name": "_betID",
          "type": "uint256"
        }
      ],
      "name": "ownerOf",
      "outputs": [
        {
          "internalType": "address",
          "name": "",
          "type": "address"
        }
      ],
      "stateMutability": "view",
      "type": "function"
    },
    {
      "inputs": [
        {
          "internalType": "uint256",
          "name": "_expTime",
          "type": "uint256"
        },
        {
          "internalType": "uint256",
          "name": "_expPrice",
          "type": "uint256"
        }
      ],
      "name": "performExpiration",
      "outputs": [],
      "stateMutability": "nonpayable",
      "type": "function"
    },
    {
      "inputs": [],
      "name": "renounceOwnership",
      "outputs": [],
      "stateMutability": "nonpayable",
      "type": "function"
    },
    {
      "inputs": [
        {
          "internalType": "address",
          "name": "_account",
          "type": "address"
        },
        {
          "internalType": "uint256",
          "name": "_betSize",
          "type": "uint256"
        },
        {
          "internalType": "uint256",
          "name": "_minPrice",
          "type": "uint256"
        },
        {
          "internalType": "uint256",
          "name": "_maxPrice",
          "type": "uint256"
        },
        {
          "internalType": "uint256",
          "name": "_expTime",
          "type": "uint256"
        },
        {
          "internalType": "uint256",
          "name": "_winning",
          "type": "uint256"
        }
      ],
      "name": "setBetForAccount",
      "outputs": [],
      "stateMutability": "nonpayable",
      "type": "function"
    },
    {
      "inputs": [
        {
          "internalType": "uint256",
          "name": "_minBetDuration",
          "type": "uint256"
        },
        {
          "internalType": "uint256",
          "name": "_maxBetDuration",
          "type": "uint256"
        },
        {
          "internalType": "uint256",
          "name": "_slot",
          "type": "uint256"
        },
        {
          "internalType": "uint256",
          "name": "_timeDelta",
          "type": "uint256"
        },
        {
          "internalType": "uint256",
          "name": "_dependentTimeStamp",
          "type": "uint256"
        }
      ],
      "name": "setBetParamater",
      "outputs": [],
      "stateMutability": "nonpayable",
      "type": "function"
    },
    {
      "inputs": [],
      "name": "slot",
      "outputs": [
        {
          "internalType": "uint256",
          "name": "",
          "type": "uint256"
        }
      ],
      "stateMutability": "view",
      "type": "function"
    },
    {
      "inputs": [],
      "name": "stop",
      "outputs": [],
      "stateMutability": "nonpayable",
      "type": "function"
    },
    {
      "inputs": [],
      "name": "timeDelta",
      "outputs": [
        {
          "internalType": "uint256",
          "name": "",
          "type": "uint256"
        }
      ],
      "stateMutability": "view",
      "type": "function"
    },
    {
      "inputs": [
        {
          "internalType": "address",
          "name": "newOwner",
          "type": "address"
        }
      ],
      "name": "transferOwnership",
      "outputs": [],
      "stateMutability": "nonpayable",
      "type": "function"
    },
    {
      "inputs": [],
      "name": "underlying",
      "outputs": [
        {
          "internalType": "string",
          "name": "",
          "type": "string"
        }
      ],
      "stateMutability": "view",
      "type": "function"
    }
  ],
  "transactionHash": "0xca0dd61fbe4d32efc2b06970b2114f300c7532f76c232ecc45d1ed5020f890b7",
  "args": [
    "BTC",
    "0x5EadF952B713A588dF85d406aecb1a06fCA5dAA3",
    86400
  ],
  "numDeployments": 2,
  "solcInputHash": "ccc37afe8b18c7d6c720f3de5e07fa8a",
  "bytecode": "0x60806040523480156200001157600080fd5b50604051620014b1380380620014b1833981016040819052620000349162000109565b6200003f3362000086565b60026200004d848262000289565b50600f80546001600160a01b0319166001600160a01b0393909316929092179091556008805460ff191660011790556007555062000355565b600080546001600160a01b038381166001600160a01b0319831681178455604051919092169283917f8be0079c531659141344cd1fd0a4f28419497f9722a3daafe3b4186f6b6457e09190a35050565b634e487b7160e01b600052604160045260246000fd5b80516001600160a01b03811681146200010457600080fd5b919050565b6000806000606084860312156200011f57600080fd5b83516001600160401b03808211156200013757600080fd5b818601915086601f8301126200014c57600080fd5b815181811115620001615762000161620000d6565b604051601f8201601f19908116603f011681019083821181831017156200018c576200018c620000d6565b81604052828152602093508984848701011115620001a957600080fd5b600091505b82821015620001cd5784820184015181830185015290830190620001ae565b6000848483010152809750505050620001e8818701620000ec565b93505050604084015190509250925092565b600181811c908216806200020f57607f821691505b6020821081036200023057634e487b7160e01b600052602260045260246000fd5b50919050565b601f8211156200028457600081815260208120601f850160051c810160208610156200025f5750805b601f850160051c820191505b8181101562000280578281556001016200026b565b5050505b505050565b81516001600160401b03811115620002a557620002a5620000d6565b620002bd81620002b68454620001fa565b8462000236565b602080601f831160018114620002f55760008415620002dc5750858301515b600019600386901b1c1916600185901b17855562000280565b600085815260208120601f198616915b82811015620003265788860151825594840194600190910190840162000305565b5085821015620003455787850151600019600388901b60f8161c191681555b5050505050600190811b01905550565b61114c80620003656000396000f3fe608060405234801561001057600080fd5b50600436106101585760003560e01c8063715018a6116100c357806395e8bb231161007c57806395e8bb231461032c578063b5a57ec014610335578063c4f635781461035d578063d57c6e6a146103c0578063deab98fe146103c8578063f2fde38b146103d157600080fd5b8063715018a6146102c7578063730cb651146102cf57806377e8a8f3146102e25780637b5d7eb7146102f5578063847e44a8146103085780638da5cb5b1461031b57600080fd5b806329f0725e1161011557806329f0725e146101bb5780632dc3ceeb146101c45780635bfe1630146101ef578063633557df1461025e5780636352211e146102715780636f307dc3146102b257600080fd5b806307da68f51461015d5780630a1d46ac1461016757806315b0ffb81461018357806319b5649d1461018d5780631a88bc661461019557806322f3e2d41461019e575b600080fd5b6101656103e4565b005b61017060045481565b6040519081526020015b60405180910390f35b6001546101709081565b6101656103f8565b61017060065481565b6008546101ab9060ff1681565b604051901515815260200161017a565b610170600a5481565b6101706101d2366004610e91565b600e60209081526000928352604080842090915290825290205481565b6102026101fd366004610eb3565b610450565b60405161017a919081516001600160a01b031681526020808301519082015260408083015190820152606080830151908201526080808301519082015260a0828101519082015260c09182015115159181019190915260e00190565b61016561026c366004610ecc565b6104ec565b61029a61027f366004610eb3565b6000908152600d60205260409020546001600160a01b031690565b6040516001600160a01b03909116815260200161017a565b6102ba610526565b60405161017a9190610efe565b6101656105b4565b6101656102dd366004610f68565b6105c8565b6101656102f0366004610fb2565b61067f565b610165610303366004610e91565b610716565b600f5461029a906001600160a01b031681565b6000546001600160a01b031661029a565b61017060075481565b610348610343366004610fed565b6107b0565b6040805192835290151560208301520161017a565b61039861036b366004610eb3565b600c6020526000908152604090208054600182015460029092015490919060ff8082169161010090041684565b604080519485526020850193909352901515918301919091521515606082015260800161017a565b600954610170565b61017060055481565b6101656103df366004611017565b610920565b6103ec61099e565b6008805460ff19169055565b6104006109f8565b610408610a23565b610410610a4a565b6000600a546009541161043157600754600a5461042c91610a9a565b610440565b60075460095461044091610a9a565b905061044b81610aaf565b600a55565b610458610e49565b60015482111561047b57604051633f191cd360e11b815260040160405180910390fd5b506000908152600d6020908152604091829020825160e08101845281546001600160a01b031681526001820154928101929092526002810154928201929092526003820154606082015260048201546080820152600582015460a082015260069091015460ff16151560c082015290565b6104f46109f8565b6104fc610b15565b61050b8383836007548861067f565b610513610b39565b50506003805460ff191660011790555050565b6002805461053390611032565b80601f016020809104026020016040519081016040528092919081815260200182805461055f90611032565b80156105ac5780601f10610581576101008083540402835291602001916105ac565b820191906000526020600020905b81548152906001019060200180831161058f57829003601f168201915b505050505081565b6105bc61099e565b6105c66000610b4e565b565b6105d06109f8565b6105d8610b9e565b6105e182610bc6565b6105ea82610c03565b6105f48484610c45565b610602868387848888610c97565b61060e84848385610d49565b856001600160a01b03167f2dd2b43d65748037e1bf278c28aed0fad1a7eec15c4378afaa45f7e37e6d1602868385888861064760015490565b604080519687526020870195909552938501929092526060840152608083015260a082015260c00160405180910390a2505050505050565b6106876109f8565b8385106106a75760405163035eccb560e21b815260040160405180910390fd5b60048590556005849055600683905560078290556009819055604080518681526020810186905290810184905260608101839052608081018290527fb5cfec3bc63366e0751ca30e5371ce14b67c6e89fa505857223bb5e30b5ff11e9060a00160405180910390a15050505050565b61071e6109f8565b610726610b9e565b61072f82610bc6565b42821115610750576040516350348d9960e11b815260040160405180910390fd5b6000828152600c60205260409081902060028101805460ff191660011790558290555182907f1ebc57da8b3ebab98506502fbb73232ea29fbe86e4963a5a8c004810ad11190d906107a49084815260200190565b60405180910390a25050565b6000806107bb6109f8565b6107c483610df2565b60006107cf84610450565b6020808201516000908152600c82526040908190208151608081018352815481526001808301549482019490945260029091015460ff808216151593830184905261010090910416151560608201529293501461083f57604051634fb5b58360e01b815260040160405180910390fd5b6000858152600d60205260409020546001600160a01b0387811691161461087957604051636b46b10d60e11b815260040160405180910390fd5b6000808360800151836000015110158015610898575060a08401518351105b156108a7575050606082015160015b6000878152600d602052604090819020600601805460ff19166001179055516001600160a01b038916907ffa8256f7c08bb01a03ea96f8b3a904a4450311c9725d1c52cdbe21ed3dc42dcc9061090b908a9085909182521515602082015260400190565b60405180910390a29097909650945050505050565b61092861099e565b6001600160a01b0381166109925760405162461bcd60e51b815260206004820152602660248201527f4f776e61626c653a206e6577206f776e657220697320746865207a65726f206160448201526564647265737360d01b60648201526084015b60405180910390fd5b61099b81610b4e565b50565b6000546001600160a01b031633146105c65760405162461bcd60e51b815260206004820181905260248201527f4f776e61626c653a2063616c6c6572206973206e6f7420746865206f776e65726044820152606401610989565b600f546001600160a01b031633146105c6576040516337637c4b60e11b815260040160405180910390fd5b60085460ff1615156000036105c6576040516296355960e01b815260040160405180910390fd5b6000610a63600754600a54610a9a90919063ffffffff16565b9050610a7a60055442610a9a90919063ffffffff16565b81111561099b57604051637440fc5760e11b815260040160405180910390fd5b6000610aa68284611082565b90505b92915050565b6000818152600c60205260409081902060028101805461ff00191661010017905560065460019190910155517f1e27cb68bdcf87b0acca954cd96bccf70cb9442ffa33ed32aeb8239f1734f94a90610b0a9083815260200190565b60405180910390a150565b60035460ff16156105c65760405163c8c4f53960e01b815260040160405180910390fd5b600954610b4581610aaf565b50600954600a55565b600080546001600160a01b038381166001600160a01b0319831681178455604051919092169283917f8be0079c531659141344cd1fd0a4f28419497f9722a3daafe3b4186f6b6457e09190a35050565b60035460ff1615156001146105c65760405163a4ca20e760e01b815260040160405180910390fd5b6000818152600c602052604090206002015460ff61010090910416151560011461099b5760405163069b0e6f60e11b815260040160405180910390fd5b600454610c11904290610a9a565b811080610c275750600554610a7a904290610a9a565b1561099b57604051637440fc5760e11b815260040160405180910390fd5b600654610c5290836110ab565b151580610c6a5750600654610c6790826110ab565b15155b80610c755750808210155b15610c93576040516393dff19360e01b815260040160405180910390fd5b5050565b610ca5600180546001019055565b6000610cb060015490565b9050610cba610e49565b6001600160a01b03978816815260408082019687526080820194855260a082019384526060820195865260208083019889526000938452600d9052909120815181546001600160a01b031916981697909717875594516001870155925160028601559051600385015551600484015551600583015560c001516006909101805460ff1916911515919091179055565b600654600090610d6390610d5d8688610e25565b90610e31565b905060005b81811015610dea576000610d91610d8a60065484610e3d90919063ffffffff16565b8890610a9a565b6000858152600e60209081526040808320848452909152902054909150610db88187610a9a565b6000868152600e6020908152604080832095835294905292909220919091555080610de2816110bf565b915050610d68565b505050505050565b6000818152600d602052604090206006015460ff161561099b5760405163e623919160e01b815260040160405180910390fd5b6000610aa682846110d8565b6000610aa682846110eb565b6000610aa682846110ff565b6040518060e0016040528060006001600160a01b0316815260200160008152602001600081526020016000815260200160008152602001600081526020016000151581525090565b60008060408385031215610ea457600080fd5b50508035926020909101359150565b600060208284031215610ec557600080fd5b5035919050565b60008060008060808587031215610ee257600080fd5b5050823594602084013594506040840135936060013592509050565b600060208083528351808285015260005b81811015610f2b57858101830151858201604001528201610f0f565b506000604082860101526040601f19601f8301168501019250505092915050565b80356001600160a01b0381168114610f6357600080fd5b919050565b60008060008060008060c08789031215610f8157600080fd5b610f8a87610f4c565b9860208801359850604088013597606081013597506080810135965060a00135945092505050565b600080600080600060a08688031215610fca57600080fd5b505083359560208501359550604085013594606081013594506080013592509050565b6000806040838503121561100057600080fd5b61100983610f4c565b946020939093013593505050565b60006020828403121561102957600080fd5b610aa682610f4c565b600181811c9082168061104657607f821691505b60208210810361106657634e487b7160e01b600052602260045260246000fd5b50919050565b634e487b7160e01b600052601160045260246000fd5b80820180821115610aa957610aa961106c565b634e487b7160e01b600052601260045260246000fd5b6000826110ba576110ba611095565b500690565b6000600182016110d1576110d161106c565b5060010190565b81810381811115610aa957610aa961106c565b6000826110fa576110fa611095565b500490565b8082028115828204841417610aa957610aa961106c56fea2646970667358221220590114025a78d1803493602b957eaee3a614fead9382b222a097f1fd5cc7c1fe64736f6c63430008130033",
  "devdoc": {
    "kind": "dev",
    "methods": {
      "constructor": {
        "params": {
          "_defiBetsManager": "- the manager and owner of the contract."
        }
      },
      "owner()": {
        "details": "Returns the address of the current owner."
      },
      "renounceOwnership()": {
        "details": "Leaves the contract without owner. It will not be possible to call `onlyOwner` functions. Can only be called by the current owner. NOTE: Renouncing ownership will leave the contract without an owner, thereby disabling any functionality that is only available to the owner."
      },
      "transferOwnership(address)": {
        "details": "Transfers ownership of the contract to a new account (`newOwner`). Can only be called by the current owner."
      }
    },
    "version": 1
  },
  "userdoc": {
    "kind": "user",
    "methods": {},
    "version": 1
  },
  "storageLayout": {
    "storage": [
      {
        "astId": 53,
        "contract": "src/core/DefiBets.sol:DefiBets",
        "label": "_owner",
        "offset": 0,
        "slot": "0",
        "type": "t_address"
      },
      {
        "astId": 3482,
        "contract": "src/core/DefiBets.sol:DefiBets",
        "label": "betIDs",
        "offset": 0,
        "slot": "1",
        "type": "t_struct(Counter)1790_storage"
      },
      {
        "astId": 3484,
        "contract": "src/core/DefiBets.sol:DefiBets",
        "label": "underlying",
        "offset": 0,
        "slot": "2",
        "type": "t_string_storage"
      },
      {
        "astId": 3486,
        "contract": "src/core/DefiBets.sol:DefiBets",
        "label": "initialized",
        "offset": 0,
        "slot": "3",
        "type": "t_bool"
      },
      {
        "astId": 3488,
        "contract": "src/core/DefiBets.sol:DefiBets",
        "label": "minBetDuration",
        "offset": 0,
        "slot": "4",
        "type": "t_uint256"
      },
      {
        "astId": 3490,
        "contract": "src/core/DefiBets.sol:DefiBets",
        "label": "maxBetDuration",
        "offset": 0,
        "slot": "5",
        "type": "t_uint256"
      },
      {
        "astId": 3492,
        "contract": "src/core/DefiBets.sol:DefiBets",
        "label": "slot",
        "offset": 0,
        "slot": "6",
        "type": "t_uint256"
      },
      {
        "astId": 3494,
        "contract": "src/core/DefiBets.sol:DefiBets",
        "label": "timeDelta",
        "offset": 0,
        "slot": "7",
        "type": "t_uint256"
      },
      {
        "astId": 3496,
        "contract": "src/core/DefiBets.sol:DefiBets",
        "label": "isActive",
        "offset": 0,
        "slot": "8",
        "type": "t_bool"
      },
      {
        "astId": 3498,
        "contract": "src/core/DefiBets.sol:DefiBets",
        "label": "dependentTimeStamp",
        "offset": 0,
        "slot": "9",
        "type": "t_uint256"
      },
      {
        "astId": 3500,
        "contract": "src/core/DefiBets.sol:DefiBets",
        "label": "lastActiveExpTime",
        "offset": 0,
        "slot": "10",
        "type": "t_uint256"
      },
      {
        "astId": 3504,
        "contract": "src/core/DefiBets.sol:DefiBets",
        "label": "validExpTime",
        "offset": 0,
        "slot": "11",
        "type": "t_mapping(t_uint256,t_bool)"
      },
      {
        "astId": 3509,
        "contract": "src/core/DefiBets.sol:DefiBets",
        "label": "expTimeInfos",
        "offset": 0,
        "slot": "12",
        "type": "t_mapping(t_uint256,t_struct(ExpTimeInfo)3461_storage)"
      },
      {
        "astId": 3514,
        "contract": "src/core/DefiBets.sol:DefiBets",
        "label": "bets",
        "offset": 0,
        "slot": "13",
        "type": "t_mapping(t_uint256,t_struct(Bet)3476_storage)"
      },
      {
        "astId": 3520,
        "contract": "src/core/DefiBets.sol:DefiBets",
        "label": "betsWinningSlots",
        "offset": 0,
        "slot": "14",
        "type": "t_mapping(t_uint256,t_mapping(t_uint256,t_uint256))"
      },
      {
        "astId": 3522,
        "contract": "src/core/DefiBets.sol:DefiBets",
        "label": "defiBetsManager",
        "offset": 0,
        "slot": "15",
        "type": "t_address"
      }
    ],
    "types": {
      "t_address": {
        "encoding": "inplace",
        "label": "address",
        "numberOfBytes": "20"
      },
      "t_bool": {
        "encoding": "inplace",
        "label": "bool",
        "numberOfBytes": "1"
      },
      "t_mapping(t_uint256,t_bool)": {
        "encoding": "mapping",
        "key": "t_uint256",
        "label": "mapping(uint256 => bool)",
        "numberOfBytes": "32",
        "value": "t_bool"
      },
      "t_mapping(t_uint256,t_mapping(t_uint256,t_uint256))": {
        "encoding": "mapping",
        "key": "t_uint256",
        "label": "mapping(uint256 => mapping(uint256 => uint256))",
        "numberOfBytes": "32",
        "value": "t_mapping(t_uint256,t_uint256)"
      },
      "t_mapping(t_uint256,t_struct(Bet)3476_storage)": {
        "encoding": "mapping",
        "key": "t_uint256",
        "label": "mapping(uint256 => struct DefiBets.Bet)",
        "numberOfBytes": "32",
        "value": "t_struct(Bet)3476_storage"
      },
      "t_mapping(t_uint256,t_struct(ExpTimeInfo)3461_storage)": {
        "encoding": "mapping",
        "key": "t_uint256",
        "label": "mapping(uint256 => struct DefiBets.ExpTimeInfo)",
        "numberOfBytes": "32",
        "value": "t_struct(ExpTimeInfo)3461_storage"
      },
      "t_mapping(t_uint256,t_uint256)": {
        "encoding": "mapping",
        "key": "t_uint256",
        "label": "mapping(uint256 => uint256)",
        "numberOfBytes": "32",
        "value": "t_uint256"
      },
      "t_string_storage": {
        "encoding": "bytes",
        "label": "string",
        "numberOfBytes": "32"
      },
      "t_struct(Bet)3476_storage": {
        "encoding": "inplace",
        "label": "struct DefiBets.Bet",
        "members": [
          {
            "astId": 3463,
            "contract": "src/core/DefiBets.sol:DefiBets",
            "label": "account",
            "offset": 0,
            "slot": "0",
            "type": "t_address"
          },
          {
            "astId": 3465,
            "contract": "src/core/DefiBets.sol:DefiBets",
            "label": "expTime",
            "offset": 0,
            "slot": "1",
            "type": "t_uint256"
          },
          {
            "astId": 3467,
            "contract": "src/core/DefiBets.sol:DefiBets",
            "label": "betSize",
            "offset": 0,
            "slot": "2",
            "type": "t_uint256"
          },
          {
            "astId": 3469,
            "contract": "src/core/DefiBets.sol:DefiBets",
            "label": "profit",
            "offset": 0,
            "slot": "3",
            "type": "t_uint256"
          },
          {
            "astId": 3471,
            "contract": "src/core/DefiBets.sol:DefiBets",
            "label": "minPrice",
            "offset": 0,
            "slot": "4",
            "type": "t_uint256"
          },
          {
            "astId": 3473,
            "contract": "src/core/DefiBets.sol:DefiBets",
            "label": "maxPrice",
            "offset": 0,
            "slot": "5",
            "type": "t_uint256"
          },
          {
            "astId": 3475,
            "contract": "src/core/DefiBets.sol:DefiBets",
            "label": "claimed",
            "offset": 0,
            "slot": "6",
            "type": "t_bool"
          }
        ],
        "numberOfBytes": "224"
      },
      "t_struct(Counter)1790_storage": {
        "encoding": "inplace",
        "label": "struct Counters.Counter",
        "members": [
          {
            "astId": 1789,
            "contract": "src/core/DefiBets.sol:DefiBets",
            "label": "_value",
            "offset": 0,
            "slot": "0",
            "type": "t_uint256"
          }
        ],
        "numberOfBytes": "32"
      },
      "t_struct(ExpTimeInfo)3461_storage": {
        "encoding": "inplace",
        "label": "struct DefiBets.ExpTimeInfo",
        "members": [
          {
            "astId": 3454,
            "contract": "src/core/DefiBets.sol:DefiBets",
            "label": "expPrice",
            "offset": 0,
            "slot": "0",
            "type": "t_uint256"
          },
          {
            "astId": 3456,
            "contract": "src/core/DefiBets.sol:DefiBets",
            "label": "slotSize",
            "offset": 0,
            "slot": "1",
            "type": "t_uint256"
          },
          {
            "astId": 3458,
            "contract": "src/core/DefiBets.sol:DefiBets",
            "label": "finished",
            "offset": 0,
            "slot": "2",
            "type": "t_bool"
          },
          {
            "astId": 3460,
            "contract": "src/core/DefiBets.sol:DefiBets",
            "label": "init",
            "offset": 1,
            "slot": "2",
            "type": "t_bool"
          }
        ],
        "numberOfBytes": "96"
      },
      "t_uint256": {
        "encoding": "inplace",
        "label": "uint256",
        "numberOfBytes": "32"
      }
    }
  }
}