{
  "address": "0x0d1C80Ea9387936FAC78F74443bAd1DC1FAcAD06",
  "abi": [
    {
      "inputs": [],
      "stateMutability": "nonpayable",
      "type": "constructor"
    },
    {
      "inputs": [],
      "name": "DefiBetsManager__ExpTimeNotValid",
      "type": "error"
    },
    {
      "inputs": [],
      "name": "DefiBetsManager__NoValidUnderlying",
      "type": "error"
    },
    {
      "inputs": [],
      "name": "DefiBetsManager__NotValidRoundId",
      "type": "error"
    },
    {
      "anonymous": false,
      "inputs": [
        {
          "indexed": false,
          "internalType": "uint256",
          "name": "feePpm",
          "type": "uint256"
        }
      ],
      "name": "FeeUpdated",
      "type": "event"
    },
    {
      "anonymous": false,
      "inputs": [
        {
          "indexed": false,
          "internalType": "bytes32",
          "name": "underlying",
          "type": "bytes32"
        },
        {
          "indexed": false,
          "internalType": "address",
          "name": "feed",
          "type": "address"
        },
        {
          "indexed": false,
          "internalType": "uint256",
          "name": "period",
          "type": "uint256"
        }
      ],
      "name": "IVFeedUpdated",
      "type": "event"
    },
    {
      "anonymous": false,
      "inputs": [
        {
          "indexed": true,
          "internalType": "address",
          "name": "previousOwner",
          "type": "address"
        },
        {
          "indexed": true,
          "internalType": "address",
          "name": "newOwner",
          "type": "address"
        }
      ],
      "name": "OwnershipTransferred",
      "type": "event"
    },
    {
      "anonymous": false,
      "inputs": [
        {
          "indexed": false,
          "internalType": "address",
          "name": "account",
          "type": "address"
        }
      ],
      "name": "Paused",
      "type": "event"
    },
    {
      "anonymous": false,
      "inputs": [
        {
          "indexed": false,
          "internalType": "uint256",
          "name": "payoutFactor",
          "type": "uint256"
        }
      ],
      "name": "PayoutFactorUpdated",
      "type": "event"
    },
    {
      "anonymous": false,
      "inputs": [
        {
          "indexed": false,
          "internalType": "bytes32",
          "name": "underlying",
          "type": "bytes32"
        },
        {
          "indexed": false,
          "internalType": "address",
          "name": "priceFeed",
          "type": "address"
        }
      ],
      "name": "PriceFeedUpdated",
      "type": "event"
    },
    {
      "anonymous": false,
      "inputs": [
        {
          "indexed": false,
          "internalType": "string",
          "name": "underlying",
          "type": "string"
        },
        {
          "indexed": false,
          "internalType": "bytes32",
          "name": "underlyingHash",
          "type": "bytes32"
        },
        {
          "indexed": false,
          "internalType": "address",
          "name": "defiBets",
          "type": "address"
        }
      ],
      "name": "UnderlyingAdded",
      "type": "event"
    },
    {
      "anonymous": false,
      "inputs": [
        {
          "indexed": false,
          "internalType": "address",
          "name": "account",
          "type": "address"
        }
      ],
      "name": "Unpaused",
      "type": "event"
    },
    {
      "inputs": [],
      "name": "MULTIPLIER",
      "outputs": [
        {
          "internalType": "uint256",
          "name": "",
          "type": "uint256"
        }
      ],
      "stateMutability": "view",
      "type": "function"
    },
    {
      "inputs": [
        {
          "internalType": "string",
          "name": "_underlying",
          "type": "string"
        },
        {
          "internalType": "address",
          "name": "_feed",
          "type": "address"
        },
        {
          "internalType": "address",
          "name": "_defiBets",
          "type": "address"
        }
      ],
      "name": "addUnderlyingToken",
      "outputs": [],
      "stateMutability": "nonpayable",
      "type": "function"
    },
    {
      "inputs": [
        {
          "internalType": "uint256",
          "name": "_price",
          "type": "uint256"
        },
        {
          "internalType": "uint256",
          "name": "_betSize",
          "type": "uint256"
        },
        {
          "internalType": "uint256",
          "name": "_minPrice",
          "type": "uint256"
        },
        {
          "internalType": "uint256",
          "name": "_maxPrice",
          "type": "uint256"
        },
        {
          "internalType": "uint256",
          "name": "_expTime",
          "type": "uint256"
        },
        {
          "internalType": "bytes32",
          "name": "_hash",
          "type": "bytes32"
        }
      ],
      "name": "calculateWinning",
      "outputs": [
        {
          "internalType": "uint256",
          "name": "",
          "type": "uint256"
        }
      ],
      "stateMutability": "view",
      "type": "function"
    },
    {
      "inputs": [
        {
          "internalType": "uint256",
          "name": "_tokenId",
          "type": "uint256"
        },
        {
          "internalType": "bytes32",
          "name": "_hash",
          "type": "bytes32"
        }
      ],
      "name": "claimWinnings",
      "outputs": [],
      "stateMutability": "nonpayable",
      "type": "function"
    },
    {
      "inputs": [
        {
          "internalType": "bytes32",
          "name": "_tokenHash",
          "type": "bytes32"
        }
      ],
      "name": "createNewExpTime",
      "outputs": [],
      "stateMutability": "nonpayable",
      "type": "function"
    },
    {
      "inputs": [
        {
          "internalType": "bytes32",
          "name": "",
          "type": "bytes32"
        }
      ],
      "name": "defiBetsContracts",
      "outputs": [
        {
          "internalType": "address",
          "name": "",
          "type": "address"
        }
      ],
      "stateMutability": "view",
      "type": "function"
    },
    {
      "inputs": [
        {
          "internalType": "uint256",
          "name": "_expTime",
          "type": "uint256"
        },
        {
          "internalType": "string",
          "name": "_underlying",
          "type": "string"
        },
        {
          "internalType": "uint80",
          "name": "_roundId",
          "type": "uint80"
        }
      ],
      "name": "executeExpiration",
      "outputs": [],
      "stateMutability": "nonpayable",
      "type": "function"
    },
    {
      "inputs": [
        {
          "internalType": "bytes32",
          "name": "_hash",
          "type": "bytes32"
        }
      ],
      "name": "getCurrPrice",
      "outputs": [
        {
          "internalType": "uint256",
          "name": "",
          "type": "uint256"
        }
      ],
      "stateMutability": "view",
      "type": "function"
    },
    {
      "inputs": [
        {
          "internalType": "bytes32",
          "name": "_hash",
          "type": "bytes32"
        }
      ],
      "name": "getImplVol",
      "outputs": [
        {
          "internalType": "uint256",
          "name": "",
          "type": "uint256"
        }
      ],
      "stateMutability": "view",
      "type": "function"
    },
    {
      "inputs": [
        {
          "internalType": "bytes32",
          "name": "_hash",
          "type": "bytes32"
        },
        {
          "internalType": "uint256",
          "name": "_expTime",
          "type": "uint256"
        },
        {
          "internalType": "uint80",
          "name": "_roundId",
          "type": "uint80"
        }
      ],
      "name": "getPrice",
      "outputs": [
        {
          "internalType": "uint256",
          "name": "",
          "type": "uint256"
        }
      ],
      "stateMutability": "view",
      "type": "function"
    },
    {
      "inputs": [
        {
          "internalType": "string",
          "name": "_token",
          "type": "string"
        }
      ],
      "name": "getUnderlyingByte",
      "outputs": [
        {
          "internalType": "bytes32",
          "name": "",
          "type": "bytes32"
        }
      ],
      "stateMutability": "pure",
      "type": "function"
    },
    {
      "inputs": [
        {
          "internalType": "bytes32",
          "name": "_hash",
          "type": "bytes32"
        },
        {
          "internalType": "uint256",
          "name": "_startExpTime",
          "type": "uint256"
        },
        {
          "internalType": "uint256",
          "name": "_minBetDuration",
          "type": "uint256"
        },
        {
          "internalType": "uint256",
          "name": "_maxBetDuration",
          "type": "uint256"
        },
        {
          "internalType": "uint256",
          "name": "_slot",
          "type": "uint256"
        }
      ],
      "name": "initializeBets",
      "outputs": [],
      "stateMutability": "nonpayable",
      "type": "function"
    },
    {
      "inputs": [],
      "name": "owner",
      "outputs": [
        {
          "internalType": "address",
          "name": "",
          "type": "address"
        }
      ],
      "stateMutability": "view",
      "type": "function"
    },
    {
      "inputs": [],
      "name": "paused",
      "outputs": [
        {
          "internalType": "bool",
          "name": "",
          "type": "bool"
        }
      ],
      "stateMutability": "view",
      "type": "function"
    },
    {
      "inputs": [],
      "name": "pointTracker",
      "outputs": [
        {
          "internalType": "address",
          "name": "",
          "type": "address"
        }
      ],
      "stateMutability": "view",
      "type": "function"
    },
    {
      "inputs": [],
      "name": "renounceOwnership",
      "outputs": [],
      "stateMutability": "nonpayable",
      "type": "function"
    },
    {
      "inputs": [
        {
          "internalType": "uint256",
          "name": "_betSize",
          "type": "uint256"
        },
        {
          "internalType": "uint256",
          "name": "_minPrice",
          "type": "uint256"
        },
        {
          "internalType": "uint256",
          "name": "_maxPrice",
          "type": "uint256"
        },
        {
          "internalType": "uint256",
          "name": "_expTime",
          "type": "uint256"
        },
        {
          "internalType": "string",
          "name": "_underlying",
          "type": "string"
        }
      ],
      "name": "setBet",
      "outputs": [],
      "stateMutability": "nonpayable",
      "type": "function"
    },
    {
      "inputs": [
        {
          "internalType": "uint256",
          "name": "_minBetDuration",
          "type": "uint256"
        },
        {
          "internalType": "uint256",
          "name": "_maxBetDuration",
          "type": "uint256"
        },
        {
          "internalType": "uint256",
          "name": "_slot",
          "type": "uint256"
        },
        {
          "internalType": "uint256",
          "name": "_timeDelta",
          "type": "uint256"
        },
        {
          "internalType": "uint256",
          "name": "_dependentTimeStamp",
          "type": "uint256"
        },
        {
          "internalType": "bytes32",
          "name": "_hash",
          "type": "bytes32"
        }
      ],
      "name": "setDefiBetsParameter",
      "outputs": [],
      "stateMutability": "nonpayable",
      "type": "function"
    },
    {
      "inputs": [
        {
          "internalType": "address",
          "name": "_pointTracker",
          "type": "address"
        }
      ],
      "name": "setPointTracker",
      "outputs": [],
      "stateMutability": "nonpayable",
      "type": "function"
    },
    {
      "inputs": [
        {
          "internalType": "address",
          "name": "newOwner",
          "type": "address"
        }
      ],
      "name": "transferOwnership",
      "outputs": [],
      "stateMutability": "nonpayable",
      "type": "function"
    },
    {
      "inputs": [
        {
          "internalType": "bytes32",
          "name": "",
          "type": "bytes32"
        }
      ],
      "name": "underlyingIVFeeds",
      "outputs": [
        {
          "internalType": "address",
          "name": "feedAddress",
          "type": "address"
        },
        {
          "internalType": "uint256",
          "name": "period",
          "type": "uint256"
        }
      ],
      "stateMutability": "view",
      "type": "function"
    },
    {
      "inputs": [
        {
          "internalType": "bytes32",
          "name": "",
          "type": "bytes32"
        }
      ],
      "name": "underlyingPriceFeeds",
      "outputs": [
        {
          "internalType": "address",
          "name": "",
          "type": "address"
        }
      ],
      "stateMutability": "view",
      "type": "function"
    },
    {
      "inputs": [
        {
          "internalType": "bytes32",
          "name": "_hash",
          "type": "bytes32"
        },
        {
          "internalType": "address",
          "name": "_feed",
          "type": "address"
        },
        {
          "internalType": "uint256",
          "name": "_period",
          "type": "uint256"
        }
      ],
      "name": "updateIVFeed",
      "outputs": [],
      "stateMutability": "nonpayable",
      "type": "function"
    },
    {
      "inputs": [
        {
          "internalType": "bytes32",
          "name": "_hash",
          "type": "bytes32"
        },
        {
          "internalType": "address",
          "name": "_feed",
          "type": "address"
        }
      ],
      "name": "updatePriceFeed",
      "outputs": [],
      "stateMutability": "nonpayable",
      "type": "function"
    },
    {
      "inputs": [
        {
          "internalType": "bytes32",
          "name": "",
          "type": "bytes32"
        }
      ],
      "name": "validUnderlying",
      "outputs": [
        {
          "internalType": "bool",
          "name": "",
          "type": "bool"
        }
      ],
      "stateMutability": "view",
      "type": "function"
    }
  ],
  "transactionHash": "0xf89ac229b85d2c91558bcd314d524b28e056d12a3be88e67209cb0e8edbd1812",
  "args": [],
  "numDeployments": 1,
  "solcInputHash": "10c0098750cee4c9948b7ca3d8e3f706",
  "bytecode": "0x608060405234801561001057600080fd5b506000805460ff1916905561002433610029565b610082565b600080546001600160a01b03838116610100818102610100600160a81b0319851617855560405193049190911692909183917f8be0079c531659141344cd1fd0a4f28419497f9722a3daafe3b4186f6b6457e091a35050565b611666806100916000396000f3fe608060405234801561001057600080fd5b50600436106101735760003560e01c80638da5cb5b116100de578063c81b270111610097578063d8c4683211610071578063d8c468321461038b578063e1ec18c5146103b4578063f2fde38b146103c7578063fd9a6035146103da57600080fd5b8063c81b270114610342578063d21c2b5b14610355578063d7861d861461036857600080fd5b80638da5cb5b146102cd5780639536c1b0146102e35780639f91a782146102f6578063b483324e14610309578063b54279b41461031c578063c2b6cc9d1461032f57600080fd5b806341446b0a1161013057806341446b0a1461024c5780634abfa5701461025f5780635c975abb146102725780635e7e499614610289578063715018a61461029c578063781e98ae146102a457600080fd5b8063059f8b16146101785780631e1f5af91461019457806325d19adf146101a95780633476d36f146101bc57806336964579146101cf5780633806887f14610221575b600080fd5b61018161271081565b6040519081526020015b60405180910390f35b6101a76101a2366004611112565b6103f3565b005b6101a76101b73660046111d7565b6104f6565b6101816101ca36600461123b565b61065a565b6102026101dd36600461123b565b600260205260009081526040902080546001909101546001600160a01b039091169082565b604080516001600160a01b03909316835260208301919091520161018b565b600154610234906001600160a01b031681565b6040516001600160a01b03909116815260200161018b565b6101a761025a366004611254565b6106e0565b6101a761026d3660046112b3565b610783565b60005460ff165b604051901515815260200161018b565b6101a76102973660046112df565b6107fa565b6101a761089a565b6102346102b236600461123b565b6005602052600090815260409020546001600160a01b031681565b60005461010090046001600160a01b0316610234565b6101a76102f136600461133d565b6108ae565b6101a7610304366004611378565b610941565b61018161031736600461123b565b61096b565b6101a761032a3660046113a8565b6109f7565b61018161033d366004611254565b610a64565b6101a7610350366004611403565b610b40565b610181610363366004611438565b610be1565b61027961037636600461123b565b60046020526000908152604090205460ff1681565b61023461039936600461123b565b6003602052600090815260409020546001600160a01b031681565b6101a76103c236600461123b565b610d4e565b6101a76103d5366004611378565b610dc9565b6101816103e8366004611466565b805160209091012090565b6103fb610e47565b6000818152600560205260408082205490516302d695fb60e61b8152336004820152602481018590526001600160a01b0390911691908190839063b5a57ec09060440160408051808303816000875af115801561045c573d6000803e3d6000fd5b505050506040513d601f19601f82011682018060405250810190610480919061149b565b9150915080156104ef5760015460405163ae51390160e01b8152336004820152602481018490526001600160a01b039091169063ae51390190604401600060405180830381600087803b1580156104d657600080fd5b505af11580156104ea573d6000803e3d6000fd5b505050505b5050505050565b6104fe610e47565b8051602082012061050e81610e8d565b600160009054906101000a90046001600160a01b03166001600160a01b03166356e36c1f6040518163ffffffff1660e01b8152600401602060405180830381865afa158015610561573d6000803e3d6000fd5b505050506040513d601f19601f8201168201806040525081019061058591906114d0565b8311156105a5576040516365c5c9e160e01b815260040160405180910390fd5b60006105b08261096b565b905060006105c2828989898988610a64565b6000848152600560205260409020549091506001600160a01b03166105eb818a8a8a8a87610ec0565b600154604051631f07a12b60e01b8152336004820152602481018b90526001600160a01b0390911690631f07a12b90604401600060405180830381600087803b15801561063757600080fd5b505af115801561064b573d6000803e3d6000fd5b50505050505050505050505050565b600081815260026020526040808220548151633fabe5a360e21b8152915183926001600160a01b039092169163feaf968c9160048083019260a09291908290030181865afa1580156106b0573d6000803e3d6000fd5b505050506040513d601f19601f820116820180604052508101906106d491906114e9565b50919695505050505050565b6106e8610f0f565b6106f181610e8d565b600081815260056020526040908190205490516377e8a8f360e01b815260048101879052602481018890526044810186905260648101859052608481018490526001600160a01b039091169081906377e8a8f39060a401600060405180830381600087803b15801561076257600080fd5b505af1158015610776573d6000803e3d6000fd5b5050505050505050505050565b61078b610f0f565b61079482610e8d565b60008281526003602090815260409182902080546001600160a01b0319166001600160a01b0385169081179091558251858152918201527f27a631f806df69f5736e2af408403723bdc58644d3b14bcadfafcc9e44747c3f910160405180910390a15050565b610802610f0f565b825160208401206000906000818152600460205260409020805460ff1916600117905590506108318184610783565b6000818152600560205260409081902080546001600160a01b0319166001600160a01b038516179055517f2d364d266dfdb94f54c67aa2fc29bf4f168bdb4637f392f5be7c7a0558e00f5d9061088c90869084908690611541565b60405180910390a150505050565b6108a2610f0f565b6108ac6000610f6f565b565b6108b6610f0f565b6000858152600560205260409081902054905163633557df60e01b8152600481018690526024810185905260448101849052606481018390526001600160a01b0390911690819063633557df906084015b600060405180830381600087803b15801561092157600080fd5b505af1158015610935573d6000803e3d6000fd5b50505050505050505050565b610949610f0f565b600180546001600160a01b0319166001600160a01b0392909216919091179055565b600081815260036020526040808220548151633fabe5a360e21b8152915183926001600160a01b03909216918391839163feaf968c9160048083019260a09291908290030181865afa1580156109c5573d6000803e3d6000fd5b505050506040513d601f19601f820116820180604052508101906109e991906114e9565b509198975050505050505050565b6109ff610e47565b81516020830120610a0f81610e8d565b6000610a1c828685610be1565b60008381526005602052604090819020549051637b5d7eb760e01b815260048101889052602481018390529192506001600160a01b0316908190637b5d7eb790604401610907565b60008073530581A6aB5339720c911A5e80CB9B9F731cd9B063ea75fe3b87878b610a8d8861065a565b600089815260026020526040902060010154610aa98b42610fc8565b6040516001600160e01b031960e089901b1681526004810196909652602486019490945260448501929092526064840152608483015260a482015260c401602060405180830381865af4158015610b04573d6000803e3d6000fd5b505050506040513d601f19601f82011682018060405250810190610b2891906114d0565b9050610b348782610fdd565b98975050505050505050565b610b48610f0f565b610b5183610e8d565b6040805180820182526001600160a01b038481168083526020808401868152600089815260028352869020945185546001600160a01b031916941693909317845591516001909301929092558251868152908101919091529081018290527fbb4dc1f858dc4ab6018e947383bf61056ed4464166a78c05fb59d69c53f3f4b29060600160405180910390a1505050565b60008381526003602052604081205481906001600160a01b031615801590610c095750834210155b15610d4657600085815260036020526040808220548151633fabe5a360e21b815291516001600160a01b03909116929182918291859163feaf968c9160048082019260a0929091908290030181865afa158015610c6a573d6000803e3d6000fd5b505050506040513d601f19601f82011682018060405250810190610c8e91906114e9565b5093505092509250610ca38888858488610ff5565b866001600160501b0316836001600160501b031603610cc457819450610d41565b604051639a6fc8f560e01b81526001600160501b03881660048201526000906001600160a01b03861690639a6fc8f59060240160a060405180830381865afa158015610d14573d6000803e3d6000fd5b505050506040513d601f19601f82011682018060405250810190610d3891906114e9565b50919850505050505b505050505b949350505050565b610d56610e47565b610d5f81610e8d565b6000818152600560205260408082205481516319b5649d60e01b815291516001600160a01b039091169283926319b5649d926004808301939282900301818387803b158015610dad57600080fd5b505af1158015610dc1573d6000803e3d6000fd5b505050505050565b610dd1610f0f565b6001600160a01b038116610e3b5760405162461bcd60e51b815260206004820152602660248201527f4f776e61626c653a206e6577206f776e657220697320746865207a65726f206160448201526564647265737360d01b60648201526084015b60405180910390fd5b610e4481610f6f565b50565b60005460ff16156108ac5760405162461bcd60e51b815260206004820152601060248201526f14185d5cd8589b194e881c185d5cd95960821b6044820152606401610e32565b60008181526004602052604081205460ff1615159003610e44576040516333cb97ff60e11b815260040160405180910390fd5b60405163730cb65160e01b81523360048201526024810186905260448101859052606481018490526084810183905260a481018290526001600160a01b0387169063730cb6519060c401610907565b6000546001600160a01b036101009091041633146108ac5760405162461bcd60e51b815260206004820181905260248201527f4f776e61626c653a2063616c6c6572206973206e6f7420746865206f776e65726044820152606401610e32565b600080546001600160a01b03838116610100818102610100600160a81b0319851617855560405193049190911692909183917f8be0079c531659141344cd1fd0a4f28419497f9722a3daafe3b4186f6b6457e091a35050565b6000610fd482846115bd565b90505b92915050565b6000610fd482610fef856127106110fa565b90611106565b60016001600160501b03808516908616111561100f575060005b836001600160501b0316856001600160501b031610156110b85760006001600160a01b038316639a6fc8f56110458860016115d0565b6040516001600160e01b031960e084901b1681526001600160501b03909116600482015260240160a060405180830381865afa158015611089573d6000803e3d6000fd5b505050506040513d601f19601f820116820180604052508101906110ad91906114e9565b508a11159450505050505b836001600160501b0316856001600160501b0316036110d75750848211155b801515600003610dc1576040516309f274a160e01b815260040160405180910390fd5b6000610fd482846115f7565b6000610fd4828461160e565b6000806040838503121561112557600080fd5b50508035926020909101359150565b634e487b7160e01b600052604160045260246000fd5b600082601f83011261115b57600080fd5b813567ffffffffffffffff8082111561117657611176611134565b604051601f8301601f19908116603f0116810190828211818310171561119e5761119e611134565b816040528381528660208588010111156111b757600080fd5b836020870160208301376000602085830101528094505050505092915050565b600080600080600060a086880312156111ef57600080fd5b85359450602086013593506040860135925060608601359150608086013567ffffffffffffffff81111561122257600080fd5b61122e8882890161114a565b9150509295509295909350565b60006020828403121561124d57600080fd5b5035919050565b60008060008060008060c0878903121561126d57600080fd5b505084359660208601359650604086013595606081013595506080810135945060a0013592509050565b80356001600160a01b03811681146112ae57600080fd5b919050565b600080604083850312156112c657600080fd5b823591506112d660208401611297565b90509250929050565b6000806000606084860312156112f457600080fd5b833567ffffffffffffffff81111561130b57600080fd5b6113178682870161114a565b93505061132660208501611297565b915061133460408501611297565b90509250925092565b600080600080600060a0868803121561135557600080fd5b505083359560208501359550604085013594606081013594506080013592509050565b60006020828403121561138a57600080fd5b610fd482611297565b6001600160501b0381168114610e4457600080fd5b6000806000606084860312156113bd57600080fd5b83359250602084013567ffffffffffffffff8111156113db57600080fd5b6113e78682870161114a565b92505060408401356113f881611393565b809150509250925092565b60008060006060848603121561141857600080fd5b8335925061142860208501611297565b9150604084013590509250925092565b60008060006060848603121561144d57600080fd5b833592506020840135915060408401356113f881611393565b60006020828403121561147857600080fd5b813567ffffffffffffffff81111561148f57600080fd5b610d468482850161114a565b600080604083850312156114ae57600080fd5b82519150602083015180151581146114c557600080fd5b809150509250929050565b6000602082840312156114e257600080fd5b5051919050565b600080600080600060a0868803121561150157600080fd5b855161150c81611393565b80955050602086015193506040860151925060608601519150608086015161153381611393565b809150509295509295909350565b606081526000845180606084015260005b8181101561156f5760208188018101516080868401015201611552565b506000608082850181019190915260208401959095526001600160a01b0393909316604083015250601f909101601f19160101919050565b634e487b7160e01b600052601160045260246000fd5b81810381811115610fd757610fd76115a7565b6001600160501b038181168382160190808211156115f0576115f06115a7565b5092915050565b8082028115828204841417610fd757610fd76115a7565b60008261162b57634e487b7160e01b600052601260045260246000fd5b50049056fea264697066735822122009d2bf7abc5c1f904ffddd9f4b6ace1aa8be305f76ea6e3ad1c24b2a1adf5dd564736f6c63430008130033",
  "deployedBytecode": "0x608060405234801561001057600080fd5b50600436106101735760003560e01c80638da5cb5b116100de578063c81b270111610097578063d8c4683211610071578063d8c468321461038b578063e1ec18c5146103b4578063f2fde38b146103c7578063fd9a6035146103da57600080fd5b8063c81b270114610342578063d21c2b5b14610355578063d7861d861461036857600080fd5b80638da5cb5b146102cd5780639536c1b0146102e35780639f91a782146102f6578063b483324e14610309578063b54279b41461031c578063c2b6cc9d1461032f57600080fd5b806341446b0a1161013057806341446b0a1461024c5780634abfa5701461025f5780635c975abb146102725780635e7e499614610289578063715018a61461029c578063781e98ae146102a457600080fd5b8063059f8b16146101785780631e1f5af91461019457806325d19adf146101a95780633476d36f146101bc57806336964579146101cf5780633806887f14610221575b600080fd5b61018161271081565b6040519081526020015b60405180910390f35b6101a76101a2366004611112565b6103f3565b005b6101a76101b73660046111d7565b6104f6565b6101816101ca36600461123b565b61065a565b6102026101dd36600461123b565b600260205260009081526040902080546001909101546001600160a01b039091169082565b604080516001600160a01b03909316835260208301919091520161018b565b600154610234906001600160a01b031681565b6040516001600160a01b03909116815260200161018b565b6101a761025a366004611254565b6106e0565b6101a761026d3660046112b3565b610783565b60005460ff165b604051901515815260200161018b565b6101a76102973660046112df565b6107fa565b6101a761089a565b6102346102b236600461123b565b6005602052600090815260409020546001600160a01b031681565b60005461010090046001600160a01b0316610234565b6101a76102f136600461133d565b6108ae565b6101a7610304366004611378565b610941565b61018161031736600461123b565b61096b565b6101a761032a3660046113a8565b6109f7565b61018161033d366004611254565b610a64565b6101a7610350366004611403565b610b40565b610181610363366004611438565b610be1565b61027961037636600461123b565b60046020526000908152604090205460ff1681565b61023461039936600461123b565b6003602052600090815260409020546001600160a01b031681565b6101a76103c236600461123b565b610d4e565b6101a76103d5366004611378565b610dc9565b6101816103e8366004611466565b805160209091012090565b6103fb610e47565b6000818152600560205260408082205490516302d695fb60e61b8152336004820152602481018590526001600160a01b0390911691908190839063b5a57ec09060440160408051808303816000875af115801561045c573d6000803e3d6000fd5b505050506040513d601f19601f82011682018060405250810190610480919061149b565b9150915080156104ef5760015460405163ae51390160e01b8152336004820152602481018490526001600160a01b039091169063ae51390190604401600060405180830381600087803b1580156104d657600080fd5b505af11580156104ea573d6000803e3d6000fd5b505050505b5050505050565b6104fe610e47565b8051602082012061050e81610e8d565b600160009054906101000a90046001600160a01b03166001600160a01b03166356e36c1f6040518163ffffffff1660e01b8152600401602060405180830381865afa158015610561573d6000803e3d6000fd5b505050506040513d601f19601f8201168201806040525081019061058591906114d0565b8311156105a5576040516365c5c9e160e01b815260040160405180910390fd5b60006105b08261096b565b905060006105c2828989898988610a64565b6000848152600560205260409020549091506001600160a01b03166105eb818a8a8a8a87610ec0565b600154604051631f07a12b60e01b8152336004820152602481018b90526001600160a01b0390911690631f07a12b90604401600060405180830381600087803b15801561063757600080fd5b505af115801561064b573d6000803e3d6000fd5b50505050505050505050505050565b600081815260026020526040808220548151633fabe5a360e21b8152915183926001600160a01b039092169163feaf968c9160048083019260a09291908290030181865afa1580156106b0573d6000803e3d6000fd5b505050506040513d601f19601f820116820180604052508101906106d491906114e9565b50919695505050505050565b6106e8610f0f565b6106f181610e8d565b600081815260056020526040908190205490516377e8a8f360e01b815260048101879052602481018890526044810186905260648101859052608481018490526001600160a01b039091169081906377e8a8f39060a401600060405180830381600087803b15801561076257600080fd5b505af1158015610776573d6000803e3d6000fd5b5050505050505050505050565b61078b610f0f565b61079482610e8d565b60008281526003602090815260409182902080546001600160a01b0319166001600160a01b0385169081179091558251858152918201527f27a631f806df69f5736e2af408403723bdc58644d3b14bcadfafcc9e44747c3f910160405180910390a15050565b610802610f0f565b825160208401206000906000818152600460205260409020805460ff1916600117905590506108318184610783565b6000818152600560205260409081902080546001600160a01b0319166001600160a01b038516179055517f2d364d266dfdb94f54c67aa2fc29bf4f168bdb4637f392f5be7c7a0558e00f5d9061088c90869084908690611541565b60405180910390a150505050565b6108a2610f0f565b6108ac6000610f6f565b565b6108b6610f0f565b6000858152600560205260409081902054905163633557df60e01b8152600481018690526024810185905260448101849052606481018390526001600160a01b0390911690819063633557df906084015b600060405180830381600087803b15801561092157600080fd5b505af1158015610935573d6000803e3d6000fd5b50505050505050505050565b610949610f0f565b600180546001600160a01b0319166001600160a01b0392909216919091179055565b600081815260036020526040808220548151633fabe5a360e21b8152915183926001600160a01b03909216918391839163feaf968c9160048083019260a09291908290030181865afa1580156109c5573d6000803e3d6000fd5b505050506040513d601f19601f820116820180604052508101906109e991906114e9565b509198975050505050505050565b6109ff610e47565b81516020830120610a0f81610e8d565b6000610a1c828685610be1565b60008381526005602052604090819020549051637b5d7eb760e01b815260048101889052602481018390529192506001600160a01b0316908190637b5d7eb790604401610907565b60008073__$d7ba7d45ee7cd978cea25afdbab6ba0e5b$__63ea75fe3b87878b610a8d8861065a565b600089815260026020526040902060010154610aa98b42610fc8565b6040516001600160e01b031960e089901b1681526004810196909652602486019490945260448501929092526064840152608483015260a482015260c401602060405180830381865af4158015610b04573d6000803e3d6000fd5b505050506040513d601f19601f82011682018060405250810190610b2891906114d0565b9050610b348782610fdd565b98975050505050505050565b610b48610f0f565b610b5183610e8d565b6040805180820182526001600160a01b038481168083526020808401868152600089815260028352869020945185546001600160a01b031916941693909317845591516001909301929092558251868152908101919091529081018290527fbb4dc1f858dc4ab6018e947383bf61056ed4464166a78c05fb59d69c53f3f4b29060600160405180910390a1505050565b60008381526003602052604081205481906001600160a01b031615801590610c095750834210155b15610d4657600085815260036020526040808220548151633fabe5a360e21b815291516001600160a01b03909116929182918291859163feaf968c9160048082019260a0929091908290030181865afa158015610c6a573d6000803e3d6000fd5b505050506040513d601f19601f82011682018060405250810190610c8e91906114e9565b5093505092509250610ca38888858488610ff5565b866001600160501b0316836001600160501b031603610cc457819450610d41565b604051639a6fc8f560e01b81526001600160501b03881660048201526000906001600160a01b03861690639a6fc8f59060240160a060405180830381865afa158015610d14573d6000803e3d6000fd5b505050506040513d601f19601f82011682018060405250810190610d3891906114e9565b50919850505050505b505050505b949350505050565b610d56610e47565b610d5f81610e8d565b6000818152600560205260408082205481516319b5649d60e01b815291516001600160a01b039091169283926319b5649d926004808301939282900301818387803b158015610dad57600080fd5b505af1158015610dc1573d6000803e3d6000fd5b505050505050565b610dd1610f0f565b6001600160a01b038116610e3b5760405162461bcd60e51b815260206004820152602660248201527f4f776e61626c653a206e6577206f776e657220697320746865207a65726f206160448201526564647265737360d01b60648201526084015b60405180910390fd5b610e4481610f6f565b50565b60005460ff16156108ac5760405162461bcd60e51b815260206004820152601060248201526f14185d5cd8589b194e881c185d5cd95960821b6044820152606401610e32565b60008181526004602052604081205460ff1615159003610e44576040516333cb97ff60e11b815260040160405180910390fd5b60405163730cb65160e01b81523360048201526024810186905260448101859052606481018490526084810183905260a481018290526001600160a01b0387169063730cb6519060c401610907565b6000546001600160a01b036101009091041633146108ac5760405162461bcd60e51b815260206004820181905260248201527f4f776e61626c653a2063616c6c6572206973206e6f7420746865206f776e65726044820152606401610e32565b600080546001600160a01b03838116610100818102610100600160a81b0319851617855560405193049190911692909183917f8be0079c531659141344cd1fd0a4f28419497f9722a3daafe3b4186f6b6457e091a35050565b6000610fd482846115bd565b90505b92915050565b6000610fd482610fef856127106110fa565b90611106565b60016001600160501b03808516908616111561100f575060005b836001600160501b0316856001600160501b031610156110b85760006001600160a01b038316639a6fc8f56110458860016115d0565b6040516001600160e01b031960e084901b1681526001600160501b03909116600482015260240160a060405180830381865afa158015611089573d6000803e3d6000fd5b505050506040513d601f19601f820116820180604052508101906110ad91906114e9565b508a11159450505050505b836001600160501b0316856001600160501b0316036110d75750848211155b801515600003610dc1576040516309f274a160e01b815260040160405180910390fd5b6000610fd482846115f7565b6000610fd4828461160e565b6000806040838503121561112557600080fd5b50508035926020909101359150565b634e487b7160e01b600052604160045260246000fd5b600082601f83011261115b57600080fd5b813567ffffffffffffffff8082111561117657611176611134565b604051601f8301601f19908116603f0116810190828211818310171561119e5761119e611134565b816040528381528660208588010111156111b757600080fd5b836020870160208301376000602085830101528094505050505092915050565b600080600080600060a086880312156111ef57600080fd5b85359450602086013593506040860135925060608601359150608086013567ffffffffffffffff81111561122257600080fd5b61122e8882890161114a565b9150509295509295909350565b60006020828403121561124d57600080fd5b5035919050565b60008060008060008060c0878903121561126d57600080fd5b505084359660208601359650604086013595606081013595506080810135945060a0013592509050565b80356001600160a01b03811681146112ae57600080fd5b919050565b600080604083850312156112c657600080fd5b823591506112d660208401611297565b90509250929050565b6000806000606084860312156112f457600080fd5b833567ffffffffffffffff81111561130b57600080fd5b6113178682870161114a565b93505061132660208501611297565b915061133460408501611297565b90509250925092565b600080600080600060a0868803121561135557600080fd5b505083359560208501359550604085013594606081013594506080013592509050565b60006020828403121561138a57600080fd5b610fd482611297565b6001600160501b0381168114610e4457600080fd5b6000806000606084860312156113bd57600080fd5b83359250602084013567ffffffffffffffff8111156113db57600080fd5b6113e78682870161114a565b92505060408401356113f881611393565b809150509250925092565b60008060006060848603121561141857600080fd5b8335925061142860208501611297565b9150604084013590509250925092565b60008060006060848603121561144d57600080fd5b833592506020840135915060408401356113f881611393565b60006020828403121561147857600080fd5b813567ffffffffffffffff81111561148f57600080fd5b610d468482850161114a565b600080604083850312156114ae57600080fd5b82519150602083015180151581146114c557600080fd5b809150509250929050565b6000602082840312156114e257600080fd5b5051919050565b600080600080600060a0868803121561150157600080fd5b855161150c81611393565b80955050602086015193506040860151925060608601519150608086015161153381611393565b809150509295509295909350565b606081526000845180606084015260005b8181101561156f5760208188018101516080868401015201611552565b506000608082850181019190915260208401959095526001600160a01b0393909316604083015250601f909101601f19160101919050565b634e487b7160e01b600052601160045260246000fd5b81810381811115610fd757610fd76115a7565b6001600160501b038181168382160190808211156115f0576115f06115a7565b5092915050565b8082028115828204841417610fd757610fd76115a7565b60008261162b57634e487b7160e01b600052601260045260246000fd5b50049056fea264697066735822122009d2bf7abc5c1f904ffddd9f4b6ace1aa8be305f76ea6e3ad1c24b2a1adf5dd564736f6c63430008130033",
  "libraries": {
    "MathLibraryDefibets": "0x530581A6aB5339720c911A5e80CB9B9F731cd9B0"
  },
  "devdoc": {
    "events": {
      "Paused(address)": {
        "details": "Emitted when the pause is triggered by `account`."
      },
      "Unpaused(address)": {
        "details": "Emitted when the pause is lifted by `account`."
      }
    },
    "kind": "dev",
    "methods": {
      "claimWinnings(uint256,bytes32)": {
        "details": "Claims the winnings for a user based on a specified token ID and underlying asset hash.",
        "params": {
          "_hash": "The hash of the underlying asset for the bet.",
          "_tokenId": "The token ID representing the bet."
        }
      },
      "executeExpiration(uint256,string,uint80)": {
        "details": "Executes the expiration of a bet based on the specified expiration time and underlying asset.",
        "params": {
          "_expTime": "The expiration time of the bet.",
          "_roundId": "The round id for a valid price of the underlying",
          "_underlying": "The underlying asset for the bet."
        }
      },
      "owner()": {
        "details": "Returns the address of the current owner."
      },
      "paused()": {
        "details": "Returns true if the contract is paused, and false otherwise."
      },
      "renounceOwnership()": {
        "details": "Leaves the contract without owner. It will not be possible to call `onlyOwner` functions. Can only be called by the current owner. NOTE: Renouncing ownership will leave the contract without an owner, thereby disabling any functionality that is only available to the owner."
      },
      "setBet(uint256,uint256,uint256,uint256,string)": {
        "details": "Sets a bet for a user in the decentralized betting platform.",
        "params": {
          "_betSize": "The size of the bet.",
          "_expTime": "The expiration time for the bet.",
          "_maxPrice": "The maximum price for the bet.",
          "_minPrice": "The minimum price for the bet.",
          "_underlying": "The underlying asset for the bet."
        }
      },
      "transferOwnership(address)": {
        "details": "Transfers ownership of the contract to a new account (`newOwner`). Can only be called by the current owner."
      }
    },
    "title": "DefiBets Manager Contract",
    "version": 1
  },
  "userdoc": {
    "kind": "user",
    "methods": {},
    "notice": "This contract controls the main functions of the protocol, allowing users to interact with the decentralized betting platform. It manages liquidity, bets, winnings, and expiration of bets.",
    "version": 1
  },
  "storageLayout": {
    "storage": [
      {
        "astId": 176,
        "contract": "src/core/DefiBetsManager.sol:DefiBetsManager",
        "label": "_paused",
        "offset": 0,
        "slot": "0",
        "type": "t_bool"
      },
      {
        "astId": 53,
        "contract": "src/core/DefiBetsManager.sol:DefiBetsManager",
        "label": "_owner",
        "offset": 1,
        "slot": "0",
        "type": "t_address"
      },
      {
        "astId": 4399,
        "contract": "src/core/DefiBetsManager.sol:DefiBetsManager",
        "label": "pointTracker",
        "offset": 0,
        "slot": "1",
        "type": "t_address"
      },
      {
        "astId": 4404,
        "contract": "src/core/DefiBetsManager.sol:DefiBetsManager",
        "label": "underlyingIVFeeds",
        "offset": 0,
        "slot": "2",
        "type": "t_mapping(t_bytes32,t_struct(IVFeed)4394_storage)"
      },
      {
        "astId": 4408,
        "contract": "src/core/DefiBetsManager.sol:DefiBetsManager",
        "label": "underlyingPriceFeeds",
        "offset": 0,
        "slot": "3",
        "type": "t_mapping(t_bytes32,t_address)"
      },
      {
        "astId": 4412,
        "contract": "src/core/DefiBetsManager.sol:DefiBetsManager",
        "label": "validUnderlying",
        "offset": 0,
        "slot": "4",
        "type": "t_mapping(t_bytes32,t_bool)"
      },
      {
        "astId": 4416,
        "contract": "src/core/DefiBetsManager.sol:DefiBetsManager",
        "label": "defiBetsContracts",
        "offset": 0,
        "slot": "5",
        "type": "t_mapping(t_bytes32,t_address)"
      }
    ],
    "types": {
      "t_address": {
        "encoding": "inplace",
        "label": "address",
        "numberOfBytes": "20"
      },
      "t_bool": {
        "encoding": "inplace",
        "label": "bool",
        "numberOfBytes": "1"
      },
      "t_bytes32": {
        "encoding": "inplace",
        "label": "bytes32",
        "numberOfBytes": "32"
      },
      "t_mapping(t_bytes32,t_address)": {
        "encoding": "mapping",
        "key": "t_bytes32",
        "label": "mapping(bytes32 => address)",
        "numberOfBytes": "32",
        "value": "t_address"
      },
      "t_mapping(t_bytes32,t_bool)": {
        "encoding": "mapping",
        "key": "t_bytes32",
        "label": "mapping(bytes32 => bool)",
        "numberOfBytes": "32",
        "value": "t_bool"
      },
      "t_mapping(t_bytes32,t_struct(IVFeed)4394_storage)": {
        "encoding": "mapping",
        "key": "t_bytes32",
        "label": "mapping(bytes32 => struct DefiBetsManager.IVFeed)",
        "numberOfBytes": "32",
        "value": "t_struct(IVFeed)4394_storage"
      },
      "t_struct(IVFeed)4394_storage": {
        "encoding": "inplace",
        "label": "struct DefiBetsManager.IVFeed",
        "members": [
          {
            "astId": 4391,
            "contract": "src/core/DefiBetsManager.sol:DefiBetsManager",
            "label": "feedAddress",
            "offset": 0,
            "slot": "0",
            "type": "t_address"
          },
          {
            "astId": 4393,
            "contract": "src/core/DefiBetsManager.sol:DefiBetsManager",
            "label": "period",
            "offset": 0,
            "slot": "1",
            "type": "t_uint256"
          }
        ],
        "numberOfBytes": "64"
      },
      "t_uint256": {
        "encoding": "inplace",
        "label": "uint256",
        "numberOfBytes": "32"
      }
    }
  }
}