{
  "address": "0xb454B56C61E24e48A10174411748e0d09F838F99",
  "abi": [
    {
      "inputs": [
        {
          "internalType": "uint8",
          "name": "_decimals",
          "type": "uint8"
        },
        {
          "internalType": "string",
          "name": "_description",
          "type": "string"
        },
        {
          "internalType": "uint256",
          "name": "_version",
          "type": "uint256"
        },
        {
          "internalType": "string",
          "name": "_underlying",
          "type": "string"
        },
        {
          "internalType": "uint256",
          "name": "_period",
          "type": "uint256"
        }
      ],
      "stateMutability": "nonpayable",
      "type": "constructor"
    },
    {
      "anonymous": false,
      "inputs": [
        {
          "indexed": true,
          "internalType": "address",
          "name": "previousOwner",
          "type": "address"
        },
        {
          "indexed": true,
          "internalType": "address",
          "name": "newOwner",
          "type": "address"
        }
      ],
      "name": "OwnershipTransferred",
      "type": "event"
    },
    {
      "inputs": [],
      "name": "decimals",
      "outputs": [
        {
          "internalType": "uint8",
          "name": "",
          "type": "uint8"
        }
      ],
      "stateMutability": "view",
      "type": "function"
    },
    {
      "inputs": [],
      "name": "description",
      "outputs": [
        {
          "internalType": "string",
          "name": "",
          "type": "string"
        }
      ],
      "stateMutability": "view",
      "type": "function"
    },
    {
      "inputs": [
        {
          "internalType": "uint80",
          "name": "",
          "type": "uint80"
        }
      ],
      "name": "getAnswer",
      "outputs": [
        {
          "internalType": "int256",
          "name": "",
          "type": "int256"
        }
      ],
      "stateMutability": "view",
      "type": "function"
    },
    {
      "inputs": [
        {
          "internalType": "uint80",
          "name": "_roundId",
          "type": "uint80"
        }
      ],
      "name": "getRoundData",
      "outputs": [
        {
          "internalType": "uint80",
          "name": "roundId",
          "type": "uint80"
        },
        {
          "internalType": "int256",
          "name": "answer",
          "type": "int256"
        },
        {
          "internalType": "uint256",
          "name": "startedAt",
          "type": "uint256"
        },
        {
          "internalType": "uint256",
          "name": "updatedAt",
          "type": "uint256"
        },
        {
          "internalType": "uint80",
          "name": "answeredInRound",
          "type": "uint80"
        }
      ],
      "stateMutability": "view",
      "type": "function"
    },
    {
      "inputs": [
        {
          "internalType": "uint80",
          "name": "",
          "type": "uint80"
        }
      ],
      "name": "getStartedAt",
      "outputs": [
        {
          "internalType": "uint256",
          "name": "",
          "type": "uint256"
        }
      ],
      "stateMutability": "view",
      "type": "function"
    },
    {
      "inputs": [
        {
          "internalType": "uint80",
          "name": "",
          "type": "uint80"
        }
      ],
      "name": "getTimestamp",
      "outputs": [
        {
          "internalType": "uint256",
          "name": "",
          "type": "uint256"
        }
      ],
      "stateMutability": "view",
      "type": "function"
    },
    {
      "inputs": [],
      "name": "latestRoundData",
      "outputs": [
        {
          "internalType": "uint80",
          "name": "roundId",
          "type": "uint80"
        },
        {
          "internalType": "int256",
          "name": "answer",
          "type": "int256"
        },
        {
          "internalType": "uint256",
          "name": "startedAt",
          "type": "uint256"
        },
        {
          "internalType": "uint256",
          "name": "updatedAt",
          "type": "uint256"
        },
        {
          "internalType": "uint80",
          "name": "answeredInRound",
          "type": "uint80"
        }
      ],
      "stateMutability": "view",
      "type": "function"
    },
    {
      "inputs": [],
      "name": "owner",
      "outputs": [
        {
          "internalType": "address",
          "name": "",
          "type": "address"
        }
      ],
      "stateMutability": "view",
      "type": "function"
    },
    {
      "inputs": [],
      "name": "period",
      "outputs": [
        {
          "internalType": "uint256",
          "name": "",
          "type": "uint256"
        }
      ],
      "stateMutability": "view",
      "type": "function"
    },
    {
      "inputs": [],
      "name": "renounceOwnership",
      "outputs": [],
      "stateMutability": "nonpayable",
      "type": "function"
    },
    {
      "inputs": [
        {
          "internalType": "address",
          "name": "newOwner",
          "type": "address"
        }
      ],
      "name": "transferOwnership",
      "outputs": [],
      "stateMutability": "nonpayable",
      "type": "function"
    },
    {
      "inputs": [],
      "name": "underlying",
      "outputs": [
        {
          "internalType": "string",
          "name": "",
          "type": "string"
        }
      ],
      "stateMutability": "view",
      "type": "function"
    },
    {
      "inputs": [
        {
          "internalType": "int256",
          "name": "_answer",
          "type": "int256"
        }
      ],
      "name": "updateAnswer",
      "outputs": [],
      "stateMutability": "nonpayable",
      "type": "function"
    },
    {
      "inputs": [],
      "name": "version",
      "outputs": [
        {
          "internalType": "uint256",
          "name": "",
          "type": "uint256"
        }
      ],
      "stateMutability": "view",
      "type": "function"
    }
  ],
  "transactionHash": "0x5397b47002f81ddaf4c39df63e89778589c50a2330cc6b771a382199feb7cec4",
  "args": [
    4,
    "Implied Volatility 30days",
    1,
    "BTC",
    2592000
  ],
  "numDeployments": 9,
  "solcInputHash": "bc595cfc17f94aaf4877bb3b584ebaf7",
  "bytecode": "0x60806040523480156200001157600080fd5b5060405162000a2f38038062000a2f8339810160408190526200003491620001a1565b84848462000042336200008c565b6000805460ff60a01b1916600160a01b60ff8616021790556002620000688382620002c8565b5060015550600790506200007d8382620002c8565b50600655506200039492505050565b600080546001600160a01b038381166001600160a01b0319831681178455604051919092169283917f8be0079c531659141344cd1fd0a4f28419497f9722a3daafe3b4186f6b6457e09190a35050565b634e487b7160e01b600052604160045260246000fd5b600082601f8301126200010457600080fd5b81516001600160401b0380821115620001215762000121620000dc565b604051601f8301601f19908116603f011681019082821181831017156200014c576200014c620000dc565b816040528381526020925086838588010111156200016957600080fd5b600091505b838210156200018d57858201830151818301840152908201906200016e565b600093810190920192909252949350505050565b600080600080600060a08688031215620001ba57600080fd5b855160ff81168114620001cc57600080fd5b60208701519095506001600160401b0380821115620001ea57600080fd5b620001f889838a01620000f2565b95506040880151945060608801519150808211156200021657600080fd5b506200022588828901620000f2565b925050608086015190509295509295909350565b600181811c908216806200024e57607f821691505b6020821081036200026f57634e487b7160e01b600052602260045260246000fd5b50919050565b601f821115620002c357600081815260208120601f850160051c810160208610156200029e5750805b601f850160051c820191505b81811015620002bf57828155600101620002aa565b5050505b505050565b81516001600160401b03811115620002e457620002e4620000dc565b620002fc81620002f5845462000239565b8462000275565b602080601f8311600181146200033457600084156200031b5750858301515b600019600386901b1c1916600185901b178555620002bf565b600085815260208120601f198616915b82811015620003655788860151825594840194600190910190840162000344565b5085821015620003845787850151600019600388901b60f8161c191681555b5050505050600190811b01905550565b61068b80620003a46000396000f3fe608060405234801561001057600080fd5b50600436106100ea5760003560e01c80638da5cb5b1161008c578063ef78d4fd11610066578063ef78d4fd1461023e578063f2fde38b14610247578063f35bfacd1461025a578063feaf968c1461027a57600080fd5b80638da5cb5b146101985780639a6fc8f5146101b3578063a87a20ce1461022b57600080fd5b806354fd4d50116100c857806354fd4d50146101685780636f307dc314610171578063715018a6146101865780637284e4161461019057600080fd5b80630387c6a5146100ef5780631acce90314610122578063313ce56714610142575b600080fd5b61010f6100fd366004610527565b60056020526000908152604090205481565b6040519081526020015b60405180910390f35b61010f610130366004610527565b60036020526000908152604090205481565b60005461015690600160a01b900460ff1681565b60405160ff9091168152602001610119565b61010f60015481565b6101796102b7565b6040516101199190610557565b61018e610345565b005b610179610359565b6000546040516001600160a01b039091168152602001610119565b6101f76101c1366004610527565b6001600160501b038116600090815260036020908152604080832054600583528184205460049093529220549293919290918490565b604080516001600160501b03968716815260208101959095528401929092526060830152909116608082015260a001610119565b61018e6102393660046105a5565b610366565b61010f60065481565b61018e6102553660046105be565b6103ff565b61010f610268366004610527565b60046020526000908152604090205481565b60008054600160a81b90046001600160501b03168082526003602090815260408084205460058352818520546004909352932054919291836101f7565b600780546102c4906105e7565b80601f01602080910402602001604051908101604052809291908181526020018280546102f0906105e7565b801561033d5780601f106103125761010080835404028352916020019161033d565b820191906000526020600020905b81548152906001019060200180831161032057829003601f168201915b505050505081565b61034d61047d565b61035760006104d7565b565b600280546102c4906105e7565b61036e61047d565b60008054600160a81b90046001600160501b031690601561038e83610621565b82546101009290920a6001600160501b0381810219909316918316021790915560008054600160a81b90819004831682526003602090815260408084209690965582548290048416835260048152858320429081905583549290920490931682526005909252929092209190915550565b61040761047d565b6001600160a01b0381166104715760405162461bcd60e51b815260206004820152602660248201527f4f776e61626c653a206e6577206f776e657220697320746865207a65726f206160448201526564647265737360d01b60648201526084015b60405180910390fd5b61047a816104d7565b50565b6000546001600160a01b031633146103575760405162461bcd60e51b815260206004820181905260248201527f4f776e61626c653a2063616c6c6572206973206e6f7420746865206f776e65726044820152606401610468565b600080546001600160a01b038381166001600160a01b0319831681178455604051919092169283917f8be0079c531659141344cd1fd0a4f28419497f9722a3daafe3b4186f6b6457e09190a35050565b60006020828403121561053957600080fd5b81356001600160501b038116811461055057600080fd5b9392505050565b600060208083528351808285015260005b8181101561058457858101830151858201604001528201610568565b506000604082860101526040601f19601f8301168501019250505092915050565b6000602082840312156105b757600080fd5b5035919050565b6000602082840312156105d057600080fd5b81356001600160a01b038116811461055057600080fd5b600181811c908216806105fb57607f821691505b60208210810361061b57634e487b7160e01b600052602260045260246000fd5b50919050565b60006001600160501b0380831681810361064b57634e487b7160e01b600052601160045260246000fd5b600101939250505056fea264697066735822122030187ed8a44d5a1476fa38e9da93b4451618438cbdc5ef2bd5163d46e85b296e64736f6c63430008130033",
  "devdoc": {
    "kind": "dev",
    "methods": {
      "owner()": {
        "details": "Returns the address of the current owner."
      },
      "renounceOwnership()": {
        "details": "Leaves the contract without owner. It will not be possible to call `onlyOwner` functions. Can only be called by the current owner. NOTE: Renouncing ownership will leave the contract without an owner, thereby disabling any functionality that is only available to the owner."
      },
      "transferOwnership(address)": {
        "details": "Transfers ownership of the contract to a new account (`newOwner`). Can only be called by the current owner."
      }
    },
    "version": 1
  },
  "userdoc": {
    "kind": "user",
    "methods": {},
    "version": 1
  },
  "storageLayout": {
    "storage": [
      {
        "astId": 53,
        "contract": "src/oracles/ImpliedVolatilityOracle.sol:ImpliedVolatilityOracle",
        "label": "_owner",
        "offset": 0,
        "slot": "0",
        "type": "t_address"
      },
      {
        "astId": 5997,
        "contract": "src/oracles/ImpliedVolatilityOracle.sol:ImpliedVolatilityOracle",
        "label": "decimals",
        "offset": 20,
        "slot": "0",
        "type": "t_uint8"
      },
      {
        "astId": 5999,
        "contract": "src/oracles/ImpliedVolatilityOracle.sol:ImpliedVolatilityOracle",
        "label": "latestRound",
        "offset": 21,
        "slot": "0",
        "type": "t_uint80"
      },
      {
        "astId": 6001,
        "contract": "src/oracles/ImpliedVolatilityOracle.sol:ImpliedVolatilityOracle",
        "label": "version",
        "offset": 0,
        "slot": "1",
        "type": "t_uint256"
      },
      {
        "astId": 6003,
        "contract": "src/oracles/ImpliedVolatilityOracle.sol:ImpliedVolatilityOracle",
        "label": "description",
        "offset": 0,
        "slot": "2",
        "type": "t_string_storage"
      },
      {
        "astId": 6007,
        "contract": "src/oracles/ImpliedVolatilityOracle.sol:ImpliedVolatilityOracle",
        "label": "getAnswer",
        "offset": 0,
        "slot": "3",
        "type": "t_mapping(t_uint80,t_int256)"
      },
      {
        "astId": 6011,
        "contract": "src/oracles/ImpliedVolatilityOracle.sol:ImpliedVolatilityOracle",
        "label": "getTimestamp",
        "offset": 0,
        "slot": "4",
        "type": "t_mapping(t_uint80,t_uint256)"
      },
      {
        "astId": 6015,
        "contract": "src/oracles/ImpliedVolatilityOracle.sol:ImpliedVolatilityOracle",
        "label": "getStartedAt",
        "offset": 0,
        "slot": "5",
        "type": "t_mapping(t_uint80,t_uint256)"
      },
      {
        "astId": 6132,
        "contract": "src/oracles/ImpliedVolatilityOracle.sol:ImpliedVolatilityOracle",
        "label": "period",
        "offset": 0,
        "slot": "6",
        "type": "t_uint256"
      },
      {
        "astId": 6134,
        "contract": "src/oracles/ImpliedVolatilityOracle.sol:ImpliedVolatilityOracle",
        "label": "underlying",
        "offset": 0,
        "slot": "7",
        "type": "t_string_storage"
      }
    ],
    "types": {
      "t_address": {
        "encoding": "inplace",
        "label": "address",
        "numberOfBytes": "20"
      },
      "t_int256": {
        "encoding": "inplace",
        "label": "int256",
        "numberOfBytes": "32"
      },
      "t_mapping(t_uint80,t_int256)": {
        "encoding": "mapping",
        "key": "t_uint80",
        "label": "mapping(uint80 => int256)",
        "numberOfBytes": "32",
        "value": "t_int256"
      },
      "t_mapping(t_uint80,t_uint256)": {
        "encoding": "mapping",
        "key": "t_uint80",
        "label": "mapping(uint80 => uint256)",
        "numberOfBytes": "32",
        "value": "t_uint256"
      },
      "t_string_storage": {
        "encoding": "bytes",
        "label": "string",
        "numberOfBytes": "32"
      },
      "t_uint256": {
        "encoding": "inplace",
        "label": "uint256",
        "numberOfBytes": "32"
      },
      "t_uint8": {
        "encoding": "inplace",
        "label": "uint8",
        "numberOfBytes": "1"
      },
      "t_uint80": {
        "encoding": "inplace",
        "label": "uint80",
        "numberOfBytes": "10"
      }
    }
  }
}