{
  "address": "0xE762d0F235DeB2d83d2F10A9c03B5FB1fbC2fc03",
  "abi": [
    {
      "inputs": [],
      "name": "MathLibraryDefibets__WrongParameter",
      "type": "error"
    },
    {
      "inputs": [],
      "name": "BILLION",
      "outputs": [
        {
          "internalType": "uint256",
          "name": "",
          "type": "uint256"
        }
      ],
      "stateMutability": "view",
      "type": "function"
    },
    {
      "inputs": [],
      "name": "Z_TABLE_MAX",
      "outputs": [
        {
          "internalType": "uint256",
          "name": "",
          "type": "uint256"
        }
      ],
      "stateMutability": "view",
      "type": "function"
    },
    {
      "inputs": [
        {
          "internalType": "uint256",
          "name": "lowerPrice",
          "type": "uint256"
        },
        {
          "internalType": "uint256",
          "name": "upperPrice",
          "type": "uint256"
        },
        {
          "internalType": "uint256",
          "name": "currPrice",
          "type": "uint256"
        },
        {
          "internalType": "uint256",
          "name": "impliedVolatility",
          "type": "uint256"
        },
        {
          "internalType": "uint256",
          "name": "impliedVolatilityTime",
          "type": "uint256"
        },
        {
          "internalType": "uint256",
          "name": "timeUntilEpxiry",
          "type": "uint256"
        }
      ],
      "name": "calculateProbabilityRange",
      "outputs": [
        {
          "internalType": "uint256",
          "name": "",
          "type": "uint256"
        }
      ],
      "stateMutability": "pure",
      "type": "function"
    }
  ],
  "transactionHash": "0xf81268ab40bf72585e0b03fc19b6bf59f79c7851833ea6627a76f3babcbdff59",
  "args": [],
  "numDeployments": 1,
  "solcInputHash": "555ec5b9f83ecbd430c738d2e15868b1",
  "bytecode": "0x61064061003a600b82828239805160001a60731461002d57634e487b7160e01b600052600060045260246000fd5b30600052607381538281f3fe730000000000000000000000000000000000000000301460806040526004361061004b5760003560e01c80634beda18b1461005057806399aaa6dc1461006d578063ea75fe3b14610075575b600080fd5b61005b633b9aca0081565b60405190815260200160405180910390f35b61005b603b81565b61005b610083366004610431565b600080610092868685876100d1565b905060006100a189888461011e565b905060006100b089898561011e565b905060006100be838361048a565b61ffff169b9a5050505050505050505050565b6000806101026127106100f06100fb6100f687838a6305f5e10061016e565b90610183565b61018f565b889061016e565b90506101146127106100f0888461016e565b9695505050505050565b600080808585111561013e57506001610137858761027e565b915061014b565b610148868661027e565b91505b6000610157838661028a565b9050610163818361029c565b979650505050505050565b600061017a82846104a5565b90505b92915050565b600061017a82846104d2565b6000816000036101a157506000919050565b600060016101ae84610320565b901c6001901b905060018184816101c7576101c76104bc565b048201901c905060018184816101df576101df6104bc565b048201901c905060018184816101f7576101f76104bc565b048201901c9050600181848161020f5761020f6104bc565b048201901c90506001818481610227576102276104bc565b048201901c9050600181848161023f5761023f6104bc565b048201901c90506001818481610257576102576104bc565b048201901c905061027781828581610271576102716104bc565b046103b4565b9392505050565b600061017a82846104f4565b600061017a826100f08561271061016e565b6000806102ab846101f4610183565b905080603b10156102ba5750603b5b82156102f7576102cb81603b6104f4565b90506102ef6040518060a001604052806078815260200161059360789139826103ca565b91505061017d565b6102ef6040518060a001604052806078815260200161051b60789139826103ca565b5092915050565b600080608083901c1561033557608092831c92015b604083901c1561034757604092831c92015b602083901c1561035957602092831c92015b601083901c1561036b57601092831c92015b600883901c1561037d57600892831c92015b600483901c1561038f57600492831c92015b600283901c156103a157600292831c92015b600183901c1561017d5760010192915050565b60008183106103c3578161017a565b5090919050565b60006103d7826002610507565b835110156104225760405162461bcd60e51b8152602060048201526014602482015273746f55696e7431365f6f75744f66426f756e647360601b604482015260640160405180910390fd5b50600290810291909101015190565b60008060008060008060c0878903121561044a57600080fd5b505084359660208601359650604086013595606081013595506080810135945060a0013592509050565b634e487b7160e01b600052601160045260246000fd5b61ffff82811682821603908082111561031957610319610474565b808202811582820484141761017d5761017d610474565b634e487b7160e01b600052601260045260246000fd5b6000826104ef57634e487b7160e01b600052601260045260246000fd5b500490565b8181038181111561017d5761017d610474565b8082018082111561017d5761017d61047456fe144f151615dc16a11763182318e0199a1a501b031bb01c591cfe1d9c1e361ec91f571fdf206120dd215321c3222d229122f02348239b23e82431247424b224ec25212552257f25a925ce25f12610262c2646265d26722685269626a526b226be26c926d226da26e126e826ed26f226f626fa26fd27002703000d001000130016001a001e00230028002f0036003e00470052005e006b007a008b009e00b300ca00e40100011f01420167019101be01ef0224025e029c02df0328037503c80420047f04e3054d05bd063306af073107b9084708da09740a120ab70b600c0d0cc00e300eed0fad106f113411fa12c11388a2646970667358221220f7d905cc20248d6b17bf3d62a67295b787f0498d1fa695a16419d64f8b42e88f64736f6c63430008130033",
  "devdoc": {
    "kind": "dev",
    "methods": {
      "calculateProbabilityRange(uint256,uint256,uint256,uint256,uint256,uint256)": {
        "params": {
          "currPrice": "- the current price of the underlying with decimals",
          "impliedVolatility": "- the implied volatility for x days in promille => 30% = 3000",
          "impliedVolatilityTime": "- the time of the volatility in seconds",
          "lowerPrice": "- lower price of the price range with decimals",
          "timeUntilEpxiry": "- the remaining time until expiration in seconds",
          "upperPrice": "- upper price of the price range with decimals"
        }
      }
    },
    "version": 1
  },
  "userdoc": {
    "kind": "user",
    "methods": {},
    "version": 1
  },
  "storageLayout": {
    "storage": [],
    "types": null
  }
}