{
  "address": "0xe073617ba76D754579BF6085187e0Abf30Cbf418",
  "abi": [
    {
      "inputs": [
        {
          "internalType": "address",
          "name": "_manager",
          "type": "address"
        }
      ],
      "stateMutability": "nonpayable",
      "type": "constructor"
    },
    {
      "inputs": [],
      "name": "PointTracker__AccessForbidden",
      "type": "error"
    },
    {
      "inputs": [],
      "name": "PointTracker__AccountAlreadyActivated",
      "type": "error"
    },
    {
      "inputs": [],
      "name": "PointTracker__AccountNotEligible",
      "type": "error"
    },
    {
      "inputs": [],
      "name": "PointTracker__NotEndOfSeasonReached",
      "type": "error"
    },
    {
      "inputs": [],
      "name": "PointTracker__NotEnoughPoints",
      "type": "error"
    },
    {
      "inputs": [],
      "name": "PointTracker__PlayerNotActive",
      "type": "error"
    },
    {
      "inputs": [],
      "name": "PointTracker__SeasonIsActive",
      "type": "error"
    },
    {
      "inputs": [],
      "name": "PointTracker__SeasonIsNotActive",
      "type": "error"
    },
    {
      "inputs": [],
      "name": "PointTracker__SeasonOutOfBounds",
      "type": "error"
    },
    {
      "anonymous": false,
      "inputs": [
        {
          "indexed": true,
          "internalType": "address",
          "name": "player",
          "type": "address"
        },
        {
          "indexed": false,
          "internalType": "uint256",
          "name": "season",
          "type": "uint256"
        }
      ],
      "name": "AccountActivation",
      "type": "event"
    },
    {
      "anonymous": false,
      "inputs": [
        {
          "indexed": true,
          "internalType": "address",
          "name": "previousOwner",
          "type": "address"
        },
        {
          "indexed": true,
          "internalType": "address",
          "name": "newOwner",
          "type": "address"
        }
      ],
      "name": "OwnershipTransferred",
      "type": "event"
    },
    {
      "anonymous": false,
      "inputs": [
        {
          "indexed": true,
          "internalType": "address",
          "name": "player",
          "type": "address"
        },
        {
          "indexed": false,
          "internalType": "uint256",
          "name": "pointsAdded",
          "type": "uint256"
        },
        {
          "indexed": false,
          "internalType": "uint256",
          "name": "newScore",
          "type": "uint256"
        }
      ],
      "name": "PointsAdded",
      "type": "event"
    },
    {
      "anonymous": false,
      "inputs": [
        {
          "indexed": true,
          "internalType": "address",
          "name": "player",
          "type": "address"
        },
        {
          "indexed": false,
          "internalType": "uint256",
          "name": "pointsRemoved",
          "type": "uint256"
        },
        {
          "indexed": false,
          "internalType": "uint256",
          "name": "newScore",
          "type": "uint256"
        }
      ],
      "name": "PointsRemoved",
      "type": "event"
    },
    {
      "anonymous": false,
      "inputs": [
        {
          "indexed": false,
          "internalType": "uint256",
          "name": "season",
          "type": "uint256"
        }
      ],
      "name": "SeasonFinished",
      "type": "event"
    },
    {
      "anonymous": false,
      "inputs": [
        {
          "indexed": false,
          "internalType": "uint256",
          "name": "season",
          "type": "uint256"
        }
      ],
      "name": "SeasonStarted",
      "type": "event"
    },
    {
      "inputs": [],
      "name": "MINIMUM_DFI_AMOUNT",
      "outputs": [
        {
          "internalType": "uint256",
          "name": "",
          "type": "uint256"
        }
      ],
      "stateMutability": "view",
      "type": "function"
    },
    {
      "inputs": [],
      "name": "STARTING_POINTS",
      "outputs": [
        {
          "internalType": "uint256",
          "name": "",
          "type": "uint256"
        }
      ],
      "stateMutability": "view",
      "type": "function"
    },
    {
      "inputs": [],
      "name": "activateAccount",
      "outputs": [],
      "stateMutability": "nonpayable",
      "type": "function"
    },
    {
      "inputs": [
        {
          "internalType": "address",
          "name": "_player",
          "type": "address"
        },
        {
          "internalType": "uint256",
          "name": "_points",
          "type": "uint256"
        }
      ],
      "name": "addPointsForPlayer",
      "outputs": [],
      "stateMutability": "nonpayable",
      "type": "function"
    },
    {
      "inputs": [],
      "name": "finishSeason",
      "outputs": [],
      "stateMutability": "nonpayable",
      "type": "function"
    },
    {
      "inputs": [],
      "name": "getLatestSeason",
      "outputs": [
        {
          "internalType": "uint256",
          "name": "",
          "type": "uint256"
        }
      ],
      "stateMutability": "view",
      "type": "function"
    },
    {
      "inputs": [],
      "name": "getManager",
      "outputs": [
        {
          "internalType": "address",
          "name": "",
          "type": "address"
        }
      ],
      "stateMutability": "view",
      "type": "function"
    },
    {
      "inputs": [
        {
          "internalType": "uint256",
          "name": "_season",
          "type": "uint256"
        },
        {
          "internalType": "address",
          "name": "_player",
          "type": "address"
        }
      ],
      "name": "getPlayerPoints",
      "outputs": [
        {
          "internalType": "uint256",
          "name": "",
          "type": "uint256"
        }
      ],
      "stateMutability": "view",
      "type": "function"
    },
    {
      "inputs": [],
      "name": "getSeasonEndDate",
      "outputs": [
        {
          "internalType": "uint256",
          "name": "",
          "type": "uint256"
        }
      ],
      "stateMutability": "view",
      "type": "function"
    },
    {
      "inputs": [],
      "name": "owner",
      "outputs": [
        {
          "internalType": "address",
          "name": "",
          "type": "address"
        }
      ],
      "stateMutability": "view",
      "type": "function"
    },
    {
      "inputs": [
        {
          "internalType": "address",
          "name": "_player",
          "type": "address"
        },
        {
          "internalType": "uint256",
          "name": "_points",
          "type": "uint256"
        }
      ],
      "name": "reducePointsForPlayer",
      "outputs": [],
      "stateMutability": "nonpayable",
      "type": "function"
    },
    {
      "inputs": [],
      "name": "renounceOwnership",
      "outputs": [],
      "stateMutability": "nonpayable",
      "type": "function"
    },
    {
      "inputs": [
        {
          "internalType": "uint256",
          "name": "_endOfSeason",
          "type": "uint256"
        }
      ],
      "name": "startSeason",
      "outputs": [],
      "stateMutability": "nonpayable",
      "type": "function"
    },
    {
      "inputs": [
        {
          "internalType": "address",
          "name": "newOwner",
          "type": "address"
        }
      ],
      "name": "transferOwnership",
      "outputs": [],
      "stateMutability": "nonpayable",
      "type": "function"
    }
  ],
  "transactionHash": "0x57fa3503f79b7585d3404eee492f1d1a58a7061696c13aefa85095e59b16f450",
  "args": [
    "0x0d1C80Ea9387936FAC78F74443bAd1DC1FAcAD06"
  ],
  "numDeployments": 1,
  "solcInputHash": "10c0098750cee4c9948b7ca3d8e3f706",
  "bytecode": "0x608060405234801561001057600080fd5b50604051610a13380380610a1383398101604081905261002f916100ad565b6100383361005d565b600180546001600160a01b0319166001600160a01b03929092169190911790556100dd565b600080546001600160a01b038381166001600160a01b0319831681178455604051919092169283917f8be0079c531659141344cd1fd0a4f28419497f9722a3daafe3b4186f6b6457e09190a35050565b6000602082840312156100bf57600080fd5b81516001600160a01b03811681146100d657600080fd5b9392505050565b610927806100ec6000396000f3fe608060405234801561001057600080fd5b50600436106100ea5760003560e01c8063715018a61161008c578063bb68ab9411610066578063bb68ab941461019d578063d5009584146101a5578063ea6296e4146101b6578063f2fde38b146101c557600080fd5b8063715018a61461015d5780638da5cb5b14610165578063ae5139011461018a57600080fd5b806353fb1cd2116100c857806353fb1cd21461012757806356e36c1f1461013a5780636f26f7d814610142578063703dbfe41461014a57600080fd5b80631f07a12b146100ef57806332121600146101045780635395acf91461010c575b600080fd5b6101026100fd36600461081a565b6101d8565b005b6101026102b3565b610114606481565b6040519081526020015b60405180910390f35b610114610135366004610844565b610348565b600354610114565b610102610396565b610102610158366004610870565b6104aa565b61010261053a565b6000546001600160a01b03165b6040516001600160a01b03909116815260200161011e565b61010261019836600461081a565b61054e565b600254610114565b6001546001600160a01b0316610172565b610114678ac7230489e8000081565b6101026101d3366004610889565b610617565b60045460ff16151560000361020057604051639238013b60e01b815260040160405180910390fd5b610208610695565b610211826106c0565b61021b828261070a565b60025460009081526005602090815260408083206001600160a01b0386168452909152812080549161024c836108c1565b909155505060025460009081526005602090815260408083206001600160a01b03861680855290835292819020548151858152928301527f2b58a342147e52cafbfa184a8d6a3583ffe7664f958cdf1c00af5cf9c02ccb4691015b60405180910390a25050565b6102bb610754565b60045460ff1615156000036102e357604051639238013b60e01b815260040160405180910390fd5b6003544210156103065760405163e3e6e8ff60e01b815260040160405180910390fd5b6004805460ff191690556002546040519081527f4233cabd0860c720cda964bd3080f63f47e4e85fd50fc062fa13daa309fa3a9d9060200160405180910390a1565b600060025483111561036d576040516339ff63d960e21b815260040160405180910390fd5b5060009182526005602090815260408084206001600160a01b0393909316845291905290205490565b60045460ff1615156000036103be57604051639238013b60e01b815260040160405180910390fd5b600254600090815260066020908152604080832033845290915290205460ff1615156001036104005760405163610cb88b60e01b815260040160405180910390fd5b678ac7230489e800003331101561042a5760405163afab280b60e01b815260040160405180910390fd5b6002805460009081526005602090815260408083203380855290835281842060649055845484526006835281842081855290925291829020805460ff19166001179055915490517f1c7b9bb5427e707318fed580d5afbc7fbd2c7ec45e5e44f1d78a82db5d57fae4916104a09190815260200190565b60405180910390a2565b6104b2610754565b60045460ff1615156001036104da57604051633bf59b2760e11b815260040160405180910390fd5b6004805460ff19166001179055600280549060006104f7836108d8565b909155505060038190556002546040519081527fe2046d333900871694b2fb421975b907ac5d93052201a0e259fa0664d9dbdf1d9060200160405180910390a150565b610542610754565b61054c60006107ae565b565b60045460ff16151560000361057657604051639238013b60e01b815260040160405180910390fd5b61057e610695565b610587826106c0565b60025460009081526005602090815260408083206001600160a01b038616845290915281208054916105b8836108d8565b909155505060025460009081526005602090815260408083206001600160a01b03861680855290835292819020548151858152928301527f27909057bad6ce6fc50ecea73759a0da1ec7790bbb0144577bf31372a78b3e6491016102a7565b61061f610754565b6001600160a01b0381166106895760405162461bcd60e51b815260206004820152602660248201527f4f776e61626c653a206e6577206f776e657220697320746865207a65726f206160448201526564647265737360d01b60648201526084015b60405180910390fd5b610692816107ae565b50565b6001546001600160a01b0316331461054c57604051637a8c758960e11b815260040160405180910390fd5b60025460009081526006602090815260408083206001600160a01b038516845290915281205460ff161515900361069257604051639f284f7d60e01b815260040160405180910390fd5b60025460009081526005602090815260408083206001600160a01b03861684529091529020548110156107505760405163048b40c960e51b815260040160405180910390fd5b5050565b6000546001600160a01b0316331461054c5760405162461bcd60e51b815260206004820181905260248201527f4f776e61626c653a2063616c6c6572206973206e6f7420746865206f776e65726044820152606401610680565b600080546001600160a01b038381166001600160a01b0319831681178455604051919092169283917f8be0079c531659141344cd1fd0a4f28419497f9722a3daafe3b4186f6b6457e09190a35050565b80356001600160a01b038116811461081557600080fd5b919050565b6000806040838503121561082d57600080fd5b610836836107fe565b946020939093013593505050565b6000806040838503121561085757600080fd5b82359150610867602084016107fe565b90509250929050565b60006020828403121561088257600080fd5b5035919050565b60006020828403121561089b57600080fd5b6108a4826107fe565b9392505050565b634e487b7160e01b600052601160045260246000fd5b6000816108d0576108d06108ab565b506000190190565b6000600182016108ea576108ea6108ab565b506001019056fea26469706673582212207edd5fb98908e70446d2b477c468fa0ebc3030340f35f79428a0df722aec5fc564736f6c63430008130033",
  "devdoc": {
    "kind": "dev",
    "methods": {
      "owner()": {
        "details": "Returns the address of the current owner."
      },
      "renounceOwnership()": {
        "details": "Leaves the contract without owner. It will not be possible to call `onlyOwner` functions. Can only be called by the current owner. NOTE: Renouncing ownership will leave the contract without an owner, thereby disabling any functionality that is only available to the owner."
      },
      "transferOwnership(address)": {
        "details": "Transfers ownership of the contract to a new account (`newOwner`). Can only be called by the current owner."
      }
    },
    "version": 1
  },
  "userdoc": {
    "kind": "user",
    "methods": {},
    "version": 1
  },
  "storageLayout": {
    "storage": [
      {
        "astId": 53,
        "contract": "src/core/PointTracker.sol:PointTracker",
        "label": "_owner",
        "offset": 0,
        "slot": "0",
        "type": "t_address"
      },
      {
        "astId": 5204,
        "contract": "src/core/PointTracker.sol:PointTracker",
        "label": "manager",
        "offset": 0,
        "slot": "1",
        "type": "t_address"
      },
      {
        "astId": 5206,
        "contract": "src/core/PointTracker.sol:PointTracker",
        "label": "season",
        "offset": 0,
        "slot": "2",
        "type": "t_uint256"
      },
      {
        "astId": 5208,
        "contract": "src/core/PointTracker.sol:PointTracker",
        "label": "endOfSeason",
        "offset": 0,
        "slot": "3",
        "type": "t_uint256"
      },
      {
        "astId": 5210,
        "contract": "src/core/PointTracker.sol:PointTracker",
        "label": "seasonActive",
        "offset": 0,
        "slot": "4",
        "type": "t_bool"
      },
      {
        "astId": 5216,
        "contract": "src/core/PointTracker.sol:PointTracker",
        "label": "pointsInSeason",
        "offset": 0,
        "slot": "5",
        "type": "t_mapping(t_uint256,t_mapping(t_address,t_uint256))"
      },
      {
        "astId": 5222,
        "contract": "src/core/PointTracker.sol:PointTracker",
        "label": "isActivated",
        "offset": 0,
        "slot": "6",
        "type": "t_mapping(t_uint256,t_mapping(t_address,t_bool))"
      }
    ],
    "types": {
      "t_address": {
        "encoding": "inplace",
        "label": "address",
        "numberOfBytes": "20"
      },
      "t_bool": {
        "encoding": "inplace",
        "label": "bool",
        "numberOfBytes": "1"
      },
      "t_mapping(t_address,t_bool)": {
        "encoding": "mapping",
        "key": "t_address",
        "label": "mapping(address => bool)",
        "numberOfBytes": "32",
        "value": "t_bool"
      },
      "t_mapping(t_address,t_uint256)": {
        "encoding": "mapping",
        "key": "t_address",
        "label": "mapping(address => uint256)",
        "numberOfBytes": "32",
        "value": "t_uint256"
      },
      "t_mapping(t_uint256,t_mapping(t_address,t_bool))": {
        "encoding": "mapping",
        "key": "t_uint256",
        "label": "mapping(uint256 => mapping(address => bool))",
        "numberOfBytes": "32",
        "value": "t_mapping(t_address,t_bool)"
      },
      "t_mapping(t_uint256,t_mapping(t_address,t_uint256))": {
        "encoding": "mapping",
        "key": "t_uint256",
        "label": "mapping(uint256 => mapping(address => uint256))",
        "numberOfBytes": "32",
        "value": "t_mapping(t_address,t_uint256)"
      },
      "t_uint256": {
        "encoding": "inplace",
        "label": "uint256",
        "numberOfBytes": "32"
      }
    }
  }
}