{
  "address": "0x9Bcb695Ea0BBeC9f35417A6B36Bd8C936dafdD20",
  "abi": [
    {
      "inputs": [
        {
          "internalType": "address",
          "name": "_manager",
          "type": "address"
        }
      ],
      "stateMutability": "nonpayable",
      "type": "constructor"
    },
    {
      "inputs": [],
      "name": "PointTracker__AccessForbidden",
      "type": "error"
    },
    {
      "inputs": [],
      "name": "PointTracker__AccountAlreadyActivated",
      "type": "error"
    },
    {
      "inputs": [],
      "name": "PointTracker__AccountNotEligible",
      "type": "error"
    },
    {
      "inputs": [],
      "name": "PointTracker__NotEndOfSeasonReached",
      "type": "error"
    },
    {
      "inputs": [],
      "name": "PointTracker__NotEnoughPoints",
      "type": "error"
    },
    {
      "inputs": [],
      "name": "PointTracker__PlayerNotActive",
      "type": "error"
    },
    {
      "inputs": [],
      "name": "PointTracker__SeasonIsActive",
      "type": "error"
    },
    {
      "inputs": [],
      "name": "PointTracker__SeasonIsNotActive",
      "type": "error"
    },
    {
      "inputs": [],
      "name": "PointTracker__SeasonOutOfBounds",
      "type": "error"
    },
    {
      "anonymous": false,
      "inputs": [
        {
          "indexed": true,
          "internalType": "address",
          "name": "player",
          "type": "address"
        },
        {
          "indexed": false,
          "internalType": "uint256",
          "name": "season",
          "type": "uint256"
        }
      ],
      "name": "AccountActivation",
      "type": "event"
    },
    {
      "anonymous": false,
      "inputs": [
        {
          "indexed": true,
          "internalType": "address",
          "name": "previousOwner",
          "type": "address"
        },
        {
          "indexed": true,
          "internalType": "address",
          "name": "newOwner",
          "type": "address"
        }
      ],
      "name": "OwnershipTransferred",
      "type": "event"
    },
    {
      "anonymous": false,
      "inputs": [
        {
          "indexed": true,
          "internalType": "address",
          "name": "player",
          "type": "address"
        },
        {
          "indexed": false,
          "internalType": "uint256",
          "name": "pointsAdded",
          "type": "uint256"
        },
        {
          "indexed": false,
          "internalType": "uint256",
          "name": "newScore",
          "type": "uint256"
        }
      ],
      "name": "PointsAdded",
      "type": "event"
    },
    {
      "anonymous": false,
      "inputs": [
        {
          "indexed": true,
          "internalType": "address",
          "name": "player",
          "type": "address"
        },
        {
          "indexed": false,
          "internalType": "uint256",
          "name": "pointsRemoved",
          "type": "uint256"
        },
        {
          "indexed": false,
          "internalType": "uint256",
          "name": "newScore",
          "type": "uint256"
        }
      ],
      "name": "PointsRemoved",
      "type": "event"
    },
    {
      "anonymous": false,
      "inputs": [
        {
          "indexed": false,
          "internalType": "uint256",
          "name": "season",
          "type": "uint256"
        }
      ],
      "name": "SeasonFinished",
      "type": "event"
    },
    {
      "anonymous": false,
      "inputs": [
        {
          "indexed": false,
          "internalType": "uint256",
          "name": "season",
          "type": "uint256"
        }
      ],
      "name": "SeasonStarted",
      "type": "event"
    },
    {
      "inputs": [],
      "name": "MINIMUM_DFI_AMOUNT",
      "outputs": [
        {
          "internalType": "uint256",
          "name": "",
          "type": "uint256"
        }
      ],
      "stateMutability": "view",
      "type": "function"
    },
    {
      "inputs": [],
      "name": "STARTING_POINTS",
      "outputs": [
        {
          "internalType": "uint256",
          "name": "",
          "type": "uint256"
        }
      ],
      "stateMutability": "view",
      "type": "function"
    },
    {
      "inputs": [],
      "name": "activateAccount",
      "outputs": [],
      "stateMutability": "nonpayable",
      "type": "function"
    },
    {
      "inputs": [
        {
          "internalType": "address",
          "name": "_player",
          "type": "address"
        },
        {
          "internalType": "uint256",
          "name": "_points",
          "type": "uint256"
        }
      ],
      "name": "addPointsForPlayer",
      "outputs": [],
      "stateMutability": "nonpayable",
      "type": "function"
    },
    {
      "inputs": [],
      "name": "finishSeason",
      "outputs": [],
      "stateMutability": "nonpayable",
      "type": "function"
    },
    {
      "inputs": [],
      "name": "getLatestSeason",
      "outputs": [
        {
          "internalType": "uint256",
          "name": "",
          "type": "uint256"
        }
      ],
      "stateMutability": "view",
      "type": "function"
    },
    {
      "inputs": [],
      "name": "getManager",
      "outputs": [
        {
          "internalType": "address",
          "name": "",
          "type": "address"
        }
      ],
      "stateMutability": "view",
      "type": "function"
    },
    {
      "inputs": [
        {
          "internalType": "uint256",
          "name": "_season",
          "type": "uint256"
        },
        {
          "internalType": "address",
          "name": "_player",
          "type": "address"
        }
      ],
      "name": "getPlayerPoints",
      "outputs": [
        {
          "internalType": "uint256",
          "name": "",
          "type": "uint256"
        }
      ],
      "stateMutability": "view",
      "type": "function"
    },
    {
      "inputs": [],
      "name": "getSeasonEndDate",
      "outputs": [
        {
          "internalType": "uint256",
          "name": "",
          "type": "uint256"
        }
      ],
      "stateMutability": "view",
      "type": "function"
    },
    {
      "inputs": [
        {
          "internalType": "uint256",
          "name": "_season",
          "type": "uint256"
        },
        {
          "internalType": "address",
          "name": "_player",
          "type": "address"
        }
      ],
      "name": "isAccountActive",
      "outputs": [
        {
          "internalType": "bool",
          "name": "",
          "type": "bool"
        }
      ],
      "stateMutability": "view",
      "type": "function"
    },
    {
      "inputs": [],
      "name": "owner",
      "outputs": [
        {
          "internalType": "address",
          "name": "",
          "type": "address"
        }
      ],
      "stateMutability": "view",
      "type": "function"
    },
    {
      "inputs": [
        {
          "internalType": "address",
          "name": "_player",
          "type": "address"
        },
        {
          "internalType": "uint256",
          "name": "_points",
          "type": "uint256"
        }
      ],
      "name": "reducePointsForPlayer",
      "outputs": [],
      "stateMutability": "nonpayable",
      "type": "function"
    },
    {
      "inputs": [],
      "name": "renounceOwnership",
      "outputs": [],
      "stateMutability": "nonpayable",
      "type": "function"
    },
    {
      "inputs": [
        {
          "internalType": "uint256",
          "name": "_endOfSeason",
          "type": "uint256"
        }
      ],
      "name": "startSeason",
      "outputs": [],
      "stateMutability": "nonpayable",
      "type": "function"
    },
    {
      "inputs": [
        {
          "internalType": "address",
          "name": "newOwner",
          "type": "address"
        }
      ],
      "name": "transferOwnership",
      "outputs": [],
      "stateMutability": "nonpayable",
      "type": "function"
    }
  ],
  "transactionHash": "0x719eb90dff1f68f4bee9df74018974e21839bfb04bc388551883621d51d33274",
  "args": [
    "0x235234291698c6971e29a5D866dC95F7a66e5f8c"
  ],
  "numDeployments": 1,
  "solcInputHash": "555ec5b9f83ecbd430c738d2e15868b1",
  "bytecode": "0x608060405234801561001057600080fd5b50604051610a67380380610a6783398101604081905261002f916100ad565b6100383361005d565b600180546001600160a01b0319166001600160a01b03929092169190911790556100dd565b600080546001600160a01b038381166001600160a01b0319831681178455604051919092169283917f8be0079c531659141344cd1fd0a4f28419497f9722a3daafe3b4186f6b6457e09190a35050565b6000602082840312156100bf57600080fd5b81516001600160a01b03811681146100d657600080fd5b9392505050565b61097b806100ec6000396000f3fe608060405234801561001057600080fd5b50600436106100f55760003560e01c8063715018a611610097578063d500958411610066578063d5009584146101b0578063e0abfabc146101c1578063ea6296e41461020a578063f2fde38b1461021957600080fd5b8063715018a6146101685780638da5cb5b14610170578063ae51390114610195578063bb68ab94146101a857600080fd5b806353fb1cd2116100d357806353fb1cd21461013257806356e36c1f146101455780636f26f7d81461014d578063703dbfe41461015557600080fd5b80631f07a12b146100fa578063321216001461010f5780635395acf914610117575b600080fd5b61010d61010836600461086e565b61022c565b005b61010d610307565b61011f606481565b6040519081526020015b60405180910390f35b61011f610140366004610898565b61039c565b60035461011f565b61010d6103ea565b61010d6101633660046108c4565b6104fe565b61010d61058e565b6000546001600160a01b03165b6040516001600160a01b039091168152602001610129565b61010d6101a336600461086e565b6105a2565b60025461011f565b6001546001600160a01b031661017d565b6101fa6101cf366004610898565b60009182526006602090815260408084206001600160a01b0393909316845291905290205460ff1690565b6040519015158152602001610129565b61011f678ac7230489e8000081565b61010d6102273660046108dd565b61066b565b60045460ff16151560000361025457604051639238013b60e01b815260040160405180910390fd5b61025c6106e9565b61026582610714565b61026f828261075e565b60025460009081526005602090815260408083206001600160a01b038616845290915281208054916102a083610915565b909155505060025460009081526005602090815260408083206001600160a01b03861680855290835292819020548151858152928301527f2b58a342147e52cafbfa184a8d6a3583ffe7664f958cdf1c00af5cf9c02ccb4691015b60405180910390a25050565b61030f6107a8565b60045460ff16151560000361033757604051639238013b60e01b815260040160405180910390fd5b60035442101561035a5760405163e3e6e8ff60e01b815260040160405180910390fd5b6004805460ff191690556002546040519081527f4233cabd0860c720cda964bd3080f63f47e4e85fd50fc062fa13daa309fa3a9d9060200160405180910390a1565b60006002548311156103c1576040516339ff63d960e21b815260040160405180910390fd5b5060009182526005602090815260408084206001600160a01b0393909316845291905290205490565b60045460ff16151560000361041257604051639238013b60e01b815260040160405180910390fd5b600254600090815260066020908152604080832033845290915290205460ff1615156001036104545760405163610cb88b60e01b815260040160405180910390fd5b678ac7230489e800003331101561047e5760405163afab280b60e01b815260040160405180910390fd5b6002805460009081526005602090815260408083203380855290835281842060649055845484526006835281842081855290925291829020805460ff19166001179055915490517f1c7b9bb5427e707318fed580d5afbc7fbd2c7ec45e5e44f1d78a82db5d57fae4916104f49190815260200190565b60405180910390a2565b6105066107a8565b60045460ff16151560010361052e57604051633bf59b2760e11b815260040160405180910390fd5b6004805460ff191660011790556002805490600061054b8361092c565b909155505060038190556002546040519081527fe2046d333900871694b2fb421975b907ac5d93052201a0e259fa0664d9dbdf1d9060200160405180910390a150565b6105966107a8565b6105a06000610802565b565b60045460ff1615156000036105ca57604051639238013b60e01b815260040160405180910390fd5b6105d26106e9565b6105db82610714565b60025460009081526005602090815260408083206001600160a01b0386168452909152812080549161060c8361092c565b909155505060025460009081526005602090815260408083206001600160a01b03861680855290835292819020548151858152928301527f27909057bad6ce6fc50ecea73759a0da1ec7790bbb0144577bf31372a78b3e6491016102fb565b6106736107a8565b6001600160a01b0381166106dd5760405162461bcd60e51b815260206004820152602660248201527f4f776e61626c653a206e6577206f776e657220697320746865207a65726f206160448201526564647265737360d01b60648201526084015b60405180910390fd5b6106e681610802565b50565b6001546001600160a01b031633146105a057604051637a8c758960e11b815260040160405180910390fd5b60025460009081526006602090815260408083206001600160a01b038516845290915281205460ff16151590036106e657604051639f284f7d60e01b815260040160405180910390fd5b60025460009081526005602090815260408083206001600160a01b03861684529091529020548110156107a45760405163048b40c960e51b815260040160405180910390fd5b5050565b6000546001600160a01b031633146105a05760405162461bcd60e51b815260206004820181905260248201527f4f776e61626c653a2063616c6c6572206973206e6f7420746865206f776e657260448201526064016106d4565b600080546001600160a01b038381166001600160a01b0319831681178455604051919092169283917f8be0079c531659141344cd1fd0a4f28419497f9722a3daafe3b4186f6b6457e09190a35050565b80356001600160a01b038116811461086957600080fd5b919050565b6000806040838503121561088157600080fd5b61088a83610852565b946020939093013593505050565b600080604083850312156108ab57600080fd5b823591506108bb60208401610852565b90509250929050565b6000602082840312156108d657600080fd5b5035919050565b6000602082840312156108ef57600080fd5b6108f882610852565b9392505050565b634e487b7160e01b600052601160045260246000fd5b600081610924576109246108ff565b506000190190565b60006001820161093e5761093e6108ff565b506001019056fea264697066735822122028ff8508f4d85e5d96a9a03b49fd2bacefda4a4dc54fa43f666f75cb470ef6f564736f6c63430008130033",
  "devdoc": {
    "kind": "dev",
    "methods": {
      "owner()": {
        "details": "Returns the address of the current owner."
      },
      "renounceOwnership()": {
        "details": "Leaves the contract without owner. It will not be possible to call `onlyOwner` functions. Can only be called by the current owner. NOTE: Renouncing ownership will leave the contract without an owner, thereby disabling any functionality that is only available to the owner."
      },
      "transferOwnership(address)": {
        "details": "Transfers ownership of the contract to a new account (`newOwner`). Can only be called by the current owner."
      }
    },
    "version": 1
  },
  "userdoc": {
    "kind": "user",
    "methods": {},
    "version": 1
  },
  "storageLayout": {
    "storage": [
      {
        "astId": 53,
        "contract": "src/core/PointTracker.sol:PointTracker",
        "label": "_owner",
        "offset": 0,
        "slot": "0",
        "type": "t_address"
      },
      {
        "astId": 5227,
        "contract": "src/core/PointTracker.sol:PointTracker",
        "label": "manager",
        "offset": 0,
        "slot": "1",
        "type": "t_address"
      },
      {
        "astId": 5229,
        "contract": "src/core/PointTracker.sol:PointTracker",
        "label": "season",
        "offset": 0,
        "slot": "2",
        "type": "t_uint256"
      },
      {
        "astId": 5231,
        "contract": "src/core/PointTracker.sol:PointTracker",
        "label": "endOfSeason",
        "offset": 0,
        "slot": "3",
        "type": "t_uint256"
      },
      {
        "astId": 5233,
        "contract": "src/core/PointTracker.sol:PointTracker",
        "label": "seasonActive",
        "offset": 0,
        "slot": "4",
        "type": "t_bool"
      },
      {
        "astId": 5239,
        "contract": "src/core/PointTracker.sol:PointTracker",
        "label": "pointsInSeason",
        "offset": 0,
        "slot": "5",
        "type": "t_mapping(t_uint256,t_mapping(t_address,t_uint256))"
      },
      {
        "astId": 5245,
        "contract": "src/core/PointTracker.sol:PointTracker",
        "label": "isActivated",
        "offset": 0,
        "slot": "6",
        "type": "t_mapping(t_uint256,t_mapping(t_address,t_bool))"
      }
    ],
    "types": {
      "t_address": {
        "encoding": "inplace",
        "label": "address",
        "numberOfBytes": "20"
      },
      "t_bool": {
        "encoding": "inplace",
        "label": "bool",
        "numberOfBytes": "1"
      },
      "t_mapping(t_address,t_bool)": {
        "encoding": "mapping",
        "key": "t_address",
        "label": "mapping(address => bool)",
        "numberOfBytes": "32",
        "value": "t_bool"
      },
      "t_mapping(t_address,t_uint256)": {
        "encoding": "mapping",
        "key": "t_address",
        "label": "mapping(address => uint256)",
        "numberOfBytes": "32",
        "value": "t_uint256"
      },
      "t_mapping(t_uint256,t_mapping(t_address,t_bool))": {
        "encoding": "mapping",
        "key": "t_uint256",
        "label": "mapping(uint256 => mapping(address => bool))",
        "numberOfBytes": "32",
        "value": "t_mapping(t_address,t_bool)"
      },
      "t_mapping(t_uint256,t_mapping(t_address,t_uint256))": {
        "encoding": "mapping",
        "key": "t_uint256",
        "label": "mapping(uint256 => mapping(address => uint256))",
        "numberOfBytes": "32",
        "value": "t_mapping(t_address,t_uint256)"
      },
      "t_uint256": {
        "encoding": "inplace",
        "label": "uint256",
        "numberOfBytes": "32"
      }
    }
  }
}