{
  "address": "0xBc4aE6aacBA1b080C9B1E89fF4C120E15602bE7a",
  "abi": [
    {
      "inputs": [],
      "stateMutability": "nonpayable",
      "type": "constructor"
    },
    {
      "inputs": [],
      "name": "DefiBetsManager__ExpTimeNotValid",
      "type": "error"
    },
    {
      "inputs": [],
      "name": "DefiBetsManager__NoPointTrackerSet",
      "type": "error"
    },
    {
      "inputs": [],
      "name": "DefiBetsManager__NoValidUnderlying",
      "type": "error"
    },
    {
      "inputs": [],
      "name": "DefiBetsManager__NotValidRoundId",
      "type": "error"
    },
    {
      "anonymous": false,
      "inputs": [
        {
          "indexed": false,
          "internalType": "uint256",
          "name": "feePpm",
          "type": "uint256"
        }
      ],
      "name": "FeeUpdated",
      "type": "event"
    },
    {
      "anonymous": false,
      "inputs": [
        {
          "indexed": false,
          "internalType": "bytes32",
          "name": "underlying",
          "type": "bytes32"
        },
        {
          "indexed": false,
          "internalType": "address",
          "name": "feed",
          "type": "address"
        },
        {
          "indexed": false,
          "internalType": "uint256",
          "name": "period",
          "type": "uint256"
        }
      ],
      "name": "IVFeedUpdated",
      "type": "event"
    },
    {
      "anonymous": false,
      "inputs": [
        {
          "indexed": true,
          "internalType": "address",
          "name": "previousOwner",
          "type": "address"
        },
        {
          "indexed": true,
          "internalType": "address",
          "name": "newOwner",
          "type": "address"
        }
      ],
      "name": "OwnershipTransferred",
      "type": "event"
    },
    {
      "anonymous": false,
      "inputs": [
        {
          "indexed": false,
          "internalType": "address",
          "name": "account",
          "type": "address"
        }
      ],
      "name": "Paused",
      "type": "event"
    },
    {
      "anonymous": false,
      "inputs": [
        {
          "indexed": false,
          "internalType": "uint256",
          "name": "payoutFactor",
          "type": "uint256"
        }
      ],
      "name": "PayoutFactorUpdated",
      "type": "event"
    },
    {
      "anonymous": false,
      "inputs": [
        {
          "indexed": false,
          "internalType": "bytes32",
          "name": "underlying",
          "type": "bytes32"
        },
        {
          "indexed": false,
          "internalType": "address",
          "name": "priceFeed",
          "type": "address"
        }
      ],
      "name": "PriceFeedUpdated",
      "type": "event"
    },
    {
      "anonymous": false,
      "inputs": [
        {
          "indexed": false,
          "internalType": "string",
          "name": "underlying",
          "type": "string"
        },
        {
          "indexed": false,
          "internalType": "bytes32",
          "name": "underlyingHash",
          "type": "bytes32"
        },
        {
          "indexed": false,
          "internalType": "address",
          "name": "defiBets",
          "type": "address"
        }
      ],
      "name": "UnderlyingAdded",
      "type": "event"
    },
    {
      "anonymous": false,
      "inputs": [
        {
          "indexed": false,
          "internalType": "address",
          "name": "account",
          "type": "address"
        }
      ],
      "name": "Unpaused",
      "type": "event"
    },
    {
      "inputs": [],
      "name": "MULTIPLIER",
      "outputs": [
        {
          "internalType": "uint256",
          "name": "",
          "type": "uint256"
        }
      ],
      "stateMutability": "view",
      "type": "function"
    },
    {
      "inputs": [
        {
          "internalType": "string",
          "name": "_underlying",
          "type": "string"
        },
        {
          "internalType": "address",
          "name": "_feed",
          "type": "address"
        },
        {
          "internalType": "address",
          "name": "_defiBets",
          "type": "address"
        }
      ],
      "name": "addUnderlyingToken",
      "outputs": [],
      "stateMutability": "nonpayable",
      "type": "function"
    },
    {
      "inputs": [
        {
          "internalType": "uint256",
          "name": "_price",
          "type": "uint256"
        },
        {
          "internalType": "uint256",
          "name": "_betSize",
          "type": "uint256"
        },
        {
          "internalType": "uint256",
          "name": "_minPrice",
          "type": "uint256"
        },
        {
          "internalType": "uint256",
          "name": "_maxPrice",
          "type": "uint256"
        },
        {
          "internalType": "uint256",
          "name": "_expTime",
          "type": "uint256"
        },
        {
          "internalType": "bytes32",
          "name": "_hash",
          "type": "bytes32"
        }
      ],
      "name": "calculateWinning",
      "outputs": [
        {
          "internalType": "uint256",
          "name": "",
          "type": "uint256"
        }
      ],
      "stateMutability": "view",
      "type": "function"
    },
    {
      "inputs": [
        {
          "internalType": "uint256",
          "name": "_tokenId",
          "type": "uint256"
        },
        {
          "internalType": "bytes32",
          "name": "_hash",
          "type": "bytes32"
        }
      ],
      "name": "claimWinnings",
      "outputs": [],
      "stateMutability": "nonpayable",
      "type": "function"
    },
    {
      "inputs": [
        {
          "internalType": "bytes32",
          "name": "_tokenHash",
          "type": "bytes32"
        }
      ],
      "name": "createNewExpTime",
      "outputs": [],
      "stateMutability": "nonpayable",
      "type": "function"
    },
    {
      "inputs": [
        {
          "internalType": "bytes32",
          "name": "",
          "type": "bytes32"
        }
      ],
      "name": "defiBetsContracts",
      "outputs": [
        {
          "internalType": "address",
          "name": "",
          "type": "address"
        }
      ],
      "stateMutability": "view",
      "type": "function"
    },
    {
      "inputs": [
        {
          "internalType": "uint256",
          "name": "_expTime",
          "type": "uint256"
        },
        {
          "internalType": "string",
          "name": "_underlying",
          "type": "string"
        },
        {
          "internalType": "uint80",
          "name": "_roundId",
          "type": "uint80"
        }
      ],
      "name": "executeExpiration",
      "outputs": [],
      "stateMutability": "nonpayable",
      "type": "function"
    },
    {
      "inputs": [
        {
          "internalType": "bytes32",
          "name": "_hash",
          "type": "bytes32"
        }
      ],
      "name": "getCurrPrice",
      "outputs": [
        {
          "internalType": "uint256",
          "name": "",
          "type": "uint256"
        }
      ],
      "stateMutability": "view",
      "type": "function"
    },
    {
      "inputs": [
        {
          "internalType": "bytes32",
          "name": "_hash",
          "type": "bytes32"
        }
      ],
      "name": "getImplVol",
      "outputs": [
        {
          "internalType": "uint256",
          "name": "",
          "type": "uint256"
        }
      ],
      "stateMutability": "view",
      "type": "function"
    },
    {
      "inputs": [
        {
          "internalType": "bytes32",
          "name": "_hash",
          "type": "bytes32"
        },
        {
          "internalType": "uint256",
          "name": "_expTime",
          "type": "uint256"
        },
        {
          "internalType": "uint80",
          "name": "_roundId",
          "type": "uint80"
        }
      ],
      "name": "getPrice",
      "outputs": [
        {
          "internalType": "uint256",
          "name": "",
          "type": "uint256"
        }
      ],
      "stateMutability": "view",
      "type": "function"
    },
    {
      "inputs": [
        {
          "internalType": "string",
          "name": "_token",
          "type": "string"
        }
      ],
      "name": "getUnderlyingByte",
      "outputs": [
        {
          "internalType": "bytes32",
          "name": "",
          "type": "bytes32"
        }
      ],
      "stateMutability": "pure",
      "type": "function"
    },
    {
      "inputs": [
        {
          "internalType": "bytes32",
          "name": "_hash",
          "type": "bytes32"
        },
        {
          "internalType": "uint256",
          "name": "_startExpTime",
          "type": "uint256"
        },
        {
          "internalType": "uint256",
          "name": "_minBetDuration",
          "type": "uint256"
        },
        {
          "internalType": "uint256",
          "name": "_maxBetDuration",
          "type": "uint256"
        },
        {
          "internalType": "uint256",
          "name": "_slot",
          "type": "uint256"
        }
      ],
      "name": "initializeBets",
      "outputs": [],
      "stateMutability": "nonpayable",
      "type": "function"
    },
    {
      "inputs": [],
      "name": "owner",
      "outputs": [
        {
          "internalType": "address",
          "name": "",
          "type": "address"
        }
      ],
      "stateMutability": "view",
      "type": "function"
    },
    {
      "inputs": [],
      "name": "paused",
      "outputs": [
        {
          "internalType": "bool",
          "name": "",
          "type": "bool"
        }
      ],
      "stateMutability": "view",
      "type": "function"
    },
    {
      "inputs": [],
      "name": "pointTracker",
      "outputs": [
        {
          "internalType": "address",
          "name": "",
          "type": "address"
        }
      ],
      "stateMutability": "view",
      "type": "function"
    },
    {
      "inputs": [],
      "name": "renounceOwnership",
      "outputs": [],
      "stateMutability": "nonpayable",
      "type": "function"
    },
    {
      "inputs": [
        {
          "internalType": "uint256",
          "name": "_betSize",
          "type": "uint256"
        },
        {
          "internalType": "uint256",
          "name": "_minPrice",
          "type": "uint256"
        },
        {
          "internalType": "uint256",
          "name": "_maxPrice",
          "type": "uint256"
        },
        {
          "internalType": "uint256",
          "name": "_expTime",
          "type": "uint256"
        },
        {
          "internalType": "string",
          "name": "_underlying",
          "type": "string"
        }
      ],
      "name": "setBet",
      "outputs": [],
      "stateMutability": "nonpayable",
      "type": "function"
    },
    {
      "inputs": [
        {
          "internalType": "uint256",
          "name": "_minBetDuration",
          "type": "uint256"
        },
        {
          "internalType": "uint256",
          "name": "_maxBetDuration",
          "type": "uint256"
        },
        {
          "internalType": "uint256",
          "name": "_slot",
          "type": "uint256"
        },
        {
          "internalType": "uint256",
          "name": "_timeDelta",
          "type": "uint256"
        },
        {
          "internalType": "uint256",
          "name": "_dependentTimeStamp",
          "type": "uint256"
        },
        {
          "internalType": "bytes32",
          "name": "_hash",
          "type": "bytes32"
        }
      ],
      "name": "setDefiBetsParameter",
      "outputs": [],
      "stateMutability": "nonpayable",
      "type": "function"
    },
    {
      "inputs": [
        {
          "internalType": "address",
          "name": "_pointTracker",
          "type": "address"
        }
      ],
      "name": "setPointTracker",
      "outputs": [],
      "stateMutability": "nonpayable",
      "type": "function"
    },
    {
      "inputs": [
        {
          "internalType": "address",
          "name": "newOwner",
          "type": "address"
        }
      ],
      "name": "transferOwnership",
      "outputs": [],
      "stateMutability": "nonpayable",
      "type": "function"
    },
    {
      "inputs": [
        {
          "internalType": "bytes32",
          "name": "",
          "type": "bytes32"
        }
      ],
      "name": "underlyingIVFeeds",
      "outputs": [
        {
          "internalType": "address",
          "name": "feedAddress",
          "type": "address"
        },
        {
          "internalType": "uint256",
          "name": "period",
          "type": "uint256"
        }
      ],
      "stateMutability": "view",
      "type": "function"
    },
    {
      "inputs": [
        {
          "internalType": "bytes32",
          "name": "",
          "type": "bytes32"
        }
      ],
      "name": "underlyingPriceFeeds",
      "outputs": [
        {
          "internalType": "address",
          "name": "",
          "type": "address"
        }
      ],
      "stateMutability": "view",
      "type": "function"
    },
    {
      "inputs": [
        {
          "internalType": "bytes32",
          "name": "_hash",
          "type": "bytes32"
        },
        {
          "internalType": "address",
          "name": "_feed",
          "type": "address"
        },
        {
          "internalType": "uint256",
          "name": "_period",
          "type": "uint256"
        }
      ],
      "name": "updateIVFeed",
      "outputs": [],
      "stateMutability": "nonpayable",
      "type": "function"
    },
    {
      "inputs": [
        {
          "internalType": "bytes32",
          "name": "_hash",
          "type": "bytes32"
        },
        {
          "internalType": "address",
          "name": "_feed",
          "type": "address"
        }
      ],
      "name": "updatePriceFeed",
      "outputs": [],
      "stateMutability": "nonpayable",
      "type": "function"
    },
    {
      "inputs": [
        {
          "internalType": "bytes32",
          "name": "",
          "type": "bytes32"
        }
      ],
      "name": "validUnderlying",
      "outputs": [
        {
          "internalType": "bool",
          "name": "",
          "type": "bool"
        }
      ],
      "stateMutability": "view",
      "type": "function"
    }
  ],
  "transactionHash": "0x30ef3a6c5896e13940b42f1770ee24114da92edbe5438abc76fb3404ffa24632",
  "args": [],
  "numDeployments": 3,
  "solcInputHash": "1d4d1ef8a595830571c07896a60dd283",
  "bytecode": "0x608060405234801561001057600080fd5b506000805460ff1916905561002433610029565b610082565b600080546001600160a01b03838116610100818102610100600160a81b0319851617855560405193049190911692909183917f8be0079c531659141344cd1fd0a4f28419497f9722a3daafe3b4186f6b6457e091a35050565b6116f1806100916000396000f3fe608060405234801561001057600080fd5b50600436106101735760003560e01c80638da5cb5b116100de578063c81b270111610097578063d8c4683211610071578063d8c468321461038b578063e1ec18c5146103b4578063f2fde38b146103c7578063fd9a6035146103da57600080fd5b8063c81b270114610342578063d21c2b5b14610355578063d7861d861461036857600080fd5b80638da5cb5b146102cd5780639536c1b0146102e35780639f91a782146102f6578063b483324e14610309578063b54279b41461031c578063c2b6cc9d1461032f57600080fd5b806341446b0a1161013057806341446b0a1461024c5780634abfa5701461025f5780635c975abb146102725780635e7e499614610289578063715018a61461029c578063781e98ae146102a457600080fd5b8063059f8b16146101785780631e1f5af91461019457806325d19adf146101a95780633476d36f146101bc57806336964579146101cf5780633806887f14610221575b600080fd5b61018161271081565b6040519081526020015b60405180910390f35b6101a76101a236600461119d565b6103f3565b005b6101a76101b7366004611262565b6104fe565b6101816101ca3660046112c6565b61066a565b6102026101dd3660046112c6565b600260205260009081526040902080546001909101546001600160a01b039091169082565b604080516001600160a01b03909316835260208301919091520161018b565b600154610234906001600160a01b031681565b6040516001600160a01b03909116815260200161018b565b6101a761025a3660046112df565b610715565b6101a761026d36600461133e565b6107b8565b60005460ff165b604051901515815260200161018b565b6101a761029736600461136a565b61082f565b6101a76108cf565b6102346102b23660046112c6565b6005602052600090815260409020546001600160a01b031681565b60005461010090046001600160a01b0316610234565b6101a76102f13660046113c8565b6108e3565b6101a7610304366004611403565b610976565b6101816103173660046112c6565b6109a0565b6101a761032a366004611433565b610a3b565b61018161033d3660046112df565b610aa8565b6101a761035036600461148e565b610ba2565b6101816103633660046114c3565b610c43565b6102796103763660046112c6565b60046020526000908152604090205460ff1681565b6102346103993660046112c6565b6003602052600090815260409020546001600160a01b031681565b6101a76103c23660046112c6565b610db0565b6101a76103d5366004611403565b610e2b565b6101816103e83660046114f1565b805160209091012090565b6103fb610ea9565b610403610eef565b6000818152600560205260408082205490516302d695fb60e61b8152336004820152602481018590526001600160a01b0390911691908190839063b5a57ec09060440160408051808303816000875af1158015610464573d6000803e3d6000fd5b505050506040513d601f19601f820116820180604052508101906104889190611526565b9150915080156104f75760015460405163ae51390160e01b8152336004820152602481018490526001600160a01b039091169063ae51390190604401600060405180830381600087803b1580156104de57600080fd5b505af11580156104f2573d6000803e3d6000fd5b505050505b5050505050565b610506610ea9565b8051602082012061051681610f18565b61051e610eef565b600160009054906101000a90046001600160a01b03166001600160a01b03166356e36c1f6040518163ffffffff1660e01b8152600401602060405180830381865afa158015610571573d6000803e3d6000fd5b505050506040513d601f19601f82011682018060405250810190610595919061155b565b8311156105b5576040516365c5c9e160e01b815260040160405180910390fd5b60006105c0826109a0565b905060006105d2828989898988610aa8565b6000848152600560205260409020549091506001600160a01b03166105fb818a8a8a8a87610f4b565b600154604051631f07a12b60e01b8152336004820152602481018b90526001600160a01b0390911690631f07a12b90604401600060405180830381600087803b15801561064757600080fd5b505af115801561065b573d6000803e3d6000fd5b50505050505050505050505050565b6000818152600260205260408120546001600160a01b0316806106905750600092915050565b600083815260026020526040808220548151633fabe5a360e21b815291516001600160a01b039091169163feaf968c9160048083019260a09291908290030181865afa1580156106e4573d6000803e3d6000fd5b505050506040513d601f19601f820116820180604052508101906107089190611574565b5091979650505050505050565b61071d610f9a565b61072681610f18565b600081815260056020526040908190205490516377e8a8f360e01b815260048101879052602481018890526044810186905260648101859052608481018490526001600160a01b039091169081906377e8a8f39060a401600060405180830381600087803b15801561079757600080fd5b505af11580156107ab573d6000803e3d6000fd5b5050505050505050505050565b6107c0610f9a565b6107c982610f18565b60008281526003602090815260409182902080546001600160a01b0319166001600160a01b0385169081179091558251858152918201527f27a631f806df69f5736e2af408403723bdc58644d3b14bcadfafcc9e44747c3f910160405180910390a15050565b610837610f9a565b825160208401206000906000818152600460205260409020805460ff19166001179055905061086681846107b8565b6000818152600560205260409081902080546001600160a01b0319166001600160a01b038516179055517f2d364d266dfdb94f54c67aa2fc29bf4f168bdb4637f392f5be7c7a0558e00f5d906108c1908690849086906115cc565b60405180910390a150505050565b6108d7610f9a565b6108e16000610ffa565b565b6108eb610f9a565b6000858152600560205260409081902054905163633557df60e01b8152600481018690526024810185905260448101849052606481018390526001600160a01b0390911690819063633557df906084015b600060405180830381600087803b15801561095657600080fd5b505af115801561096a573d6000803e3d6000fd5b50505050505050505050565b61097e610f9a565b600180546001600160a01b0319166001600160a01b0392909216919091179055565b60008181526003602052604081205481906001600160a01b0316806109c9575060009392505050565b6000816001600160a01b031663feaf968c6040518163ffffffff1660e01b815260040160a060405180830381865afa158015610a09573d6000803e3d6000fd5b505050506040513d601f19601f82011682018060405250810190610a2d9190611574565b509198975050505050505050565b610a43610ea9565b81516020830120610a5381610f18565b6000610a60828685610c43565b60008381526005602052604090819020549051637b5d7eb760e01b815260048101889052602481018390529192506001600160a01b0316908190637b5d7eb79060440161093c565b600080610ab48361066a565b905080600003610ac8576000915050610b98565b600083815260026020526040812060010154730D2fBA26620008B39c1307c8e86bA4EE14cC4bFF9063ea75fe3b90899089908d908790610b088c42611053565b6040516001600160e01b031960e089901b1681526004810196909652602486019490945260448501929092526064840152608483015260a482015260c401602060405180830381865af4158015610b63573d6000803e3d6000fd5b505050506040513d601f19601f82011682018060405250810190610b87919061155b565b9050610b938882611068565b925050505b9695505050505050565b610baa610f9a565b610bb383610f18565b6040805180820182526001600160a01b038481168083526020808401868152600089815260028352869020945185546001600160a01b031916941693909317845591516001909301929092558251868152908101919091529081018290527fbb4dc1f858dc4ab6018e947383bf61056ed4464166a78c05fb59d69c53f3f4b29060600160405180910390a1505050565b60008381526003602052604081205481906001600160a01b031615801590610c6b5750834210155b15610da857600085815260036020526040808220548151633fabe5a360e21b815291516001600160a01b03909116929182918291859163feaf968c9160048082019260a0929091908290030181865afa158015610ccc573d6000803e3d6000fd5b505050506040513d601f19601f82011682018060405250810190610cf09190611574565b5093505092509250610d058888858488611080565b866001600160501b0316836001600160501b031603610d2657819450610da3565b604051639a6fc8f560e01b81526001600160501b03881660048201526000906001600160a01b03861690639a6fc8f59060240160a060405180830381865afa158015610d76573d6000803e3d6000fd5b505050506040513d601f19601f82011682018060405250810190610d9a9190611574565b50919850505050505b505050505b949350505050565b610db8610ea9565b610dc181610f18565b6000818152600560205260408082205481516319b5649d60e01b815291516001600160a01b039091169283926319b5649d926004808301939282900301818387803b158015610e0f57600080fd5b505af1158015610e23573d6000803e3d6000fd5b505050505050565b610e33610f9a565b6001600160a01b038116610e9d5760405162461bcd60e51b815260206004820152602660248201527f4f776e61626c653a206e6577206f776e657220697320746865207a65726f206160448201526564647265737360d01b60648201526084015b60405180910390fd5b610ea681610ffa565b50565b60005460ff16156108e15760405162461bcd60e51b815260206004820152601060248201526f14185d5cd8589b194e881c185d5cd95960821b6044820152606401610e94565b6001546001600160a01b03166108e157604051636b08325b60e01b815260040160405180910390fd5b60008181526004602052604081205460ff1615159003610ea6576040516333cb97ff60e11b815260040160405180910390fd5b60405163730cb65160e01b81523360048201526024810186905260448101859052606481018490526084810183905260a481018290526001600160a01b0387169063730cb6519060c40161093c565b6000546001600160a01b036101009091041633146108e15760405162461bcd60e51b815260206004820181905260248201527f4f776e61626c653a2063616c6c6572206973206e6f7420746865206f776e65726044820152606401610e94565b600080546001600160a01b03838116610100818102610100600160a81b0319851617855560405193049190911692909183917f8be0079c531659141344cd1fd0a4f28419497f9722a3daafe3b4186f6b6457e091a35050565b600061105f8284611648565b90505b92915050565b600061105f8261107a85612710611185565b90611191565b60016001600160501b03808516908616111561109a575060005b836001600160501b0316856001600160501b031610156111435760006001600160a01b038316639a6fc8f56110d088600161165b565b6040516001600160e01b031960e084901b1681526001600160501b03909116600482015260240160a060405180830381865afa158015611114573d6000803e3d6000fd5b505050506040513d601f19601f820116820180604052508101906111389190611574565b508a11159450505050505b836001600160501b0316856001600160501b0316036111625750848211155b801515600003610e23576040516309f274a160e01b815260040160405180910390fd5b600061105f8284611682565b600061105f8284611699565b600080604083850312156111b057600080fd5b50508035926020909101359150565b634e487b7160e01b600052604160045260246000fd5b600082601f8301126111e657600080fd5b813567ffffffffffffffff80821115611201576112016111bf565b604051601f8301601f19908116603f01168101908282118183101715611229576112296111bf565b8160405283815286602085880101111561124257600080fd5b836020870160208301376000602085830101528094505050505092915050565b600080600080600060a0868803121561127a57600080fd5b85359450602086013593506040860135925060608601359150608086013567ffffffffffffffff8111156112ad57600080fd5b6112b9888289016111d5565b9150509295509295909350565b6000602082840312156112d857600080fd5b5035919050565b60008060008060008060c087890312156112f857600080fd5b505084359660208601359650604086013595606081013595506080810135945060a0013592509050565b80356001600160a01b038116811461133957600080fd5b919050565b6000806040838503121561135157600080fd5b8235915061136160208401611322565b90509250929050565b60008060006060848603121561137f57600080fd5b833567ffffffffffffffff81111561139657600080fd5b6113a2868287016111d5565b9350506113b160208501611322565b91506113bf60408501611322565b90509250925092565b600080600080600060a086880312156113e057600080fd5b505083359560208501359550604085013594606081013594506080013592509050565b60006020828403121561141557600080fd5b61105f82611322565b6001600160501b0381168114610ea657600080fd5b60008060006060848603121561144857600080fd5b83359250602084013567ffffffffffffffff81111561146657600080fd5b611472868287016111d5565b92505060408401356114838161141e565b809150509250925092565b6000806000606084860312156114a357600080fd5b833592506114b360208501611322565b9150604084013590509250925092565b6000806000606084860312156114d857600080fd5b833592506020840135915060408401356114838161141e565b60006020828403121561150357600080fd5b813567ffffffffffffffff81111561151a57600080fd5b610da8848285016111d5565b6000806040838503121561153957600080fd5b825191506020830151801515811461155057600080fd5b809150509250929050565b60006020828403121561156d57600080fd5b5051919050565b600080600080600060a0868803121561158c57600080fd5b85516115978161141e565b8095505060208601519350604086015192506060860151915060808601516115be8161141e565b809150509295509295909350565b606081526000845180606084015260005b818110156115fa57602081880181015160808684010152016115dd565b506000608082850181019190915260208401959095526001600160a01b0393909316604083015250601f909101601f19160101919050565b634e487b7160e01b600052601160045260246000fd5b8181038181111561106257611062611632565b6001600160501b0381811683821601908082111561167b5761167b611632565b5092915050565b808202811582820484141761106257611062611632565b6000826116b657634e487b7160e01b600052601260045260246000fd5b50049056fea26469706673582212206ce50922d7e2095a7ac6c97f9f1ee8b1df5f3e9fdb5662171e8b0fb6e5844cc164736f6c63430008130033",
  "deployedBytecode": "0x608060405234801561001057600080fd5b50600436106101735760003560e01c80638da5cb5b116100de578063c81b270111610097578063d8c4683211610071578063d8c468321461038b578063e1ec18c5146103b4578063f2fde38b146103c7578063fd9a6035146103da57600080fd5b8063c81b270114610342578063d21c2b5b14610355578063d7861d861461036857600080fd5b80638da5cb5b146102cd5780639536c1b0146102e35780639f91a782146102f6578063b483324e14610309578063b54279b41461031c578063c2b6cc9d1461032f57600080fd5b806341446b0a1161013057806341446b0a1461024c5780634abfa5701461025f5780635c975abb146102725780635e7e499614610289578063715018a61461029c578063781e98ae146102a457600080fd5b8063059f8b16146101785780631e1f5af91461019457806325d19adf146101a95780633476d36f146101bc57806336964579146101cf5780633806887f14610221575b600080fd5b61018161271081565b6040519081526020015b60405180910390f35b6101a76101a236600461119d565b6103f3565b005b6101a76101b7366004611262565b6104fe565b6101816101ca3660046112c6565b61066a565b6102026101dd3660046112c6565b600260205260009081526040902080546001909101546001600160a01b039091169082565b604080516001600160a01b03909316835260208301919091520161018b565b600154610234906001600160a01b031681565b6040516001600160a01b03909116815260200161018b565b6101a761025a3660046112df565b610715565b6101a761026d36600461133e565b6107b8565b60005460ff165b604051901515815260200161018b565b6101a761029736600461136a565b61082f565b6101a76108cf565b6102346102b23660046112c6565b6005602052600090815260409020546001600160a01b031681565b60005461010090046001600160a01b0316610234565b6101a76102f13660046113c8565b6108e3565b6101a7610304366004611403565b610976565b6101816103173660046112c6565b6109a0565b6101a761032a366004611433565b610a3b565b61018161033d3660046112df565b610aa8565b6101a761035036600461148e565b610ba2565b6101816103633660046114c3565b610c43565b6102796103763660046112c6565b60046020526000908152604090205460ff1681565b6102346103993660046112c6565b6003602052600090815260409020546001600160a01b031681565b6101a76103c23660046112c6565b610db0565b6101a76103d5366004611403565b610e2b565b6101816103e83660046114f1565b805160209091012090565b6103fb610ea9565b610403610eef565b6000818152600560205260408082205490516302d695fb60e61b8152336004820152602481018590526001600160a01b0390911691908190839063b5a57ec09060440160408051808303816000875af1158015610464573d6000803e3d6000fd5b505050506040513d601f19601f820116820180604052508101906104889190611526565b9150915080156104f75760015460405163ae51390160e01b8152336004820152602481018490526001600160a01b039091169063ae51390190604401600060405180830381600087803b1580156104de57600080fd5b505af11580156104f2573d6000803e3d6000fd5b505050505b5050505050565b610506610ea9565b8051602082012061051681610f18565b61051e610eef565b600160009054906101000a90046001600160a01b03166001600160a01b03166356e36c1f6040518163ffffffff1660e01b8152600401602060405180830381865afa158015610571573d6000803e3d6000fd5b505050506040513d601f19601f82011682018060405250810190610595919061155b565b8311156105b5576040516365c5c9e160e01b815260040160405180910390fd5b60006105c0826109a0565b905060006105d2828989898988610aa8565b6000848152600560205260409020549091506001600160a01b03166105fb818a8a8a8a87610f4b565b600154604051631f07a12b60e01b8152336004820152602481018b90526001600160a01b0390911690631f07a12b90604401600060405180830381600087803b15801561064757600080fd5b505af115801561065b573d6000803e3d6000fd5b50505050505050505050505050565b6000818152600260205260408120546001600160a01b0316806106905750600092915050565b600083815260026020526040808220548151633fabe5a360e21b815291516001600160a01b039091169163feaf968c9160048083019260a09291908290030181865afa1580156106e4573d6000803e3d6000fd5b505050506040513d601f19601f820116820180604052508101906107089190611574565b5091979650505050505050565b61071d610f9a565b61072681610f18565b600081815260056020526040908190205490516377e8a8f360e01b815260048101879052602481018890526044810186905260648101859052608481018490526001600160a01b039091169081906377e8a8f39060a401600060405180830381600087803b15801561079757600080fd5b505af11580156107ab573d6000803e3d6000fd5b5050505050505050505050565b6107c0610f9a565b6107c982610f18565b60008281526003602090815260409182902080546001600160a01b0319166001600160a01b0385169081179091558251858152918201527f27a631f806df69f5736e2af408403723bdc58644d3b14bcadfafcc9e44747c3f910160405180910390a15050565b610837610f9a565b825160208401206000906000818152600460205260409020805460ff19166001179055905061086681846107b8565b6000818152600560205260409081902080546001600160a01b0319166001600160a01b038516179055517f2d364d266dfdb94f54c67aa2fc29bf4f168bdb4637f392f5be7c7a0558e00f5d906108c1908690849086906115cc565b60405180910390a150505050565b6108d7610f9a565b6108e16000610ffa565b565b6108eb610f9a565b6000858152600560205260409081902054905163633557df60e01b8152600481018690526024810185905260448101849052606481018390526001600160a01b0390911690819063633557df906084015b600060405180830381600087803b15801561095657600080fd5b505af115801561096a573d6000803e3d6000fd5b50505050505050505050565b61097e610f9a565b600180546001600160a01b0319166001600160a01b0392909216919091179055565b60008181526003602052604081205481906001600160a01b0316806109c9575060009392505050565b6000816001600160a01b031663feaf968c6040518163ffffffff1660e01b815260040160a060405180830381865afa158015610a09573d6000803e3d6000fd5b505050506040513d601f19601f82011682018060405250810190610a2d9190611574565b509198975050505050505050565b610a43610ea9565b81516020830120610a5381610f18565b6000610a60828685610c43565b60008381526005602052604090819020549051637b5d7eb760e01b815260048101889052602481018390529192506001600160a01b0316908190637b5d7eb79060440161093c565b600080610ab48361066a565b905080600003610ac8576000915050610b98565b60008381526002602052604081206001015473__$d7ba7d45ee7cd978cea25afdbab6ba0e5b$__9063ea75fe3b90899089908d908790610b088c42611053565b6040516001600160e01b031960e089901b1681526004810196909652602486019490945260448501929092526064840152608483015260a482015260c401602060405180830381865af4158015610b63573d6000803e3d6000fd5b505050506040513d601f19601f82011682018060405250810190610b87919061155b565b9050610b938882611068565b925050505b9695505050505050565b610baa610f9a565b610bb383610f18565b6040805180820182526001600160a01b038481168083526020808401868152600089815260028352869020945185546001600160a01b031916941693909317845591516001909301929092558251868152908101919091529081018290527fbb4dc1f858dc4ab6018e947383bf61056ed4464166a78c05fb59d69c53f3f4b29060600160405180910390a1505050565b60008381526003602052604081205481906001600160a01b031615801590610c6b5750834210155b15610da857600085815260036020526040808220548151633fabe5a360e21b815291516001600160a01b03909116929182918291859163feaf968c9160048082019260a0929091908290030181865afa158015610ccc573d6000803e3d6000fd5b505050506040513d601f19601f82011682018060405250810190610cf09190611574565b5093505092509250610d058888858488611080565b866001600160501b0316836001600160501b031603610d2657819450610da3565b604051639a6fc8f560e01b81526001600160501b03881660048201526000906001600160a01b03861690639a6fc8f59060240160a060405180830381865afa158015610d76573d6000803e3d6000fd5b505050506040513d601f19601f82011682018060405250810190610d9a9190611574565b50919850505050505b505050505b949350505050565b610db8610ea9565b610dc181610f18565b6000818152600560205260408082205481516319b5649d60e01b815291516001600160a01b039091169283926319b5649d926004808301939282900301818387803b158015610e0f57600080fd5b505af1158015610e23573d6000803e3d6000fd5b505050505050565b610e33610f9a565b6001600160a01b038116610e9d5760405162461bcd60e51b815260206004820152602660248201527f4f776e61626c653a206e6577206f776e657220697320746865207a65726f206160448201526564647265737360d01b60648201526084015b60405180910390fd5b610ea681610ffa565b50565b60005460ff16156108e15760405162461bcd60e51b815260206004820152601060248201526f14185d5cd8589b194e881c185d5cd95960821b6044820152606401610e94565b6001546001600160a01b03166108e157604051636b08325b60e01b815260040160405180910390fd5b60008181526004602052604081205460ff1615159003610ea6576040516333cb97ff60e11b815260040160405180910390fd5b60405163730cb65160e01b81523360048201526024810186905260448101859052606481018490526084810183905260a481018290526001600160a01b0387169063730cb6519060c40161093c565b6000546001600160a01b036101009091041633146108e15760405162461bcd60e51b815260206004820181905260248201527f4f776e61626c653a2063616c6c6572206973206e6f7420746865206f776e65726044820152606401610e94565b600080546001600160a01b03838116610100818102610100600160a81b0319851617855560405193049190911692909183917f8be0079c531659141344cd1fd0a4f28419497f9722a3daafe3b4186f6b6457e091a35050565b600061105f8284611648565b90505b92915050565b600061105f8261107a85612710611185565b90611191565b60016001600160501b03808516908616111561109a575060005b836001600160501b0316856001600160501b031610156111435760006001600160a01b038316639a6fc8f56110d088600161165b565b6040516001600160e01b031960e084901b1681526001600160501b03909116600482015260240160a060405180830381865afa158015611114573d6000803e3d6000fd5b505050506040513d601f19601f820116820180604052508101906111389190611574565b508a11159450505050505b836001600160501b0316856001600160501b0316036111625750848211155b801515600003610e23576040516309f274a160e01b815260040160405180910390fd5b600061105f8284611682565b600061105f8284611699565b600080604083850312156111b057600080fd5b50508035926020909101359150565b634e487b7160e01b600052604160045260246000fd5b600082601f8301126111e657600080fd5b813567ffffffffffffffff80821115611201576112016111bf565b604051601f8301601f19908116603f01168101908282118183101715611229576112296111bf565b8160405283815286602085880101111561124257600080fd5b836020870160208301376000602085830101528094505050505092915050565b600080600080600060a0868803121561127a57600080fd5b85359450602086013593506040860135925060608601359150608086013567ffffffffffffffff8111156112ad57600080fd5b6112b9888289016111d5565b9150509295509295909350565b6000602082840312156112d857600080fd5b5035919050565b60008060008060008060c087890312156112f857600080fd5b505084359660208601359650604086013595606081013595506080810135945060a0013592509050565b80356001600160a01b038116811461133957600080fd5b919050565b6000806040838503121561135157600080fd5b8235915061136160208401611322565b90509250929050565b60008060006060848603121561137f57600080fd5b833567ffffffffffffffff81111561139657600080fd5b6113a2868287016111d5565b9350506113b160208501611322565b91506113bf60408501611322565b90509250925092565b600080600080600060a086880312156113e057600080fd5b505083359560208501359550604085013594606081013594506080013592509050565b60006020828403121561141557600080fd5b61105f82611322565b6001600160501b0381168114610ea657600080fd5b60008060006060848603121561144857600080fd5b83359250602084013567ffffffffffffffff81111561146657600080fd5b611472868287016111d5565b92505060408401356114838161141e565b809150509250925092565b6000806000606084860312156114a357600080fd5b833592506114b360208501611322565b9150604084013590509250925092565b6000806000606084860312156114d857600080fd5b833592506020840135915060408401356114838161141e565b60006020828403121561150357600080fd5b813567ffffffffffffffff81111561151a57600080fd5b610da8848285016111d5565b6000806040838503121561153957600080fd5b825191506020830151801515811461155057600080fd5b809150509250929050565b60006020828403121561156d57600080fd5b5051919050565b600080600080600060a0868803121561158c57600080fd5b85516115978161141e565b8095505060208601519350604086015192506060860151915060808601516115be8161141e565b809150509295509295909350565b606081526000845180606084015260005b818110156115fa57602081880181015160808684010152016115dd565b506000608082850181019190915260208401959095526001600160a01b0393909316604083015250601f909101601f19160101919050565b634e487b7160e01b600052601160045260246000fd5b8181038181111561106257611062611632565b6001600160501b0381811683821601908082111561167b5761167b611632565b5092915050565b808202811582820484141761106257611062611632565b6000826116b657634e487b7160e01b600052601260045260246000fd5b50049056fea26469706673582212206ce50922d7e2095a7ac6c97f9f1ee8b1df5f3e9fdb5662171e8b0fb6e5844cc164736f6c63430008130033",
  "libraries": {
    "MathLibraryDefibets": "0x0D2fBA26620008B39c1307c8e86bA4EE14cC4bFF"
  },
  "devdoc": {
    "events": {
      "Paused(address)": {
        "details": "Emitted when the pause is triggered by `account`."
      },
      "Unpaused(address)": {
        "details": "Emitted when the pause is lifted by `account`."
      }
    },
    "kind": "dev",
    "methods": {
      "claimWinnings(uint256,bytes32)": {
        "details": "Claims the winnings for a user based on a specified token ID and underlying asset hash.",
        "params": {
          "_hash": "The hash of the underlying asset for the bet.",
          "_tokenId": "The token ID representing the bet."
        }
      },
      "executeExpiration(uint256,string,uint80)": {
        "details": "Executes the expiration of a bet based on the specified expiration time and underlying asset.",
        "params": {
          "_expTime": "The expiration time of the bet.",
          "_roundId": "The round id for a valid price of the underlying",
          "_underlying": "The underlying asset for the bet."
        }
      },
      "owner()": {
        "details": "Returns the address of the current owner."
      },
      "paused()": {
        "details": "Returns true if the contract is paused, and false otherwise."
      },
      "renounceOwnership()": {
        "details": "Leaves the contract without owner. It will not be possible to call `onlyOwner` functions. Can only be called by the current owner. NOTE: Renouncing ownership will leave the contract without an owner, thereby disabling any functionality that is only available to the owner."
      },
      "setBet(uint256,uint256,uint256,uint256,string)": {
        "details": "Sets a bet for a user in the decentralized betting platform.",
        "params": {
          "_betSize": "The size of the bet.",
          "_expTime": "The expiration time for the bet.",
          "_maxPrice": "The maximum price for the bet.",
          "_minPrice": "The minimum price for the bet.",
          "_underlying": "The underlying asset for the bet."
        }
      },
      "transferOwnership(address)": {
        "details": "Transfers ownership of the contract to a new account (`newOwner`). Can only be called by the current owner."
      }
    },
    "title": "DefiBets Manager Contract",
    "version": 1
  },
  "userdoc": {
    "kind": "user",
    "methods": {},
    "notice": "This contract controls the main functions of the protocol, allowing users to interact with the decentralized betting platform. It manages liquidity, bets, winnings, and expiration of bets.",
    "version": 1
  },
  "storageLayout": {
    "storage": [
      {
        "astId": 176,
        "contract": "src/core/DefiBetsManager.sol:DefiBetsManager",
        "label": "_paused",
        "offset": 0,
        "slot": "0",
        "type": "t_bool"
      },
      {
        "astId": 53,
        "contract": "src/core/DefiBetsManager.sol:DefiBetsManager",
        "label": "_owner",
        "offset": 1,
        "slot": "0",
        "type": "t_address"
      },
      {
        "astId": 4363,
        "contract": "src/core/DefiBetsManager.sol:DefiBetsManager",
        "label": "pointTracker",
        "offset": 0,
        "slot": "1",
        "type": "t_address"
      },
      {
        "astId": 4368,
        "contract": "src/core/DefiBetsManager.sol:DefiBetsManager",
        "label": "underlyingIVFeeds",
        "offset": 0,
        "slot": "2",
        "type": "t_mapping(t_bytes32,t_struct(IVFeed)4358_storage)"
      },
      {
        "astId": 4372,
        "contract": "src/core/DefiBetsManager.sol:DefiBetsManager",
        "label": "underlyingPriceFeeds",
        "offset": 0,
        "slot": "3",
        "type": "t_mapping(t_bytes32,t_address)"
      },
      {
        "astId": 4376,
        "contract": "src/core/DefiBetsManager.sol:DefiBetsManager",
        "label": "validUnderlying",
        "offset": 0,
        "slot": "4",
        "type": "t_mapping(t_bytes32,t_bool)"
      },
      {
        "astId": 4380,
        "contract": "src/core/DefiBetsManager.sol:DefiBetsManager",
        "label": "defiBetsContracts",
        "offset": 0,
        "slot": "5",
        "type": "t_mapping(t_bytes32,t_address)"
      }
    ],
    "types": {
      "t_address": {
        "encoding": "inplace",
        "label": "address",
        "numberOfBytes": "20"
      },
      "t_bool": {
        "encoding": "inplace",
        "label": "bool",
        "numberOfBytes": "1"
      },
      "t_bytes32": {
        "encoding": "inplace",
        "label": "bytes32",
        "numberOfBytes": "32"
      },
      "t_mapping(t_bytes32,t_address)": {
        "encoding": "mapping",
        "key": "t_bytes32",
        "label": "mapping(bytes32 => address)",
        "numberOfBytes": "32",
        "value": "t_address"
      },
      "t_mapping(t_bytes32,t_bool)": {
        "encoding": "mapping",
        "key": "t_bytes32",
        "label": "mapping(bytes32 => bool)",
        "numberOfBytes": "32",
        "value": "t_bool"
      },
      "t_mapping(t_bytes32,t_struct(IVFeed)4358_storage)": {
        "encoding": "mapping",
        "key": "t_bytes32",
        "label": "mapping(bytes32 => struct DefiBetsManager.IVFeed)",
        "numberOfBytes": "32",
        "value": "t_struct(IVFeed)4358_storage"
      },
      "t_struct(IVFeed)4358_storage": {
        "encoding": "inplace",
        "label": "struct DefiBetsManager.IVFeed",
        "members": [
          {
            "astId": 4355,
            "contract": "src/core/DefiBetsManager.sol:DefiBetsManager",
            "label": "feedAddress",
            "offset": 0,
            "slot": "0",
            "type": "t_address"
          },
          {
            "astId": 4357,
            "contract": "src/core/DefiBetsManager.sol:DefiBetsManager",
            "label": "period",
            "offset": 0,
            "slot": "1",
            "type": "t_uint256"
          }
        ],
        "numberOfBytes": "64"
      },
      "t_uint256": {
        "encoding": "inplace",
        "label": "uint256",
        "numberOfBytes": "32"
      }
    }
  }
}