{
  "address": "0x31674B173f9b853212857237d35Cc03A3CFbd80A",
  "abi": [
    {
      "inputs": [
        {
          "internalType": "address",
          "name": "_manager",
          "type": "address"
        },
        {
          "internalType": "uint256",
          "name": "startingPoints",
          "type": "uint256"
        }
      ],
      "stateMutability": "nonpayable",
      "type": "constructor"
    },
    {
      "inputs": [],
      "name": "PointTracker__AccessForbidden",
      "type": "error"
    },
    {
      "inputs": [],
      "name": "PointTracker__AccountAlreadyActivated",
      "type": "error"
    },
    {
      "inputs": [],
      "name": "PointTracker__AccountNotEligible",
      "type": "error"
    },
    {
      "inputs": [],
      "name": "PointTracker__NotEndOfSeasonReached",
      "type": "error"
    },
    {
      "inputs": [],
      "name": "PointTracker__NotEnoughPoints",
      "type": "error"
    },
    {
      "inputs": [],
      "name": "PointTracker__PlayerNotActive",
      "type": "error"
    },
    {
      "inputs": [],
      "name": "PointTracker__SeasonIsActive",
      "type": "error"
    },
    {
      "inputs": [],
      "name": "PointTracker__SeasonIsNotActive",
      "type": "error"
    },
    {
      "inputs": [],
      "name": "PointTracker__SeasonOutOfBounds",
      "type": "error"
    },
    {
      "anonymous": false,
      "inputs": [
        {
          "indexed": true,
          "internalType": "address",
          "name": "player",
          "type": "address"
        },
        {
          "indexed": false,
          "internalType": "uint256",
          "name": "season",
          "type": "uint256"
        }
      ],
      "name": "AccountActivation",
      "type": "event"
    },
    {
      "anonymous": false,
      "inputs": [
        {
          "indexed": true,
          "internalType": "address",
          "name": "previousOwner",
          "type": "address"
        },
        {
          "indexed": true,
          "internalType": "address",
          "name": "newOwner",
          "type": "address"
        }
      ],
      "name": "OwnershipTransferred",
      "type": "event"
    },
    {
      "anonymous": false,
      "inputs": [
        {
          "indexed": true,
          "internalType": "address",
          "name": "player",
          "type": "address"
        },
        {
          "indexed": false,
          "internalType": "uint256",
          "name": "pointsAdded",
          "type": "uint256"
        },
        {
          "indexed": false,
          "internalType": "uint256",
          "name": "newScore",
          "type": "uint256"
        }
      ],
      "name": "PointsAdded",
      "type": "event"
    },
    {
      "anonymous": false,
      "inputs": [
        {
          "indexed": true,
          "internalType": "address",
          "name": "player",
          "type": "address"
        },
        {
          "indexed": false,
          "internalType": "uint256",
          "name": "pointsRemoved",
          "type": "uint256"
        },
        {
          "indexed": false,
          "internalType": "uint256",
          "name": "newScore",
          "type": "uint256"
        }
      ],
      "name": "PointsRemoved",
      "type": "event"
    },
    {
      "anonymous": false,
      "inputs": [
        {
          "indexed": false,
          "internalType": "uint256",
          "name": "season",
          "type": "uint256"
        }
      ],
      "name": "SeasonFinished",
      "type": "event"
    },
    {
      "anonymous": false,
      "inputs": [
        {
          "indexed": false,
          "internalType": "uint256",
          "name": "season",
          "type": "uint256"
        }
      ],
      "name": "SeasonStarted",
      "type": "event"
    },
    {
      "inputs": [],
      "name": "MINIMUM_DFI_AMOUNT",
      "outputs": [
        {
          "internalType": "uint256",
          "name": "",
          "type": "uint256"
        }
      ],
      "stateMutability": "view",
      "type": "function"
    },
    {
      "inputs": [],
      "name": "activateAccount",
      "outputs": [],
      "stateMutability": "nonpayable",
      "type": "function"
    },
    {
      "inputs": [
        {
          "internalType": "address",
          "name": "_player",
          "type": "address"
        },
        {
          "internalType": "uint256",
          "name": "_points",
          "type": "uint256"
        }
      ],
      "name": "addPointsForPlayer",
      "outputs": [],
      "stateMutability": "nonpayable",
      "type": "function"
    },
    {
      "inputs": [],
      "name": "finishSeason",
      "outputs": [],
      "stateMutability": "nonpayable",
      "type": "function"
    },
    {
      "inputs": [],
      "name": "getLatestSeason",
      "outputs": [
        {
          "internalType": "uint256",
          "name": "",
          "type": "uint256"
        }
      ],
      "stateMutability": "view",
      "type": "function"
    },
    {
      "inputs": [],
      "name": "getManager",
      "outputs": [
        {
          "internalType": "address",
          "name": "",
          "type": "address"
        }
      ],
      "stateMutability": "view",
      "type": "function"
    },
    {
      "inputs": [
        {
          "internalType": "uint256",
          "name": "_season",
          "type": "uint256"
        },
        {
          "internalType": "address",
          "name": "_player",
          "type": "address"
        }
      ],
      "name": "getPlayerPoints",
      "outputs": [
        {
          "internalType": "uint256",
          "name": "",
          "type": "uint256"
        }
      ],
      "stateMutability": "view",
      "type": "function"
    },
    {
      "inputs": [],
      "name": "getSeasonEndDate",
      "outputs": [
        {
          "internalType": "uint256",
          "name": "",
          "type": "uint256"
        }
      ],
      "stateMutability": "view",
      "type": "function"
    },
    {
      "inputs": [],
      "name": "i_startingPoints",
      "outputs": [
        {
          "internalType": "uint256",
          "name": "",
          "type": "uint256"
        }
      ],
      "stateMutability": "view",
      "type": "function"
    },
    {
      "inputs": [
        {
          "internalType": "uint256",
          "name": "_season",
          "type": "uint256"
        },
        {
          "internalType": "address",
          "name": "_player",
          "type": "address"
        }
      ],
      "name": "isAccountActive",
      "outputs": [
        {
          "internalType": "bool",
          "name": "",
          "type": "bool"
        }
      ],
      "stateMutability": "view",
      "type": "function"
    },
    {
      "inputs": [],
      "name": "owner",
      "outputs": [
        {
          "internalType": "address",
          "name": "",
          "type": "address"
        }
      ],
      "stateMutability": "view",
      "type": "function"
    },
    {
      "inputs": [
        {
          "internalType": "address",
          "name": "_player",
          "type": "address"
        },
        {
          "internalType": "uint256",
          "name": "_points",
          "type": "uint256"
        }
      ],
      "name": "reducePointsForPlayer",
      "outputs": [],
      "stateMutability": "nonpayable",
      "type": "function"
    },
    {
      "inputs": [],
      "name": "renounceOwnership",
      "outputs": [],
      "stateMutability": "nonpayable",
      "type": "function"
    },
    {
      "inputs": [
        {
          "internalType": "uint256",
          "name": "_endOfSeason",
          "type": "uint256"
        }
      ],
      "name": "startSeason",
      "outputs": [],
      "stateMutability": "nonpayable",
      "type": "function"
    },
    {
      "inputs": [
        {
          "internalType": "address",
          "name": "newOwner",
          "type": "address"
        }
      ],
      "name": "transferOwnership",
      "outputs": [],
      "stateMutability": "nonpayable",
      "type": "function"
    }
  ],
  "transactionHash": "0xa76fac3f6a8653adc9da9875438718024f11e17801c474ceea00febecb57c0d6",
  "args": [
    "0x7A56cAf5C64114B23e646e04da7426557c306759",
    1000
  ],
  "numDeployments": 8,
  "solcInputHash": "085bdc8dbbe6516b02dd8e20f0a367b5",
  "bytecode": "0x60a060405234801561001057600080fd5b50604051610adf380380610adf83398101604081905261002f916100b1565b61003833610061565b600180546001600160a01b0319166001600160a01b0393909316929092179091556080526100eb565b600080546001600160a01b038381166001600160a01b0319831681178455604051919092169283917f8be0079c531659141344cd1fd0a4f28419497f9722a3daafe3b4186f6b6457e09190a35050565b600080604083850312156100c457600080fd5b82516001600160a01b03811681146100db57600080fd5b6020939093015192949293505050565b6080516109d261010d6000396000818161011401526104c401526109d26000f3fe608060405234801561001057600080fd5b50600436106100f55760003560e01c8063715018a611610097578063d500958411610066578063d5009584146101cf578063e0abfabc146101e0578063ea6296e414610229578063f2fde38b1461023857600080fd5b8063715018a6146101875780638da5cb5b1461018f578063ae513901146101b4578063bb68ab94146101c757600080fd5b806353fb1cd2116100d357806353fb1cd21461015157806356e36c1f146101645780636f26f7d81461016c578063703dbfe41461017457600080fd5b80631f07a12b146100fa5780632b5d482c1461010f5780633212160014610149575b600080fd5b61010d6101083660046108b6565b61024b565b005b6101367f000000000000000000000000000000000000000000000000000000000000000081565b6040519081526020015b60405180910390f35b61010d61032a565b61013661015f3660046108e0565b6103bf565b600354610136565b61010d61040f565b61010d61018236600461090c565b610542565b61010d6105d2565b6000546001600160a01b03165b6040516001600160a01b039091168152602001610140565b61010d6101c23660046108b6565b6105e6565b600254610136565b6001546001600160a01b031661019c565b6102196101ee3660046108e0565b60009182526006602090815260408084206001600160a01b0393909316845291905290205460ff1690565b6040519015158152602001610140565b61013667016345785d8a000081565b61010d610246366004610925565b6106b3565b60045460ff16151560000361027357604051639238013b60e01b815260040160405180910390fd5b61027b610731565b6102848261075c565b61028e82826107a6565b60025460009081526005602090815260408083206001600160a01b0386168452909152812080548392906102c390849061095d565b909155505060025460009081526005602090815260408083206001600160a01b03861680855290835292819020548151858152928301527f2b58a342147e52cafbfa184a8d6a3583ffe7664f958cdf1c00af5cf9c02ccb4691015b60405180910390a25050565b6103326107f0565b60045460ff16151560000361035a57604051639238013b60e01b815260040160405180910390fd5b60035442101561037d5760405163e3e6e8ff60e01b815260040160405180910390fd5b6004805460ff191690556002546040519081527f4233cabd0860c720cda964bd3080f63f47e4e85fd50fc062fa13daa309fa3a9d9060200160405180910390a1565b60006002548311156103e4576040516339ff63d960e21b815260040160405180910390fd5b5060008281526005602090815260408083206001600160a01b03851684529091529020545b92915050565b60045460ff16151560000361043757604051639238013b60e01b815260040160405180910390fd5b600254600090815260066020908152604080832033845290915290205460ff1615156001036104795760405163610cb88b60e01b815260040160405180910390fd5b67016345785d8a0000333110156104a35760405163afab280b60e01b815260040160405180910390fd5b600280546000908152600560209081526040808320338085529083528184207f00000000000000000000000000000000000000000000000000000000000000009055845484526006835281842081855290925291829020805460ff19166001179055915490517f1c7b9bb5427e707318fed580d5afbc7fbd2c7ec45e5e44f1d78a82db5d57fae4916105389190815260200190565b60405180910390a2565b61054a6107f0565b60045460ff16151560010361057257604051633bf59b2760e11b815260040160405180910390fd5b6004805460ff191660011790556002805490600061058f83610970565b909155505060038190556002546040519081527fe2046d333900871694b2fb421975b907ac5d93052201a0e259fa0664d9dbdf1d9060200160405180910390a150565b6105da6107f0565b6105e4600061084a565b565b60045460ff16151560000361060e57604051639238013b60e01b815260040160405180910390fd5b610616610731565b61061f8261075c565b60025460009081526005602090815260408083206001600160a01b038616845290915281208054839290610654908490610989565b909155505060025460009081526005602090815260408083206001600160a01b03861680855290835292819020548151858152928301527f27909057bad6ce6fc50ecea73759a0da1ec7790bbb0144577bf31372a78b3e64910161031e565b6106bb6107f0565b6001600160a01b0381166107255760405162461bcd60e51b815260206004820152602660248201527f4f776e61626c653a206e6577206f776e657220697320746865207a65726f206160448201526564647265737360d01b60648201526084015b60405180910390fd5b61072e8161084a565b50565b6001546001600160a01b031633146105e457604051637a8c758960e11b815260040160405180910390fd5b60025460009081526006602090815260408083206001600160a01b038516845290915281205460ff161515900361072e57604051639f284f7d60e01b815260040160405180910390fd5b60025460009081526005602090815260408083206001600160a01b03861684529091529020548111156107ec5760405163048b40c960e51b815260040160405180910390fd5b5050565b6000546001600160a01b031633146105e45760405162461bcd60e51b815260206004820181905260248201527f4f776e61626c653a2063616c6c6572206973206e6f7420746865206f776e6572604482015260640161071c565b600080546001600160a01b038381166001600160a01b0319831681178455604051919092169283917f8be0079c531659141344cd1fd0a4f28419497f9722a3daafe3b4186f6b6457e09190a35050565b80356001600160a01b03811681146108b157600080fd5b919050565b600080604083850312156108c957600080fd5b6108d28361089a565b946020939093013593505050565b600080604083850312156108f357600080fd5b823591506109036020840161089a565b90509250929050565b60006020828403121561091e57600080fd5b5035919050565b60006020828403121561093757600080fd5b6109408261089a565b9392505050565b634e487b7160e01b600052601160045260246000fd5b8181038181111561040957610409610947565b60006001820161098257610982610947565b5060010190565b808201808211156104095761040961094756fea2646970667358221220f39454a844a5a2266bc04804f7934a5e8a3d56e46df8f13757801d668eed69e464736f6c63430008130033",
  "devdoc": {
    "kind": "dev",
    "methods": {
      "owner()": {
        "details": "Returns the address of the current owner."
      },
      "renounceOwnership()": {
        "details": "Leaves the contract without owner. It will not be possible to call `onlyOwner` functions. Can only be called by the current owner. NOTE: Renouncing ownership will leave the contract without an owner, thereby disabling any functionality that is only available to the owner."
      },
      "transferOwnership(address)": {
        "details": "Transfers ownership of the contract to a new account (`newOwner`). Can only be called by the current owner."
      }
    },
    "version": 1
  },
  "userdoc": {
    "kind": "user",
    "methods": {},
    "version": 1
  },
  "storageLayout": {
    "storage": [
      {
        "astId": 53,
        "contract": "src/core/PointTracker.sol:PointTracker",
        "label": "_owner",
        "offset": 0,
        "slot": "0",
        "type": "t_address"
      },
      {
        "astId": 5226,
        "contract": "src/core/PointTracker.sol:PointTracker",
        "label": "manager",
        "offset": 0,
        "slot": "1",
        "type": "t_address"
      },
      {
        "astId": 5228,
        "contract": "src/core/PointTracker.sol:PointTracker",
        "label": "season",
        "offset": 0,
        "slot": "2",
        "type": "t_uint256"
      },
      {
        "astId": 5230,
        "contract": "src/core/PointTracker.sol:PointTracker",
        "label": "endOfSeason",
        "offset": 0,
        "slot": "3",
        "type": "t_uint256"
      },
      {
        "astId": 5232,
        "contract": "src/core/PointTracker.sol:PointTracker",
        "label": "seasonActive",
        "offset": 0,
        "slot": "4",
        "type": "t_bool"
      },
      {
        "astId": 5238,
        "contract": "src/core/PointTracker.sol:PointTracker",
        "label": "pointsInSeason",
        "offset": 0,
        "slot": "5",
        "type": "t_mapping(t_uint256,t_mapping(t_address,t_uint256))"
      },
      {
        "astId": 5244,
        "contract": "src/core/PointTracker.sol:PointTracker",
        "label": "isActivated",
        "offset": 0,
        "slot": "6",
        "type": "t_mapping(t_uint256,t_mapping(t_address,t_bool))"
      }
    ],
    "types": {
      "t_address": {
        "encoding": "inplace",
        "label": "address",
        "numberOfBytes": "20"
      },
      "t_bool": {
        "encoding": "inplace",
        "label": "bool",
        "numberOfBytes": "1"
      },
      "t_mapping(t_address,t_bool)": {
        "encoding": "mapping",
        "key": "t_address",
        "label": "mapping(address => bool)",
        "numberOfBytes": "32",
        "value": "t_bool"
      },
      "t_mapping(t_address,t_uint256)": {
        "encoding": "mapping",
        "key": "t_address",
        "label": "mapping(address => uint256)",
        "numberOfBytes": "32",
        "value": "t_uint256"
      },
      "t_mapping(t_uint256,t_mapping(t_address,t_bool))": {
        "encoding": "mapping",
        "key": "t_uint256",
        "label": "mapping(uint256 => mapping(address => bool))",
        "numberOfBytes": "32",
        "value": "t_mapping(t_address,t_bool)"
      },
      "t_mapping(t_uint256,t_mapping(t_address,t_uint256))": {
        "encoding": "mapping",
        "key": "t_uint256",
        "label": "mapping(uint256 => mapping(address => uint256))",
        "numberOfBytes": "32",
        "value": "t_mapping(t_address,t_uint256)"
      },
      "t_uint256": {
        "encoding": "inplace",
        "label": "uint256",
        "numberOfBytes": "32"
      }
    }
  }
}